:020000040800F2
:10000000F8340020A1020008E9140008D9140008FF
:10001000E5140008E9070008B53D000800000000ED
:10002000000000000000000000000000F1140008C3
:10003000ED07000800000000ED14000801030010A7
:10004000BB020008BB020008BB020008BB0200089C
:10005000BB020008BB020008BB020008C903001075
:10006000BB020008BB020008BB020008BB0200087C
:10007000BB020008BB020008BB020008110300100D
:10008000BB020008BB020008BB020008BB0200085C
:10009000BB020008BB020008BB020008BB0200084C
:1000A000BB020008BB020008BB020008BB0200083C
:1000B000BB020008B9040010BB020008BB02000824
:1000C000BB020008BB020008BB020008BB0200081C
:1000D000BB020008693D0008BB020008BB02000823
:1000E000BB020008BB020008BB020008BB020008FC
:1000F000BB020008BB020008BB020008BB020008EC
:10010000000000000000000000000000BB0200082A
:10011000BB020008BB020008BB020008BB020008CB
:10012000BB020008BB020008BB020008BB020008BB
:10013000BB020008BB020008000000000000000035
:10014000BB020008BB020008BB0200080000000060
:10015000000000000000000000000000000000009F
:100160000000000000000000BB020008BB02000805
:10017000BB020008000000000000000000000000BA
:1001800000000000BB02000800F002F800F078F860
:1001900014A696E8000CB244B344DA4501D100F04D
:1001A0006FF8BAE80F000FA696E83000A5EB04053B
:1001B00004EB0607AAEB0704A7F101074FEA1515A0
:1001C0004FEA3414A4F10104AC4201D300F058F812
:1001D00013F0010F18BFFB1A43F0010300F001F800
:1001E000DBE718477C710000BC7100000A4410F87E
:1001F000014B14F00F0508BF10F8015B240908BF7C
:1002000010F8014B6D1E05D010F8013B6D1E01F872
:10021000013BF9D1641E03D0641E01F8015BFBD1E0
:100220009142E4D370470000103A24BF78C878C1E7
:10023000FAD8520724BF30C830C144BF04680C60EC
:1002400070470000704700000023002400250026AE
:10025000103A28BF78C1FBD8520728BF30C148BF29
:100260000B607047692900F0AD80732900F0BD81F3
:10027000002070471FB505F09AFF1FBD10B510BDD7
:1002800000F0B7F91146FFF7F5FF03F0FBFD00F0B2
:10029000D5F903B4FFF7F2FF03BC00F0DDF900006D
:1002A0000948804709480047FEE7FEE7FEE7FEE70A
:1002B000FEE7FEE7FEE7FEE7FEE7FEE70448054946
:1002C000054A064B70470000F51400088901000834
:1002D000F82E0020F8340020F8300020F8300020FC
:1002E0000FB41CB5074B06AA7B44694600900598DD
:1002F00000F051F90020694600F060F91CBC5DF87F
:1003000014FB0000D10200002DE9F0410E46044626
:10031000002020622046E168884730B3252805D0B8
:10032000D4E901219047206A401CF2E7E1682046A9
:1003300000278847050018D0A5F14100192802D8E8
:1003400020354FF400673246294620462760FFF7E4
:1003500089FF40B1012804D0F61D26F007060836B3
:10036000D8E7361DD6E72846DAE7206ABDE8F081EF
:1003700070B50C460546012A05D02878800600D5C0
:10038000EA69002302E0012305E05B1C934202D2EC
:10039000E05C0028F9D1A869E618C01AA861286AAB
:1003A000184428622846AFF3008004E0D5E9012113
:1003B00014F8010B9047B442F8D32846AFF30080FD
:1003C00070BD00002DE9F041064600241068752933
:1003D000314616A510D0AFF30080002802DA404263
:1003E00013A507E031688A0701D512A502E0490785
:1003F00004D511A5012401E0AFF3008000210A22F9
:1004000006F1240709E0B0FBF2FCB0FBF2F302FBBB
:100410001C00303078541846491C0028F3D123467C
:100420002A463046BDE8F04100F056B80000000012
:100430002D0000002B0000002000000040EA010316
:1004400010B59B070FD1042A0DD310C808C9121F7D
:100450009C42F8D020BA19BA884201D9012010BDB7
:100460004FF0FF3010BD1AB1D30703D0521C07E084
:10047000002010BD10F8013B11F8014B1B1B07D1E8
:1004800010F8013B11F8014B1B1B01D1921EF1D159
:10049000184610BD10B5431C02E010F8011B71B1E5
:1004A0008107FAD14FF0013202C88C1A8C4314EA4A
:1004B000C211F9D0C01A0A0603D0C01E10BDC01A5E
:1004C00010BD0A0401D0801E10BD0902FCD0401EE0
:1004D00010BD7047704770472DE9F0470D469946AB
:1004E0009246044600F124080168880604D5E069B4
:1004F00021F01001216000E00120A84201DD471B2E
:1005000000E00027A1697A1902EB0900081AA0612E
:100510002078C00602D42046AFF30080002608E011
:10052000D4E901211AF806009047206A401C761C85
:1005300020624E45F4DB2078C0060AD52046AFF392
:10054000008006E0D4E9012130209047206A401C59
:100550002062381EA7F10107F4DC07E0D4E901218D
:1005600018F805009047206A401C2062281EA5F15B
:100570000105F3DC2046AFF300802078000602D5A9
:100580000220BDE8F0870120FBE7000001694A1C5A
:1005900002610878704700B58FB0CDE901310021C4
:1005A000059105497944CDE9031011466846FFF7E6
:1005B000ABFE0FB000BD0000E5FFFFFF0A6802F8C8
:1005C000010B0A60704710B5436913B1AFF30080A7
:1005D00001E0FFF7CDFE012010BD127800F12401EB
:1005E0000A7000224A700122EDE711684FF0FF32D5
:1005F000E9E7754600F02CF8AE460500694653461B
:1006000020F00700854618B020B5FFF757FEBDE87B
:1006100020404FF000064FF000074FF000084FF069
:10062000000BAC46ACE8C009ACE8C009ACE8C009B6
:10063000ACE8C00921F007018D46704710B50446AB
:10064000AFF300802046BDE81040FFF722BE000057
:10065000004870471800002001491820ABBEFEE793
:10066000260002007047032A40F2308010F0030C8D
:1006700000F0158011F8013BBCF1020F624498BFF5
:1006800011F801CB00F8013B38BF11F8013BA2F192
:10069000040298BF00F801CB38BF00F8013B11F00D
:1006A000030300F02580083AC0F0088051F8043BAD
:1006B000083A51F804CBA0E80810F5E7121D5CBF1A
:1006C00051F8043B40F8043BAFF30080D20724BF4D
:1006D00011F8013B11F801CB48BF11F8012B24BFE1
:1006E00000F8013B00F801CB48BF00F8012B704730
:1006F00010B5203AC0F00B80B1E81850A0E81850AF
:10070000B1E81850A0E81850203ABFF4F5AF5FEAFE
:10071000027C24BFB1E81850A0E8185044BF18C9A3
:1007200018C0BDE810405FEA827C24BF51F8043B4A
:1007300040F8043B08BF7047D20728BF31F8023B9E
:1007400048BF11F8012B28BF20F8023B48BF00F832
:10075000012B70474FF000020429C0F0128010F006
:10076000030C00F01B80CCF1040CBCF1020F18BF8D
:1007700000F8012BA8BF20F8022BA1EB0C0100F020
:100780000DB85FEAC17C24BF00F8012B00F8012BF3
:1007900048BF00F8012B70474FF0000200B5134628
:1007A00094469646203922BFA0E80C50A0E80C5091
:1007B000B1F12001BFF4F7AF090728BFA0E80C5042
:1007C00048BF0CC05DF804EB890028BF40F8042B3B
:1007D00008BF704748BF20F8022B11F0804F18BFA8
:1007E00000F8012B70470000FEE700007047000092
:1007F00042F62851C2F200010022CA6142F2100101
:10080000C4F202010A6842F002020A604860086805
:1008100040F040000860704784B042F68C60C2F23D
:10082000000003904FF60000C0F60100029003980C
:1008300001900020ADF80200FFE7BDF80200042897
:1008400011D8FFE702980068019908600298043007
:100850000290019804300190FFE7BDF802000130DA
:10086000ADF80200E9E704B07047000080B584B03D
:1008700005F086FA00F038FB42F68C60C2F2000008
:1008800003904FF60000C0F6010002900020ADF882
:100890000600FFE7BDF80600042813D8FFE702981A
:1008A00003990A68002300F01BFA039804300390B0
:1008B000029804300290FFE7BDF806000130ADF861
:1008C0000600E7E700F002FA04B080BD10B542F27E
:1008D000CC5EC2F2000EDEF81400DEF8001040F22A
:1008E000083C0828C5F2000C01D108221CE040F2A7
:1008F0000870ACF50272C5F20000914208BF604674
:10090000B1F1A04F08BF60460268D20608D0006867
:1009100010F4404F07D0DEF8400040F020003BE0EC
:10092000C868C007F7D10C2240F2001341F4807070
:10093000C5F2000398421ABF40F20870C5F20000E9
:1009400060460068C00607D040F2004341F4806072
:10095000C5F20003984202D101F10C0007E0ACF5AA
:1009600002730CF58270994208BFACF53F7042F6F5
:10097000E863C2F20003D0F800C018680C681442A3
:1009800010D11C68241A652CF8D30C681442F5D1D8
:10099000DEF8400040F00400CEF8400000208EF861
:1009A0003C0010BDDEF840000CF4005340F4007031
:1009B000CEF84000C86800F44060C0181CD1086838
:1009C000000719D58B68DEF840005B0708D420F4D7
:1009D00080704EF8400FDEF80000C00406D50BE032
:1009E00040F02000CEF840000EF1440EDEF800008A
:1009F00040F00100CEF800005FEA4C4058BF0A60AA
:100A000010BD0000B0B542F2CC51C2F2000108683E
:100A10008268520700F19F8091F83C20012A00F083
:100A20009A80826802F00302012A02D10268D2078A
:100A300025D182683F23C8F200031A420BD0086C0C
:100A400040F010000864486C40F001004864002049
:100A500081F83C00B0BD826842F00102826042F63B
:100A6000E862C2F2000213680468E40707D1146860
:100A7000E41A032CF8D30468E407F5D1DFE70A6C25
:100A800040F6017340F208349A43C5F2000402F5BF
:100A9000807240F2001C0A6440F48075C5F2000CBC
:100AA000224665451CBF40F20872C5F2000212687A
:100AB000D20607D040F2004340F48062C5F2000342
:100AC0009A4249D10A6C22F480120A64C2689201E7
:100AD00004D50A6C012363F30D320A640A6C4FF0EB
:100AE000000ED2044FF0000244BF4A6C22F006020E
:100AF0004A6481F83CE01C210160214665451CBF29
:100B000040F20871C5F200010968C9061FD02146EC
:100B100065451CBF40F20871C5F20001096801F08B
:100B20001F01052913D065451CBF40F20874C5F2AA
:100B30000004216801F01F01092908D040F2004299
:100B400040F48061C5F20002914218BFB0BD8168D7
:100B500041F004018160B0BD0A6CA4F5027342F457
:100B6000801298420A6402D0D4F80421AFE74FF60D
:100B70000452CFF6FF72A258A9E7000042F2CC5C03
:100B8000C2F2000C9CF83C00012808BF704780B5F9
:100B90000120DCF800108CF83C00886810F00C0F85
:100BA00058D0C8689CF819209CF8183082F00102CF
:100BB00083F001031A43B2FA82F200F00070520986
:100BC00002EA5063012B1AD10868400613D449F297
:100BD0000442C0F20902043A66D0086840065CBFCD
:100BE00008685FEA406006D4086840065CBF086891
:100BF0005FEA4060EFD540200422086000E00C224C
:100C00008868400706D58868800703D4886840F064
:100C1000100088600BB1042209E08868000706D53F
:100C20008868800703D4886840F02000886042F616
:100C3000E86EC2F2000EDEF8000000BF8B681342BF
:100C400008D0DEF800301B1A0C2BF7D38B68134248
:100C5000F4D029E0886800F00300012802D1086878
:100C6000C00706D1604650F8401F41F2011291437F
:100C700023E0886800F00D00012815D1886842F64D
:100C8000E86240F00200886003200860C2F20002BF
:100C9000106800BF8B68DB07E4D013681B1A032BB6
:100CA000F8D38B68DB07F5D0DCF8400040F010008B
:100CB000CCF84000604650F8441F41F0010101604B
:100CC00000208CF83C00BDE88040704742F21000E4
:100CD000C4F20200016841F0800101607047000029
:100CE00042F6285CC2F2000C9CF81810012908BFDB
:100CF0007047B0B542F20C03012142F6E86EC4F22F
:100D000002038CF81810C2F2000EDEF800101C6806
:100D1000E40710D11968890644BF202119601968B9
:100D2000C9065CBF19685FEA41713DD51868C00605
:100D300026D400202BE04CF25034DEF800506D1A1F
:100D4000A54200F289801D68ED07E3D0DEF800506F
:100D50006D1AA54200F280801D68ED07DAD0DEF83A
:100D600000506D1AA54277D81D68ED07D2D0DEF885
:100D700000506D1AA5426FD81D68ED07DDD1C9E797
:100D8000DCF81C0040F00200CCF81C0010201968B0
:100D9000490707D5DCF81C1040F0040041F00101C0
:100DA000CCF81C10186057E00021CCF81C105968D2
:100DB00041F0010159600280DEF800101C68E40770
:100DC00010D11968890644BF202119601968C90625
:100DD0005CBF19685FEA417144D51868C00624D425
:100DE000002029E04CF25034DEF800506D1AA54284
:100DF0002ED81D68ED07E4D0DEF800506D1AA5422C
:100E000026D81D68ED07DCD0DEF800506D1AA5422B
:100E10001ED81D68ED07D4D0DEF800506D1AA5422B
:100E200016D81D68ED07DFD1CBE7DCF81C0040F0D9
:100E30000200CCF81C0010201968490707D5DCF81F
:100E40001C1040F0040041F00101CCF81C101860A7
:100E5000586820F00100586000208CF81800BDE8A8
:100E6000B04070475968120C21F00101596000210F
:100E7000CCF81C10596841F0010159604280DEF83D
:100E800000001968C9070CD11868800644BF2020EB
:100E900018601868C0065CBF18685FEA40709CD490
:100EA000D6E74CF25031DEF80020121A8A42CFD831
:100EB0001A68D207E8D0DEF80020121A8A42C7D892
:100EC0001A68D207E0D0DEF80020121A8A42BFD892
:100ED0001A68D207D8D0DEF80020121A8A42B7D892
:100EE0001A68D207DFD1CFE742F20400C4F2020051
:100EF000C168090658BF704740F22311C4F2675118
:100F0000016048F6AB11CCF6EF510160C068704744
:100F10002DE9F04F83B00D68002D00F0C58000F181
:100F2000200241F2000C009200F13847C4F6000C98
:100F300005224FEAB726604508BF0422042E38BFB9
:100F40004FEAB722002600274FF00108019209E07E
:100F50000D68043735FA08F208F1010806F10206B7
:100F600000F0A280A8F1010A012202FA0AFE15EAA5
:100F70000E09EDD0D1F804B003220BF003056C1E6E
:100F8000B240012C6FEA020C10D88268CC6802EAE9
:100F90000C02B440224382604268CBF3001422EA80
:100FA0000E0204FA0AF42243426003E0032D01D149
:100FB00003251EE0C2688C6802EA0C02B44022439A
:100FC000022DC26015D16FF0030202EA5A0B009A9B
:100FD00007F01C0452F80BE00F230D69A3402EEA22
:100FE0000303A5402B4342F80B30D1F804B00BF0BB
:100FF0000305026805FA06F302EA0C021A431BF421
:10100000403F0260A4D041F21803C4F202031A6800
:1010100040F2004C42F001021A601A68C4F2010C5E
:1010200002F001020292029A2AF003024FF6084EE1
:101030006244CFF6FF7E52F80E3007F00C050F2405
:10104000AC40A343019C04FA05F52B4342F80E3053
:10105000DCF800204B6842EA0905DC0358BF22EAAD
:101060000905CCF80050DCF804209C0342EA09058D
:1010700058BF22EA0905CCF80450DCF80820DC024D
:1010800042EA090540F20C4458BF22EA0905CCF8AF
:101090000850C4F2010422689B0242EA090558BFC5
:1010A00022EA0905256053E703B0BDE8F08F000090
:1010B000B0B586B0026844F60003C4F20003002114
:1010C0009A42CDE90411CDE90211019160D043F6B5
:1010D0000001C4F201018A4240F0818041F2140112
:1010E000C4F202014A68002442F480424A604A681D
:1010F000054602F480420092009A0A684FF0904040
:1011000042F400320A60096801F40031009100994C
:101110004FF4C06101910221029103210491072142
:10112000059101A90394FFF7F3FE42F26060582194
:10113000C2F20000C4F2020180224FF0200CC0E98C
:101140000014C0E90242C0E90444C0E906C40A68C8
:101150000A2363F30D1241F858291022C0E90F1237
:101160004FF4807184630184286745624EF60C5009
:10117000CEF2000000684EF22540CEF2000004706E
:101180004EF20410CEF20000C0F800C006B0B0BDB0
:1011900041F21400C4F20200826842F480228260AC
:1011A000826802F480220092009A026842F480224F
:1011B0000260006800F48020009000984FF4806086
:1011C00001900220CDE90201032004900720059040
:1011D00040F20040C4F6000001A9FFF799FE06B0F6
:1011E000B0BD000042F22470C2F20000C16F20299D
:1011F00040F0188190F87410012908BF7047F0B5CD
:1012000001214FF0000C80F87410C0F860C0016834
:101210004968090200F1CE8042F2CC114FF480629D
:10122000C2F20001A0F8582022224165C0F880C017
:10123000C267026F002A44D041F6790343F65D1479
:10124000C0F60003C0F60004C2E90A3492F8203068
:1012500041F2F965C0F600050026012B15635663BF
:1012600000F0D78092F82130D0F800C04FF0010E86
:10127000012B82F820E040F0C980022382F821305F
:1012800000239363D2E90037D2E90F251E680CF1E1
:10129000240426F001061E600EFA05F656604FF48F
:1012A00080625A602246102F04BF0A4621469A6087
:1012B000D960196841F00E011960196841F0010107
:1012C0001960002180F87410016851E8001F02685D
:1012D00041F4807142E80013E3B1016851E8001F56
:1012E000026841F4807142E800139BB1016851E843
:1012F000001F026841F4807142E8001353B1016895
:1013000051E8001F026841F4807142E80013002B8D
:10131000DAD100BF016851E8021F026841F0010103
:1013200042E80213D3B3016851E8021F026841F09A
:10133000010142E802138BB3016851E8021F026801
:1013400041F0010142E8021343B3016851E8021F72
:10135000026841F0010142E80213002BDAD11DE0DE
:10136000016851E8021F026841F0400142E802139F
:10137000002B55D0016851E8021F026841F040017E
:1013800042E80213002B4BD0016851E8021F0268AB
:1013900041F0400142E80213002B41D0016851E8BE
:1013A000021F026841F0400142E80213002BD7D12E
:1013B00036E000BF016851E8001F036841F080611A
:1013C00043E80012002A3FF427AF016851E8001FEC
:1013D000026841F0806142E80013002B3FF41CAF2B
:1013E000016851E8001F026841F0806142E8001383
:1013F000002B3FF411AF016851E8001F026841F073
:10140000806142E80013002BD4D105E7002182F867
:1014100020101021C0F88010202180F87460C1676E
:10142000BDE8F04070470000F0B581B00446806F21
:10143000202804D10D46002918BF002A01D101B08F
:10144000F0BD94F874000128F9D00020C4F88000A1
:101450002120A06742F6E860C2F200000668A4F806
:101460005020A4F85220A068B0F5805F01D1206917
:1014700080B32F460025002084F8740008E000BFE8
:1014800017F8011B0185B4F852000138A4F8520086
:10149000B4F8520088B12046802132464FF47A7366
:1014A00002F094FB0028CAD12068002FE8D135F85B
:1014B000021B00276FF35F21E4E7204640213246FC
:1014C0004FF47A7302F082FB002804BF2020A0674B
:1014D00001B0F0BD0027CEE7012080F3138802F0B1
:1014E0006BFC0000FEE70000FEE700007047000014
:1014F000704700004EF68850CEF20000016841F4BB
:10150000700101607047000040F2FF7C0268C4F285
:10151000000C604512DD40F60003C4F2000398425F
:1015200015D043F20043C4F2010398420FD042F6B3
:101530000043C4F20103984209D00CE0B0F1804F9F
:1015400005D040F20043C4F20003984203D14B6837
:1015500022F070021A4343F2FF33C4F201039842AF
:101560000BDC604518DCB0F1804F2AD040F200431C
:10157000C4F20003984224D027E044F2FF33C4F2BF
:101580000103984211DC43F20043C4F20103984284
:1015900017D044F2000310E040F60003C4F2000349
:1015A00098420ED042F6004307E044F60003C4F22E
:1015B0000103984205D044F20043C4F2010398426B
:1015C00003D1CB6822F440721A4380B54B6922F0F4
:1015D000800E8A6843EA0E03D1F800C00360C2623D
:1015E000A0F18042A2F596324FEAB222072AC0F853
:1015F00028C0BDE8804007D8012303FA02F212F0A8
:10160000E50F1CBF096901630121416170470000BA
:10161000416ACA070CD18A0715D44A071ED40A07A3
:1016200027D4CA0630D48A0639D44A0642D457E0B1
:101630000268D0F828C0536823F4003343EA0C034F
:1016400053608A07E9D50268D0F82CC0536823F4A8
:10165000803343EA0C0353604A07E0D50268D0F8B0
:1016600030C0536823F4802343EA0C0353600A0715
:10167000D7D50268D0F834C0536823F4004343EA56
:101680000C035360CA06CED50268D0F838C0936800
:1016900023F4805343EA0C0393608A06C5D502689D
:1016A000D0F83CC0936823F4005343EA0C039360E2
:1016B0004A0615D5D0F800C0036CDCF80420B3F559
:1016C000801F22F4801242EA0302CCF8042007D1E2
:1016D000DCF80420436C22F4C0021A43CCF8042046
:1016E000090658BF70470168806C4A6822F40022DE
:1016F0001043486070470000406A0268836FD0F86A
:101700007CC0916809062DD5212B2BD10021A0F892
:10171000521000BF016851E8001F026821F0C001AB
:1017200042E80013DBB1016851E8001F026821F0B4
:10173000C00142E8001393B1016851E8001F02683C
:1017400021F0C00142E800134BB1016851E8001FCD
:10175000026821F0C00142E80013002BDAD12021F9
:10176000816702689168490640F17E80BCF1220FD2
:101770007AD10021A0F85A10016851E8001F0268D0
:1017800021F4907142E80013BBB3016851E8001FD7
:10179000026821F4907142E8001373B3016851E8C4
:1017A000001F026821F4907142E800132BB3016816
:1017B00051E8001F026821F4907142E80013002BE9
:1017C000DAD11AE0016851E8021F026821F0010134
:1017D00042E80213DBB1016851E8021F026821F000
:1017E000010142E8021393B1016851E8021F026847
:1017F00021F0010142E802134BB1016851E8021FD8
:10180000026821F0010142E80213002BDAD1016ED7
:10181000012924D1016851E8001F026821F010015C
:1018200042E80013DBB1016851E8001F026821F0B3
:10183000100142E8001393B1016851E8001F0268EB
:1018400021F0100142E800134BB1016851E8001F7C
:10185000026821F0100142E80013002BDAD12021A8
:10186000C167002101664166D0F8801041F0100187
:10187000C0F88010704700002DE9F04F81B02DEDC9
:10188000088BB4B08169406A202900F09E80002155
:10189000A0F85A10016851E8001F026821F4807115
:1018A00042E80013E3B1016851E8001F026821F427
:1018B000807142E800139BB1016851E8001F026883
:1018C00021F4807142E8001353B1016851E8001F10
:1018D000026821F4807142E80013002BDAD100BFC6
:1018E000016851E8021F026821F0010142E8021379
:1018F000BBB3016851E8021F026821F0010142E810
:10190000021373B3016851E8021F026821F001015C
:1019100042E802132BB3016851E8021F026821F06C
:10192000010142E80213002BDAD11AE0016851E804
:10193000021F026821F0400142E80213DBB1016896
:1019400051E8021F026821F0400142E8021393B1FE
:10195000016851E8021F026821F0400142E80213C9
:101960004BB1016851E8021F026821F0400142E8D2
:101970000213002BDAD12021C167016E012924D185
:10198000016851E8001F026821F0100142E80013CD
:10199000DBB1016851E8001F026821F0100142E844
:1019A000001393B1016851E8001F026821F0100193
:1019B00042E800134BB1016851E8001F026821F0B2
:1019C000100142E80013002BDAD1016E012900F06A
:1019D0009485006F40F27C050068C2F20005406803
:1019E00040F21004039028680399C2F20004884270
:1019F0000FD140F28006C2F200063068013030603C
:101A000030680B2805D3FFF7EDFB00203060039012
:101A1000606003982860206838B10398B0F5806F43
:101A200003D10020206000F068BD61680020B0EBA9
:101A3000912F04BF6068C0F580600590206840B1B8
:101A400060680021B1EB902F0BD160680399401AB8
:101A50000AE00598C0F5806004904FF480606060F3
:101A600007E00398C0F58060049003986060002050
:101A7000206040F27800C2F200000078002800F0F8
:101A800042854EF21001CEF20001086840F00200DB
:101A90000860DDF814B0049805990844834580F087
:101AA000248542F2CC1942F6B86842F6BC6542F68B
:101AB000B46C42F6D4679FEDD68A9FEDD69A9FED1F
:101AC000D6AB42F6C466C2F20009C2F200084FF07B
:101AD000000AC2F20005C2F2000CC2F20007C2F214
:101AE00000060AE0481CC8F80000049805990BF1AC
:101AF000010B0844834580F0F88458466FF39F201B
:101B000019F80000D8F800102028EBD051B1A0F14E
:101B10002E010B291BD8DCF800107054481CCCF89F
:101B20000000E2E70D2815D042F6B061C2F20001D4
:101B30002C460D46096842F6A063C2F20003324605
:101B40003E465854481C286025461646CDE70D28C9
:101B500040F0A88042F6B060C2F2000042F6A061F8
:101B6000C0F800A00FF6C420C2F200010622C5F89A
:101B700000A0CCF800A0C8F800A0FEF75FFC002889
:101B800000F0958042F6A0610FF6B020C2F200018D
:101B90000A22FEF753FC002800F0E58042F6A0611F
:101BA0000FF6A420C2F200010A22FEF747FC00282B
:101BB00000F0368142F6A0610FF69820C2F20001D3
:101BC0000B22FEF73BFC002800F0B38142F6A06137
:101BD0000FF68C20C2F200010B22FEF72FFC00282A
:101BE00000F03A8242F6A0610FF68420C2F20001B2
:101BF0000622FEF723FC002800F0908242F6A06146
:101C00000FF67C20C2F200010A22FEF717FC002822
:101C100000F0A38242F6A060C2F20000006846F223
:101C20006851C7F26C01884240F043840FF65C2093
:101C300004F0E0F847F28A20C0F6000004F0DAF879
:101C400047F2AF24C0F60004204604F0D3F847F270
:101C50006B10C0F6000004F0CDF847F28E10C0F60D
:101C6000000004F0C7F8204604F0C4F847F246101C
:101C7000C0F6000004F0BEF847F22D20C0F60000C8
:101C800004F0B8F8204604F0B5F847F2FA10C0F6B0
:101C9000000004F0AFF8204604F0ACF80FF6042082
:101CA00000F005BC29687854481C28601DE73C46B4
:101CB0004F4647F2FC29C0F6000948462146062255
:101CC000FEF7BCFB002800F0FF80206847F263218C
:101CD000C6F27361884200F0808147F25430C0F64A
:101CE000000021460322FEF7A9FB42F6C466002845
:101CF000C2F20006B946274640F0DB8342F68C610B
:101D00000220C2F200010871FEF7B0FD0DF1200AB9
:101D100050463221FEF740FD47F2832147F2B122BF
:101D200047F254335046C0F60001C0F60002C0F638
:101D30000003FEF7D5FA42F6C060C2F20000056863
:101D40005046FEF7A7FB82B2284642F6BC655146D4
:101D500042F6C466C2F200054FF0000AC2F2000665
:101D6000FFF762FBA5E347F22130C0F600003946D9
:101D70000622FEF763FB002800F0678147F2493036
:101D8000C0F6000039460622FEF758FB002800F096
:101D9000B78147F2EE20C0F6000039460622FEF772
:101DA0004DFB002800F0C48147F23530C0F600003A
:101DB00039460622FEF742FB002800F03C8247F23B
:101DC000D120C0F6000039460622FEF737FB002876
:101DD00000F05B8247F2E520C0F60000394606229B
:101DE000FEF72CFB002800F0CE8247F2C320C0F69D
:101DF000000039460622FEF721FB002840F05983F7
:101E000042F68C610120C2F20001C87249E300BFB2
:101E1000CDCCCC3D000000009A9999999999B93F91
:101E200047F22130C0F6000039460622FEF706FBD5
:101E3000002800F06C8147F24930C0F600003946B6
:101E40000622FEF7FBFA002800F0798147F2EE2027
:101E5000C0F6000039460622FEF7F0FA002800F02E
:101E6000F18147F23530C0F6000039460622FEF710
:101E7000E5FA002800F0108247F2D120C0F60000F9
:101E800039460622FEF7DAFA002800F0838247F28C
:101E9000E520C0F6000039460622FEF7CFFA0028FA
:101EA00000F0D68247F2C320C0F600003946062271
:101EB000FEF7C4FA002840F0FC8242F68C60C2F2C1
:101EC000000080F80BA0ECE242F68C60C2F2000049
:101ED00080F804A0FEF7CAFC0DF1200A504632211A
:101EE000FEF75AFC47F2832147F2B1225046C0F672
:101EF0000001C0F600024B46FEF7F2F942F6C06060
:101F0000C2F20000D0F800905046FEF7C3FA82B249
:101F1000484642F6BC655146C2F20005B9464FF04C
:101F2000000AFFF781FA42F6C4662746C2F20006AD
:101F3000BFE247F20430C0F6000039460322FEF744
:101F40007DFA002800F0028147F22C30C0F6000034
:101F500039460322FEF772FA002800F07A8147F230
:101F60001D30C0F6000039460322FEF767FA00284C
:101F700000F0998147F2FF20C0F6000039460322A5
:101F8000FEF75CFA002800F00C8247F25830C0F6E9
:101F9000000039460322FEF751FA002800F05F8264
:101FA00047F2EE20C0F6000039460322FEF746FA5B
:101FB000002800F0628247F2D920C0F600003946BE
:101FC0000322FEF73BFA002840F0738242F68C6150
:101FD0000120C2F20001887463E242F68C69C2F209
:101FE0000009012089F80400FEF740FC0DF1200AE9
:101FF00050463221FEF7D0FB47F2832147F2B1224F
:1020000047F2F7235046C0F60001C0F60002C0F6C2
:102010000003FEF765F942F6C060C2F200000568F1
:102020005046FEF737FA82B2284642F6BC65514662
:10203000C2F200054FF0000AFFF7F6F942F6C46657
:10204000C2F20006B946274633E242F68C6101200F
:10205000C2F20001487109E147F20430C0F6000005
:1020600039460322FEF7EAF9002800F0F98047F22A
:102070002C30C0F6000039460322FEF7DFF90028B5
:1020800000F0188147F21D30C0F6000039460322E7
:10209000FEF7D4F9002800F08B8147F2FF20C0F64C
:1020A000000039460322FEF7C9F9002800F0DE815E
:1020B00047F25830C0F6000039460322FEF7BEF959
:1020C000002800F0E18147F2EE20C0F6000039461A
:1020D0000322FEF7B3F9002800F0DD8147F2D92092
:1020E000C0F6000039460322FEF7A8F9002840F0A8
:1020F000E08142F68C60C2F2000080F812A0D0E1CC
:1021000042F68C610120C2F200018871AEE042F615
:102110008C60C2F2000080F805A0A7E030783C4651
:102120002D2803D030782B2840F0CB800125C9E042
:1021300042F68C610120C2F20001C87196E042F6BD
:102140008C60C2F2000080F806A08FE042F68C613D
:102150000120C2F20001087388E042F68C64C2F2EA
:1021600000040DF1200A256850463221FEF714FBC9
:1021700047F27C2147F20F325046C0F60001C0F60C
:1021800000022B46FEF7ACF842F6C060C2F2000037
:1021900005685046FEF77EF982B228465146FFF7A1
:1021A00043F92079002800F00A81207942F6BC65C5
:1021B00042F6C4660128C2F20005C2F200064FF0E2
:1021C000000A40F03E8147F2F720C0F6000003F01D
:1021D00021FE217B47F20430C0F6000003F0E8FD49
:1021E000617B47F22C30C0F6000003F0E1FDA17BDB
:1021F00047F21D30C0F6000003F0DAFDE17B47F244
:10220000FF20C0F6000003F0D3FD217C47F25830D8
:10221000C0F6000003F0CCFD617C47F2EE20C0F672
:10222000000003F0C5FDA17C47F2D920C0F60000F4
:1022300003F0BEFD3DE142F68C610120C2F20001D7
:10224000087213E042F68C60C2F2000080F807A02A
:102250000CE042F68C610120C2F20001487305E0F7
:1022600042F68C60C2F2000080F80CA0FEF7FEFA85
:1022700042F6C060C2F20000006847F24111C0F6A9
:1022800000010422FFF7D0F813E142F68C6101202F
:10229000C2F20001487204E142F68C60C2F2000012
:1022A00080F808A0FDE042F68C610120C2F2000136
:1022B0008873F6E042F68C60C2F2000080F80DA050
:1022C000EFE000250027B0EE49BAB0EE480A002042
:1022D00019E0705D303801EE100AB8EEC11A20EE38
:1022E000011A10EE100A31EE0BBA03F0EFFE53ECB8
:1022F0001A2B03F0EDFD03F0B9FD00EE100A0120EA
:102300000135112D21D0715D69B1715D2E29F6D095
:10231000C007DED1705D07EB870100EB4100A0F143
:1023200030070020ECE700EE107AB8EEC00A3078F3
:102330003BEE000AB1EE401A2D2808BFB0EE410A6C
:10234000BCEEC00A10EE100A00E0002042F68C61DC
:10235000C2F200010860FEF789FA42F6C060C2F2DC
:102360000000006847F22C11C0F600011422FFF7AC
:102370005BF842F2CC1942F6BC65C2F20009C2F227
:102380000005274695E042F68C610120C2F200016B
:10239000887286E042F68C60C2F2000080F809A0E4
:1023A0007FE042F68C610120C2F20001C87378E040
:1023B00042F68C60C2F2000080F80EA071E047F295
:1023C000FC20C0F6000003F025FD617947F22130C2
:1023D000C0F6000003F0ECFCA17947F24930C0F6EA
:1023E000000003F0E5FCE17947F2EE20C0F60000C2
:1023F00003F0DEFC217A47F23530C0F6000003F02E
:10240000D7FC617A47F2D120C0F6000003F0D0FC7F
:10241000A17A47F2E520C0F6000003F0C9FCE17A9A
:1024200047F2C320C0F6000003F0C2FC42F6BC65D0
:1024300042F6C466C2F20005C2F200064FF0000A7E
:1024400037E047F25430C0F6000003F0E3FC30E020
:1024500042F68C60C2F2000080F80AA021E042F649
:102460008C610120C2F2000108741AE042F68C600F
:10247000C2F2000080F80FA013E042F68C61012048
:10248000C2F2000148740CE042F68C60C2F2000017
:1024900080F810A005E042F68C60C2F2000080F8DF
:1024A00011A0FEF7E3F947F24110C0F6000003F077
:1024B000A1FC42F6A06042F6B46CC2F20000C2F287
:1024C000000CC0F80BA0C0E900AAC0F808A0C6E93B
:1024D00000AAC6F808A0C6F80BA0C7E900AAC7F86A
:1024E00008A0C7F80BA0FFF700BB4EF21001CEF218
:1024F0000001086820F00200086034B0BDEC088BD1
:1025000001B0BDE8F08F42F68C68C2F2000898F87E
:102510000410DDF814B0049802291ED1059942F286
:10252000CC185844C2F20008B0F5806F08EB0105E2
:1025300001F2458142F6485642F64C50C2F200067E
:10254000C2F20000049C31680268914281F24C8121
:1025500000683168401A01F04CB905990844834578
:10256000CBD222A842F2CC1C42F6C04342F6340E33
:1025700042F2C81546F2D4190130C2F2000CC2F280
:102580000003C2F2000E4FF0000AC2F20005C0F6CE
:102590000009019006E0049805990BF1010B08442D
:1025A0008345AAD298F80400002800F08D8098F89E
:1025B00004000128EFD158466FF39F201CF800005B
:1025C0002968002900F0B8802968A0F13F0212F1C3
:1025D0003E0F02D8012900F0438529683F2900F207
:1025E0003F8529684A1C2A6042F28812C2F2000222
:1025F000505428680528CED342F28810C2F2000059
:102600004078296802308842C5D142F28816C2F269
:1026100000067078431E00F0B884811E032906F17D
:10262000020280F0B484002100F0D2BC7365745FB4
:1026300070726F746F636F6C000000006D61765F85
:102640006D73675F6F6E00006D61765F6D73675FBE
:102650006F666600637273665F6D73675F6F6E00AF
:10266000637273665F6D73675F6F6666000000007C
:102670007365745F756172745F7370656564000083
:102680006765745F73746174757300007365745F5C
:1026900070726F746F636F6C20617267756D656EB9
:1026A00074200D006765745F7374617475733A20EC
:1026B00073686F772063757272656E7420736574CA
:1026C00074696E67730D000058466FF39F201CF805
:1026D0000060DC784FF000090F2C83F80090029620
:1026E00000F22382DFE814F01000100024013E0104
:1026F000900087019B016101CE010C01AF016B00CD
:10270000A3002F002F005501FE2E00F0D58142F6C8
:102710006857FD2EC2F2000740F00B82187B02249E
:1027200000F0FE00FD2118734FF6FF70DC70AEF86C
:102730000210AEF80000FCE1EA283FF445AFC828DB
:102740003FF442AF27E79EF801009EF80410B04224
:102750004FF0020908BF4FF001090E2C08BF4FF0DF
:102760000209C80783F800908EF8156140F03181A6
:10277000186942F668570028C2F2000700F0F08797
:10278000026B002A00F073849EF80B00BEF809105B
:1027900041EA00411846904742F6C043C2F20003A6
:1027A00093F80090002840F0398642F6340EB9F1D3
:1027B000020FC2F2000E40F0788400F0D1BF197908
:1027C0001D46481C1871BEF8003071440E7386EA2D
:1027D000030181EA0111CCB2090241EA1321230964
:1027E00083EAC4039EF80360C2B25940B242AEF815
:1027F000001011BF0B240C24EC7006462B4642F24D
:10280000C815C2F200051CE3BEF800008EF8056092
:1028100086EA000181EA0111CAB2090241EA1020E8
:10282000110981EAC2014840AEF8000076E19EF845
:102830000B00BEF8091046F20C6542F6685741EAF3
:102840000040D7220021C0F600054FF0FF36C2F24B
:10285000000700BF914210D28B1801335C0804EBD3
:10286000440755F82770874242F66857C2F20007BE
:1028700094BF214606EB5302ECD101EB410155F820
:102880002120824240F0268105EB8100BEF8002025
:102890000379817983EA020080EA0010C0B2030262
:1028A00043EA1222030983EAC0005040029D42F627
:1028B000C043AEF80000C0B20E24C2F2000385424D
:1028C00008BF0D241A79DC708A428EF8145180F00A
:1028D0001C810EEB02000C30891AFDF73BFF42F61B
:1028E000C04342F6340E42F2CC1C42F68C68C2F26F
:1028F0000003C2F2000EC2F2000CC2F2000804E1B2
:10290000704630F8091FBEF8002041EA0621018018
:1029100086EA020080EA0010C1B2000240EA1220FA
:102920000A0982EAC1014840AEF800000A24FBE02F
:10293000BEF800008EF8036086EA000181EA01110A
:10294000CAB2090241EA1020110981EAC2011A7BC8
:102950004840D10783F804A0AEF8000040F0DC80C6
:102960000324E1E0022E8EF8046080F0D980BEF8E6
:102970000000042486EA000181EA0111CAB20902BA
:1029800041EA1020110981EAC2014840AEF8000076
:10299000CAE0587BAEEB0001013881F823610106E3
:1029A000587300F09A810F24BFE0BEF800008EF843
:1029B000086086EA000181EA0111CAB2090241EA0F
:1029C0001020110981EAC2014840AEF80000082435
:1029D000AAE00F240D2042F66857DC70B9F1020F0F
:1029E0005873C2F200070EBF4FF002094FF0000902
:1029F00083F800909DE0BEF800008EF8066086EA3D
:102A0000000181EA0111CAB2090241EA102011094C
:102A100081EAC2014840AEF80000062484E0BEF816
:102A200000008EF8076086EA000181EA0111CAB24F
:102A3000090241EA1020110981EAC2014840AEF8BA
:102A40000000072470E0704630F8091F827801808A
:102A500032438270BEF8002086EA020080EA00104D
:102A6000C1B2000240EA12200A099EF8036082EA1D
:102A7000C1014840002EAEF8000000F0DF810B24B9
:102A8000DC70DEE1BEF800008EF80BA086EA0001E3
:102A900081EA0111CAB2090241EA1020110981EA52
:102AA000C2011A7B4840D107AEF80960AEF80000B9
:102AB00040F00781092437E0187B022440F0010030
:102AC000FE2118734FF6FF70DC70AEF80210AEF8FE
:102AD00000002AE0BEF8000042F6C04380EA001180
:102AE000C9B20A0242EA10200A0982EAC10148403A
:102AF0000299AEF80000C0B20E24C2F20003814277
:102B000008BF0D24DC708EF8141142F2C8154FF086
:102B10000009C2F200050CE0AEF80490052403E0C1
:102B20009878012401309870DC7042F66857C2F240
:102B300000079EF8036042F6505A19795A79C2F29A
:102B4000000A987842F6C043C2F200038AF80410E3
:102B5000511C42F6C0421B7BC2F2000212898AF865
:102B60000C3042F6C0438AF803408AF80510AAF8F0
:102B70000820AAF80A00C2F20003B9F1020F4FF0D0
:102B8000000AFE7083F802A003D1BEF81401388059
:102B900003E009F0FE00022815D140F20110588030
:102BA000029846F2D419FD28C0F6000983F800A067
:102BB0007FF4F1AC0220D8704FF6FF708EF803A0BE
:102BC000AEF80000E7E4B9F1000F46F2D419C0F600
:102BD00000093FF4E0AC42F66851C2F20001C87A45
:102BE000B1F8091041EA004020F07F40492843DC59
:102BF000013820283FF6CFACDFE810F0220021009A
:102C000021002100210021002100210021002100BC
:102C100021002100210021002100210021002100AC
:102C2000210021002100210021002100210060015C
:102C30002100210021002801210021004401AAE4F3
:102C400098F8050000283FF4A6AC42F66854C2F29A
:102C50000004A078FE2840F06D82A07940F2840143
:102C6000C2F200018870B4F80700FE22A1F8030048
:102C700001200A704E7074E14A2800F03B818D28D3
:102C800000F05481EB287FF486AC98F80B00002804
:102C90003FF481AC42F66854C2F20004A078FE28EA
:102CA00040F04083A07940F28401C2F200018870B4
:102CB000B4F80700FE220A704E70A1F80300EB2062
:102CC0004FE19EF8036042F66857002EC2F20007FB
:102CD00000F0EE810B24DC702DE71969002900F06B
:102CE000378558690DF1200800904EF26760C6F6EE
:102CF00009200A904AF68560CBF667300B904FF2B8
:102D00007230C3F66E400C904FF23A50CAF24F50F8
:102D10000D9045F27F20C5F20E100E9046F68C0005
:102D2000C9F605300F904DF6AB10C1F683701090C8
:102D30004CF61950C5F6E030CDE908AA11908A4644
:102D4000103140462022F14602F0D4FD99F80300EC
:102D500009F1020100F10A02404602F0CBFD09F53B
:102D60008A714046022202F0C5FD09F58B7140468A
:102D7000072202F0BFFD089F3720A0EBD70000F02C
:102D80003F0480208DF88800019822AE4721A519C4
:102D9000FDF7E0FC099938BAC5F8050008BAC5F88E
:102DA000010004F1090240463146009E02F0A2FDF6
:102DB0009DF828009DF829109DF82B208DF81C10F7
:102DC0008DF81D009DF82F009DF82E109DF82A30DB
:102DD0008DF81A208DF81E008DF81F1009F21D11B4
:102DE0000DF11A0006228DF81B30FDF727FB002895
:102DF00000F0198342F6C043C2F200031869026B67
:102E0000002A00F0398342F63404C2F20004E07A6A
:102E1000B4F8091041EA00411846904742F6C04311
:102E200042F2C815C2F20003A6460028C2F200050D
:102E300040F08E844FF0030900F08CBC0C24DC7051
:102E4000002642F66857C2F2000774E698F80700B9
:102E500000283FF4A0AB42F66854C2F20004A07808
:102E6000FE2840F02981A07940F28401C2F20001DD
:102E70008870B4F80700FE220A704E70A1F80300B3
:102E80001E206EE098F8080000283FF484AB42F65C
:102E90006854C2F20004A078FE2840F08981A0792D
:102EA00040F28401C2F200018870B4F80700FE22EB
:102EB0000A704E70A1F80300212052E098F8060035
:102EC00000283FF468AB42F66854C2F20004A078D0
:102ED000FE2840F0AB81A07940F28401C2F20001EB
:102EE0008870B4F80700FE220A704E70A1F8030043
:102EF0001A2036E098F8090000283FF44CAB42F65F
:102F00006854C2F20004A078FE2840F0CD81A07978
:102F100040F28401C2F200018870B4F80700FE227A
:102F20000A704E70A1F803004A201AE098F80A00CF
:102F300000283FF430AB42F66854C2F20004A07897
:102F4000FE2840F02D82A07940F28401C2F20001F7
:102F50008870B4F80700FE220A704E70A1F80300D2
:102F60008D205FFA86F88D1D487104F10C0128460A
:102F70004246FDF778FB228855FA86F042F2C815E2
:102F8000C2F20005130A082179E3002135E023F09D
:102F90000305002112F8047B043D81EA070112F8C1
:102FA000034C59F8211012F8027C81EA040159F807
:102FB000211012F8014C81EA070159F8211081EA29
:102FC000040159F82110E5D142F2C815C2F20005FA
:102FD00013F0030311D01778012B81EA070159F888
:102FE00021100AD05778022B81EA070159F82110E5
:102FF00003D09278514059F821103044407842F67D
:10300000C0438142C2F200037FF4C5AA42F2881095
:10301000C2F20000807802381F2821D8DFE810F0C3
:10302000240020002000200020003E02440247022D
:103030002000200020002000200020002000200090
:10304000200020004A022000200020002000200054
:1030500020002000200020003B0220002000410230
:10306000C5F800A0FFF797BA98F80E0024E2B9F16E
:10307000020F1AD101243846714640F22312DC7047
:10308000FDF736FB42F6C04342F6340E42F68C683A
:1030900042F2CC1CC2F20003C2F2000E4FF0020951
:1030A000C2F20008C2F2000C43E54FF0030955E3F9
:1030B0000C24DC7000263EE5F1B20229C0F0438208
:1030C00042F66851C2F2000151FA86F1C97A00292C
:1030D00040F03982711ECAB2022A29D342F66852E0
:1030E000C2F2000252FA81F2D27A002A40F02A8219
:1030F000B11ECAB2022A1BD342F66852C2F20002C3
:1031000052FA81F2D27A002A40F01C82F11ECAB231
:10311000022A0DD342F66852C2F2000252FA81F23C
:10312000D27A002A40F00E82043EF1B20129C7D8BB
:10313000012608E2F1B20229C0F0188242F6685175
:10314000C2F2000151FA86F1C97A002940F00E82DC
:10315000711ECAB2022A29D342F66852C2F2000294
:1031600052FA81F2D27A002A40F0FF81B11ECAB22F
:10317000022A1BD342F66852C2F2000252FA81F2CE
:10318000D27A002A40F0F181F11ECAB2022A0DD390
:1031900042F66852C2F2000252FA81F2D27A002A52
:1031A00040F0E381043EF1B20129C7D80126DDE1F8
:1031B000F1B20229C0F0ED8142F66851C2F200017D
:1031C00051FA86F1C97A002940F0E381711ECAB232
:1031D000022A29D342F66852C2F2000252FA81F260
:1031E000D27A002A40F0D481B11ECAB2022A1BD37F
:1031F00042F66852C2F2000252FA81F2D27A002AF2
:1032000040F0C681F11ECAB2022A0DD342F66852BE
:10321000C2F2000252FA81F2D27A002A40F0B8815A
:10322000043EF1B20129C7D80126B2E1F1B2022968
:10323000C0F0C28142F66851C2F2000151FA86F133
:10324000C97A002940F0B881711ECAB2022A29D376
:1032500042F66852C2F2000252FA81F2D27A002A91
:1032600040F0A981B11ECAB2022A1BD342F66852AD
:10327000C2F2000252FA81F2D27A002A40F09B8117
:10328000F11ECAB2022A0DD342F66852C2F20002FF
:1032900052FA81F2D27A002A40F08D81043EF1B2D6
:1032A0000129C7D8012687E1F1B20229C0F0978130
:1032B00042F66851C2F2000151FA86F1C97A00293A
:1032C00040F08D81711ECAB2022A29D342F668529B
:1032D000C2F2000252FA81F2D27A002A40F07E81D4
:1032E000B11ECAB2022A1BD342F66852C2F20002D1
:1032F00052FA81F2D27A002A40F07081F11ECAB2ED
:10330000022A0DD342F66852C2F2000252FA81F24A
:10331000D27A002A40F06281043EF1B20129C7D876
:1033200001265CE1F1B20229C0F06C8142F66851DD
:10333000C2F2000151FA86F1C97A002940F0628197
:10334000711ECAB2022A29D342F66852C2F20002A2
:1033500052FA81F2D27A002A40F05381B11ECAB2E9
:10336000022A1BD342F66852C2F2000252FA81F2DC
:10337000D27A002A40F04581F11ECAB2022A0DD34A
:1033800042F66852C2F2000252FA81F2D27A002A60
:1033900040F03781043EF1B20129C7D8012631E15E
:1033A000F1B20229C0F0418142F66851C2F2000137
:1033B00051FA86F1C97A002940F03781711ECAB2EC
:1033C000022A29D342F66852C2F2000252FA81F26E
:1033D000D27A002A40F02881B11ECAB2022A1BD339
:1033E00042F66852C2F2000252FA81F2D27A002A00
:1033F00040F01A81F11ECAB2022A0DD342F6685279
:10340000C2F2000252FA81F2D27A002A40F00C8114
:10341000043EF1B20129C7D8012606E142F6340E76
:10342000C2F2000E9CE1002E3FF4E4AC42F63402FE
:10343000C2F20002318892F81641B2F81B81D2F82C
:1034400017E1002956D0D079137A002202E0013228
:1034500091424DD002EBC20706EB070C9CF80370BB
:10346000B842F4D19CF80470BB42F0D19CF80270D1
:10347000BC42ECD190B23FE042F6340E42F66857BF
:1034800042F2C8154FF00309C2F2000EC2F2000763
:10349000C2F2000562E198F811000DE098F80C0006
:1034A0000AE098F8120007E098F8100004E098F895
:1034B0000D0001E098F80F0000283FF4D1AD42F272
:1034C0008810C2F200004178023102F0C9FC42F6D5
:1034D000C04342F6340E42F2CC1C42F68C68C2F273
:1034E0000003C2F2000EC2F2000CC2F20008B7E5FF
:1034F0000A4604E000200022884240F0F4800F29B0
:103500003FF678AC48F68050C0F25B001EEB000539
:10351000DAE902701FFA88FC4CF10003EF1B73EB31
:103520000000FFF467AC42F63400C2F20000B0F8CD
:10353000070002EBC2033344A3F80300481C9C704D
:103540003080DFE00E4640F2840142F66854C2F259
:103550000001C2F2000408702779D4F805004E700B
:103560008F70C1F803001E2070E00E4640F2840107
:1035700042F66854C2F20001C2F200040870D4F8A6
:1035800005002779C1F8030001204E708F705DE0BF
:103590000E4640F2840142F66854C2F20001C2F2C3
:1035A000000408702779D4F805004E708F70C1F8B8
:1035B000030021204AE00E4640F2840142F668549E
:1035C000C2F20001C2F2000408702779D4F80500A5
:1035D0004E708F70C1F803001A2037E00E4640F29B
:1035E000840142F66854C2F20001C2F2000408707D
:1035F0002779D4F805004E708F70C1F803004A2077
:1036000024E00E4640F2840142F66854C2F2000102
:10361000C2F2000408702779D4F805004E708F704C
:10362000C1F80300EB2011E00E4640F2840142F69F
:103630006854C2F20001C2F2000408702779D4F87D
:1036400005004E708F70C1F803008D205FFA86F878
:1036500001F10A05A1F8070081F809A004F10C01A5
:1036600028464246FCF7FFFF2288F80755FA86F005
:1036700009D142F2C815130A0C21C2F200050270EA
:103680004370002015E0D4F816110280D4F81A21F6
:10369000D4F81E31C0F8021094F8221142F2C81575
:1036A000C0F80620C0F80A3081730D200C21C2F248
:1036B00000054144014440F28400C2F2000002F0DF
:1036C000CFFB42F68C6842F2CC1C42F6340E42F636
:1036D000C043C2F20008C2F2000CC2F2000EC2F2F5
:1036E0000003FEF758BF02EBC2003044B0F80910E7
:1036F000D0F805001FFA88F3B0EB0E0071EB030061
:10370000BFF478AB02EBC20042F63402C2F2000210
:10371000B2F81B113044A0F80910D2F8171142F684
:10372000C043C0F80510DAE902121FFA88F0B1EBC5
:103730000E0172EB000138BFCAE902E042F6340E16
:1037400042F2C815C2F2000EC2F20003C2F2000536
:103750004FF0010942F66857C2F2000783F8009063
:1037600001243846714640F223124FF0000ADC7003
:10377000FCF7BEFF42F6C04342F6340E42F68C68B8
:1037800042F2CC1CC2F20003C2F2000EB9F1010FEA
:10379000C2F20008C2F2000C7FF4CBA918899EF88F
:1037A0000610002800F101004FF001044FF001095C
:1037B000597108BFA3F80AA01881FFF7BAB942F6F9
:1037C000485742F64C5AC2F20007C2F2000A059C62
:1037D0003868DAF80010C4F5806688421EDADAF834
:1037E00000003968401A1FE031680068401A00F58F
:1037F0000050A042C0F2A2803068316840F28412CA
:10380000C0F50050C2F20002A04202EB010020DD30
:1038100029462246FCF727FF35682FE03868DAF89A
:103820000010081A00F50050B042C0F28C803868D1
:10383000396840F28419C0F50050C2F20009B04264
:1038400009EB01001EDD29463246FCF70CFF3C68FF
:1038500030E03168C1F500522946FCF704FF3068BA
:10386000281A00F500513068A4F500552A1840F2D6
:103870008410C2F20000FCF7F6FE346828193060AC
:10388000FEF73BBE3968C1F500522946FCF7EBFE56
:1038900038684EF20042281A00F500513868CFF619
:1038A000FF72141B221840F28410C2F20000FCF7D1
:1038B000DAFE3E68A0193860049805993A68DAF88B
:1038C000003008449A42A0F5806504DADAF8000076
:1038D0003968401A05E03868DAF80010081A00F56F
:1038E0000050A84234DB38683968C0F50050A8425F
:1038F00009EB010008DD42F2CC11C2F200012A46B8
:10390000FCF7B1FE3C6815E03968C1F5005241464C
:10391000FCF7A9FE3868A5F50054A8EB000000F5F7
:1039200000513868221840F28410C2F20000FCF7FF
:103930009AFE3D6860193860FEF7DFBD012080F314
:10394000138800F04FFA012080F3138800F04AFA40
:10395000012080F3138800F045FA0000406A006EF1
:1039600070470000B0B5014605688068D1E90332B0
:103970004C691043D1F81CE02A68204349F20C64DA
:10398000A243104340EA0E002860686841F2040C2C
:1039900020F440501843686088690A6AAB68104395
:1039A00023F430621043A86044F6FF30C4F20000F4
:1039B000C4F2020C85424FF0100315DD44F60040BE
:1039C000C4F2000085421FD045F20000C4F200009E
:1039D00085421DD043F60000C4F20100854226D185
:1039E000DCF82C3075A01EE044F20040C4F2000068
:1039F000854211D044F60000C4F20000854216D181
:103A0000DCF82C00830C0AE0DCF82C00030D06E047
:103A1000DCF82C00830D02E0DCF82C00030C46F2ED
:103A2000F450C0F6000003F0030250F82230BEF557
:103A3000004F41F2002EC0F27A0E15D1082B4FF044
:103A4000010000F29E80DFE803F005257F9C4D9C7D
:103A50009C9C7D0040F20C00C2F200000068DCF883
:103A60000020C2F302221EE0082B4FF0010000F2FA
:103A70008880DFE803F005237A864F868686780003
:103A800040F20C00C2F200000068DCF80020C2F333
:103A900002221CE040F20C00C2F200000068DCF8D8
:103AA0000020C2F3C22246F20463C0F600039A5C0F
:103AB00020FA02FEBEF1000F46D15FE040F20C009A
:103AC000C2F200000068DCF80020C2F3C22246F215
:103AD0000463C0F600039A5C20FA02FEBEF1000FF8
:103AE00043D14BE0DCF8003003F00C0008282BD168
:103AF00046F2D452C3F38340C0F60002105CDCF8F7
:103B000028C0DA0341D440F60012C0F23D0200FBA7
:103B100002FECFE7DCF8003003F00C00082824D1C7
:103B200046F2D452C3F38340C0F60002105CDCF8C6
:103B300028C0DA0335D440F60012C0F23D0200FB83
:103B400002FECBE74FF4004E4868420802EB4E02FB
:103B5000B2FBF0F04FF6F07210EA020310D0C0F39F
:103B60004200184309E04FF4004E48680EEB500243
:103B7000B2FBF0F080B2102802D3E860002000E031
:103B800001200022C1E91922B0BD46F2E4530CF035
:103B90000F02C0F600039A5CBEFBF2F202FB00FECD
:103BA00088E746F2E4530CF00F02C0F600039A5C7B
:103BB000BEFBF2F202FB00FE90E700BF0100000036
:103BC00004000000080000000200000010B5D0F85A
:103BD00000C0DCF81CE00EEA010E8E4517D042F65C
:103BE000E86EC2F2000E00BFDEF80040A41A9C424C
:103BF00010D8DCF80040640744BFDCF81C405FEAE2
:103C0000045455D4DCF81C400C408C42ECD100200C
:103C100010BD00BF016851E8001F026821F4D07197
:103C200042E80013BBB3016851E8001F026821F4A9
:103C3000D07142E8001373B3016851E8001F0268B5
:103C400021F4D07142E800132BB3016851E8001F42
:103C5000026821F4D07142E80013002BDAD11AE097
:103C6000016851E8021F026821F0010142E80213D5
:103C7000DBB1016851E8021F026821F0010142E84E
:103C8000021393B1016851E8021F026821F001019B
:103C900042E802134BB1016851E8021F026821F0AB
:103CA000010142E80213002BDAD17C21782252E094
:103CB0004FF40061CCF82010016851E8001F026841
:103CC00021F4D07142E80013BBB3016851E8001F32
:103CD000026821F4D07142E8001373B3016851E81F
:103CE000001F026821F4D07142E800132BB3016871
:103CF00051E8001F026821F4D07142E80013002B44
:103D0000DAD11AE0016851E8021F026821F00101CE
:103D100042E80213DBB1016851E8021F026821F09A
:103D2000010142E8021393B1016851E8021F0268E1
:103D300021F0010142E802134BB1016851E8021F72
:103D4000026821F0010142E80213002BDAD12021A0
:103D5000816780217C22202383504350002180F8FA
:103D60007410032010BD000082B042F22470C2F231
:103D700000000068C1690191818C00910168C90649
:103D800015D51021016242F62D00C2F20000007824
:103D900068B140F21000C2F200000121016040F25F
:103DA0001040C4F20100016841F00201016002B05C
:103DB00070470000FEE700004EF60C50BFF34F8F37
:103DC000CEF200000168042201F4E061C0F2FA5270
:103DD00011430160BFF34F8F00BF00BF00BF00BFA2
:103DE000FAE700004EF60C50BFF34F8FCEF2000002
:103DF0000168042201F4E061C0F2FA52114301604B
:103E0000BFF34F8F00BF00BF00BF00BFFAE7000045
:103E100010B542F68C64C2F2000400202061E0601C
:103E2000A06060602060FCF7F7FC2068B0F5165FCA
:103E30000CD3FFE742F68C60C2F20000006844F247
:103E40004121C0F20F0188421BD3FFE742F68C608C
:103E5000C2F200004FF4E1310160002101714171B3
:103E60008171C1710172417281720122C272027349
:103E700041738273C173027442748174FCF7F6FC5F
:103E8000FFE710BD88B04EF60C56CEF2000640F2A9
:103E9000000456F8041CC1F2000442F2000520465A
:103EA0004FF4C472C4F20205FCF722FC46F8044C3D
:103EB00028684FF6FF0140F010002860306840F29B
:103EC0000C0E084040F20031C0F2FA510843306055
:103ED000C2F2000EDEF8001044F6D350C1F26200C8
:103EE000A1FB00124FF0FF3101EB92130022B2EB65
:103EF000136F25D14EF21004CEF200044EF60C568C
:103F00006360F023CEF20006F3750723A2602360FE
:103F10003368C3F3022383F00707042F28BF042765
:103F2000033B38BF1346B940092222EA01019940F8
:103F30000901F17542F6EC61C2F2000101220A703A
:103F400041F2140BC4F2020BDBF8041042F6E867EE
:103F500041F00101CBF80410DBF80410C2F20007B5
:103F600001F0010102910299DBF8081041F0805143
:103F7000CBF80810DBF8081001F08051029102998B
:103F80005BF8101C01F00C01042940F017815BF86C
:103F9000141C5BF8101C01F00C01082940F0FC8295
:103FA0005BF8101C01F47411B1F5E81F02D0EFF3B7
:103FB000108172B6296811F0060F09D12968022212
:103FC00062F302012960296801F0070102290AD180
:103FD0005BF8101C21F0F0014BF8101C5BF8141C6E
:103FE000890100F10783EFF3108072B6DBF81C0043
:103FF000102120F00300CBF81C00DBF81C00002689
:1040000020F44020CBF81C00DBF8180040F20044FC
:1040100061F30810CBF818000696DBF80000C4F630
:10402000000440F40020CBF80000DBF8000002ADF3
:1040300000F4002007900798DBF800004EF2074AD2
:1040400040F48000CBF80000DBF8000040F20049AB
:1040500000F4800007900798DBF800004FF0030899
:1040600040F40030CBF80000DBF80000294600F4F3
:10407000003007900798DBF80000CEF2000A40F409
:104080008020CBF80000DBF80000C4F2000900F447
:104090008020079007984FF40050A0620290012002
:1040A000CDE903062046CDF81480FCF731FF4FF42C
:1040B0006040CDE9020804F5806029460496FCF7CB
:1040C00027FF49F6C110CDE902084FF0904029467C
:1040D0000496FCF71DFF4DF6F030CDE902082046AE
:1040E00040F2084429460496C4F20104FCF710FF8C
:1040F00054F8080C4EF2100140F0020044F8080C8D
:1041000054F8040CCEF2000140F0020044F8040C14
:10411000B0208AF800008020C1F8F000DBF8000031
:1041200042F24C6540F00100CBF80000DBF80000E3
:10413000C2F2000500F00100029002984EF60C5009
:10414000CEF2000000684FF400408AF80860C1F821
:10415000F00009F5E0402860287918BB6E71CDE9C0
:104160000566DBF8080002A940F00050CBF8080013
:10417000DBF8080000F0005007900798DBF800001B
:1041800040F40030CBF80000DBF8000000F4003011
:10419000079007981020CDE902084FF09040049650
:1041A000FCF7B6FE0220012128712E612971697980
:1041B000012943D1EFF3108072B64EE05BF8101C7A
:1041C00001F00C01082904D15BF8101CC9033FF56C
:1041D000DEAE5BF8141C41F480314BF8141CDBF8A4
:1041E000181021F00F01CBF8181039685BF8142C67
:1041F00092033FF5CEAE3A68521A642A3FF6D7AE24
:104200005BF8142C92033FF5C4AE3A68521A642A44
:104210003FF6CDAE5BF8142C92033FF5BAAE3A6888
:10422000521A642A3FF6C3AE5BF8142C92033FF592
:10423000B0AE3A68521A642AD8D9B8E6287128680C
:1042400040F6FE72016891430160016821F0C001EF
:104250000160012028710020687142F21C65A4F5FC
:104260007B71C2F2000540220020C5E9001205F171
:10427000080142F603034FF4004649C1C5E90500B1
:10428000C5E90700686295F82910C90663D4DBF810
:10429000041041F00101CBF80410DBF8041001F028
:1042A000010102910299CDE90500DBF8001041F40B
:1042B0000031CBF80010DBF8001001F40031079159
:1042C0000799022102910321CDE9031002A94FF0C1
:1042D0009040FCF71DFE95F82900002804BF00203F
:1042E00085F828000020029095E80F0006680296E5
:1042F000029E26F0700631430291029921F082015C
:10430000114302910299AA6921F4402111430291BB
:1043100002999A0A62F38D21029102992A6921F485
:1043200000411143029102996A6921F4403111431D
:1043300002910299EA6921F00C011143029102995C
:104340002A6A21F40071114302910299016001204F
:1043500085F8290002E0EFF3108072B6A4F57470BE
:1043600042F2A464C2F2000400210422202384E863
:104370000B00C4E90321616294F83200052804D0DF
:1043800094F83200022840F07982EFF3108072B680
:1043900042F2D86940F20043C2F200090420C4F29C
:1043A000000300214FF6FF72C9E900308020C9E9FF
:1043B0000212C9F81010C9F8180099F83D00002839
:1043C000184621D189F83C10DBF8080040F00200C3
:1043D000CBF80800DBF8080000F002000290029819
:1043E0004EF60C50CEF2000000684EF20740CEF2BE
:1043F000000081754EF210014FF00050CEF2000126
:10440000C1F8F000D9F8000009F10404882502265B
:104410002146CFF6FE7589F83D60FDF775F801205D
:1044200089F8480089F83E0089F83F0089F8400083
:1044300089F8410089F8420089F8430089F844006E
:1044400089F8450089F8460089F8470089F83D0059
:1044500099F83C10012903D1EFF3108072B60BE0FC
:1044600089F83D60D9F800108A682A408A6089F886
:104470003D00002089F83C0099F83D000226002804
:1044800004BF002089F83C0089F83D60D9F800009D
:104490002146FDF739F8012089F8480089F83E00E7
:1044A00089F83F0089F8400089F8410089F8420006
:1044B00089F8430089F8440089F8450089F84600E6
:1044C00089F8470089F83D0099F83C1043F2004C08
:1044D00042F6FF340129C4F2010CC4F201041AD1DE
:1044E000EFF3108072B699F83C00012837D1EFF352
:1044F000108072B699F83C00012840F08082EFF3FA
:10450000108072B699F83C00012840F06787EFF3FD
:10451000108072B61DE189F83D60D9F8001005F5EC
:104520007F438A681A4042F054028A600A6A0B6A22
:1045300022F00A0223F001030B628B6923F0F003DF
:104540008B610A62CA6822F04002CA60CA6822F41B
:104550008042CA6089F83D00002089F83C00D9F803
:104560000000016AA04221F0010101628269016A32
:104570007ADCB0F1804F00F0858040F20043C4F255
:10458000000398427ED040F60003C4F20003984234
:1045900008BF22F0030277E06021C4F2422100222A
:1045A0000A603A685BF8143C9B0140F1B9813B68B2
:1045B0009B1A022B3FF6FBAC5BF8143C9B0140F1CD
:1045C000AF813B689B1A022B3FF6F1AC5BF8143CC1
:1045D0009B0140F1A5813B689B1A022B3FF6E7AC9B
:1045E0005BF8143C9B0140F19B813B689B1A022BBA
:1045F000D8D9DCE45BF8101C022262F301014BF80D
:10460000101C396841F288325BF8103C03F00C034F
:10461000082B00F0B9813B685B1A93423FF6E3AC8C
:104620005BF8103C03F00C03082B00F0AD813B68F5
:104630005B1A93423FF6D7AC5BF8103C03F00C03D7
:10464000082B00F0A1813B685B1A93423FF6CBAC8C
:104650005BF8103C03F00C03082B00F095813B68DD
:104660005B1A9342D0D9BEE442F60043C4F2010380
:10467000984207D044F20003C4F20103984201D0EB
:10468000604501D122F0030242F0010222F0F00263
:1046900021F00A0182610162816921F00C018161CE
:1046A00081698161002189F83C10016A21F01001C3
:1046B00001628169026A21F4734142F0200201F52E
:1046C000007122F0800281610262816921F44061FF
:1046D000816181698161022189F83D1042688168A8
:1046E000604508D042F60043C4F20103984208BF77
:1046F00022F4700201E022F4700222F07002A04263
:1047000042600FDCB0F1804F1AD040F20042C4F298
:104710000002904214D040F60002C4F2000290421F
:104720000ED010E042F60042C4F20102904207D0DF
:1047300044F20002C4F20102904201D0604502D16D
:1047400021F080018160012089F83D00002089F876
:104750003C0042F2CC58C2F20008002101224FF086
:10476000A040C8E90A21C8F81C20042288F82010BB
:1047700088F83010C8E90001C8E90211C8E904123C
:10478000A8F81810C8F834100791D8F84000C006EF
:1047900040F20800C5F2000000F16D81D8F8401029
:1047A00000294FF0000140F06081C8F84410C8E9CA
:1047B000121188F83C10DBF8002042F08052CBF850
:1047C0000020DBF8002002F080520292029A026878
:1047D000D20000F14A81016801F00301012905D1ED
:1047E0004FF0A0410968C90741F04780D8F8401050
:1047F000C90600F13981D8F8401041F20212914304
:104800000231C8F8401001684DF6836221F0405132
:1048100001600168C4F21B3241F08051016040F236
:104820000C01C2F200010968A1FB0212910C01EB1C
:104830008101490007910799002900F0158100BF07
:104840000799013907910799002900F00D8107990F
:10485000013907910799002900F00681079901396C
:1048600007910799002900F0FF8007990139079106
:10487000079900294FF00001E2D1F6E0DBF80400CF
:1048800040F00100CBF80400DBF8040000F0010068
:104890000290029894F83200002804BF002084F8A7
:1048A00031000020CDE90500DBF8001041F40031B3
:1048B000CBF80010DBF8001043F6110B01F40031C7
:1048C000079107992C2102910321CDE9031002A938
:1048D0004FF09040CEF2000BFCF71AFBD4F804C066
:1048E0004CF02001602940F08D80216804F1200EF9
:1048F000D4E90323D4E906659EE80045D4F82C905A
:10490000086800EA0B00104318433043284340EA8C
:10491000080040EA0A0040EACE4040EA096293E01B
:104920005BF8102C22F4741202F5E8124BF8102CEC
:1049300001220A6039685BF8142C92013FF53AAB0A
:104940003A68521A022A3FF632AB5BF8142C9201F5
:104950003FF530AB3A68521A022A3FF628AB5BF8B3
:10496000142C92013FF526AB3A68521A022A3FF600
:104970001EAB5BF8142C92013FF51CAB3A68521A3F
:10498000022AD8D9FFF713BB296801F007010329D0
:104990000AD32968022262F302012960296801F022
:1049A000070102297FF41FAB5BF8101C042262F39D
:1049B0000A214BF8101C5BF8101C21F460514BF8D5
:1049C000101C5BF8103C03F00C01082941F2002197
:1049D000C0F27A0140F0108546F2D456C3F3834208
:1049E000C0F60006B25CDBF81860DB0300F1FA8465
:1049F00040F60011C0F23D01514300F0FDBCD9F872
:104A0000000052E6D4E902A021680190D4E90650E2
:104A10005A460090D4E904B6D4E908E90868019B35
:104A2000104040EA0A00184340EA0B003043009B64
:104A300028431843D4E90A8240EA0E0040EA0900FC
:104A400040EAC84040EA026242EA0C00086094F87A
:104A5000320041F2140B0028C4F2020B7FF498AC30
:104A6000012084F8320093E400210268D2004FD57F
:104A7000026892004CD4D8F8402002F01002891845
:104A800056D10168490753D4D8F8401021F48171F8
:104A90000231C8F84010016801F00301012904D176
:104AA0004FF0A0410968C9070FD1D0F8001101F0FB
:104AB0000301012903D1D0F8F810C90705D1D0F8B6
:104AC000001321F44031C0F80013016811F00C0FFD
:104AD00004D1416844F202029143416041684CF2C2
:104AE0000702CFF6F072114001F580514160816AF2
:104AF000012221F00F0181620021C8F84410D8F88A
:104B0000401062F30101C8F840104FF0A0411CE0D2
:104B1000D8F8401041F0100121F00201C8F840100F
:104B2000D8F8441041F00101C8F84410D8F84010FA
:104B3000D8F8401041F0100121F00201C8F84010EF
:104B4000EFF3108172B6D8F8001001F130424FEA4D
:104B50003226052E31D80FF2100200F1F80302EBD5
:104B600086051A46AF4600BF00F012B800F008B83C
:104B700000F023B800F021B800F005B800F006B846
:104B80004FF0A04204E000F59F6201E000F57E7264
:104B900098F83C60012E10D08E6876075CBF96684E
:104BA0005FEA467640F1DD83D8F8400040F020000F
:104BB000C8F84000002088F83C00EFF3108072B67F
:104BC00098F83C0042F2A46600210128C2F20006D7
:104BD000029159D00121D8F8000088F83C10816872
:104BE000490748D4016B032262F38A11016381688B
:104BF00011F00C0F2DD14169062262F34B21416166
:104C0000C168016E01F0F841B1F1406F03D1016E4E
:104C100021F000410166416E01F0F841B1F1406FB1
:104C200003D1416E21F000414166816E01F0F841EF
:104C3000B1F1406F03D1816E21F000418166C16EF8
:104C400001F0F841B1F1406F03D1C16E21F0004194
:104C5000C166816801F00301012902D10168C90719
:104C600005D1D0F8B01021F00801C0F8B010002034
:104C700088F83C000BE0D8F8400040F02000C8F86D
:104C80004000002088F83C00EFF3108072B640F23C
:104C90000040C4F2000042F2A87400F58840C2F25D
:104CA00000044FF4613200210823C4E90002C4E982
:104CB000041331224FF4003304F1200C8CE80E0071
:104CC0004FF480524FF40053C4E90211C4E90611B5
:104CD000C4E90E23A26F2AB9204684F87410FCF7A9
:104CE000E7F920682421A167016821F00101016032
:104CF0002046FEF737FE00283CD0EFF3108072B656
:104D0000FFF786F8386800BF3968091AB1F5FA7FED
:104D10000ED83968091AB1F5FA7F09D83968091A25
:104D2000B1F5FA7F04D83968091AB1F5FA7FEBD9E1
:104D3000FBF768FEFBF7CAFDD8F80000046CFBF730
:104D40001DFF40F6B930844240F2780042F22474EC
:104D5000C2F20000C2F2000406D30121017042F643
:104D6000C061C2F200010C60007800284BD04FF403
:104D7000E1324DE0606A28B142F2A870C2F2000050
:104D8000FCF746FC2068416821F49041416081684D
:104D900021F022018160816841F008018160016891
:104DA00041F0010101600021C4F880103D680168F4
:104DB00009070FD542F2A87AC2F2000A50464FF412
:104DC00000112A466FF07E43FEF700FF002894D1C1
:104DD000DAF80000006840070DD542F2A870C2F270
:104DE00000004FF480012A466FF07E43FEF7EEFE8E
:104DF00000287FF482AF2020A067E06700202066B3
:104E000084F874007CE742F68C60C2F2000002680D
:104E100043F60000C4F2010000210C23C4E90002A3
:104E20003022C4E90413C4E908124FF480524FF44D
:104E30000053C4E90211C4E90611C4E90E23A26FAC
:104E40002AB9204684F87410FCF732F9206824212E
:104E5000A167016821F0010101602046FEF782FD93
:104E6000002800F01782EFF3108072B6206842F23B
:104E700060650168C2F2000541F010010160286818
:104E8000016841F002010160FCF7ACF9286842F2C8
:104E90001C6A016842F24C6521F00401016020683F
:104EA000C2F2000A0168C2F2000521F0200101608F
:104EB00096F83200052800F0808196F8320001282B
:104EC00040F07B8130681022016841F002010160EE
:104ED000016841F480210160016841F400610160D2
:104EE000016841F440510160016841F00101016035
:104EF000016862F31C610160396800BF3A68521AA8
:104F0000022A0BD83A68521A022A07D83A68521A6B
:104F1000022A03D83A68521A032AEFD301680268BA
:104F200049004FF0180122F0F85258BF082142EA18
:104F3000016202603A6800BF3B689B1A022B0BD8E3
:104F40003B689B1A022B07D83B689B1A022B03D89D
:104F50003B689B1A032BEFD3026852004FF0040208
:104F600058BF6FF003020368114423F0F85242EA7D
:104F7000016202603A6800BF3B689B1A022B0BD8A3
:104F80003B689B1A022B07D83B689B1A022B03D85D
:104F90003B689B1A032BEFD3026852004FF00202CA
:104FA00058BF6FF001020368114423F0F85242EA3F
:104FB000016202603A6800BF3B689B1A022B0BD863
:104FC0003B689B1A022B07D83B689B1A022B03D81D
:104FD0003B689B1A032BEFD3026852004FF001028B
:104FE00058BF4FF0FF320368114423F0F85242EAF1
:104FF000016202603A6800BF3B689B1A022B0BD823
:105000003B689B1A022B07D83B689B1A022B03D8DC
:105010003B689B1A032BEFD30268520006D5026847
:10502000013122F0F85242EA016202600268012373
:1050300063F30D3202600268102363F3D74202600B
:105040003A6800BF3B689B1A022B0BD83B689B1A3F
:10505000022B07D83B689B1A022B03D83B689B1A8C
:10506000032BEFD30268036852004FF0180223F4B9
:10507000780358BF082243EAC24303603B6800BF7D
:105080003E68F61A022E0BD83E68F61A022E07D892
:105090003E68F61A022E03D83E68F61A032EEFD3A6
:1050A00003682C465B004FF0040358BF6FF0030306
:1050B00006681A4426F4780343EAC24303603B6857
:1050C0003E68F61A022E0BD83E68F61A022E07D852
:1050D0003E68F61A022E03D83E68F61A032EEFD366
:1050E00003685B004FF0020358BF6FF001030668CE
:1050F0001A4426F4780343EAC24303603B6800BFC6
:105100003E68F61A022E0BD83E68F61A022E07D811
:105110003E68F61A022E03D83E68F61A032EEFD325
:1051200003685B004FF0010358BF4FF0FF33066880
:105130001A4426F4780343EAC24303603E68D3046A
:105140003D68AD1B022D0BD83D68AD1B022D07D865
:105150003D68AD1B022D03D83D68AD1B032DEFD379
:105160000668760007D50368013223F47806D30475
:1051700046EAC2460660066842F2A46526F4006666
:1051800006600668C2F2000526F0010606600668A1
:1051900026F0020606604FF480266E62C5E90A21F9
:1051A00002682E4622F478021A43026002682546FD
:1051B00022F0F85242EA0161016096F832000528B7
:1051C0000BD096F83200012807D13068016841F011
:1051D00001010160042086F83200386840F6B831D9
:1051E00040F6B9323B681B1A8B420BD83B681B1A3E
:1051F0008B4207D83B681B1A8B4203D83B681B1AAB
:105200009342EFD342F63000C2F200000021016069
:1052100042F6E460C2F2000001606879012801D121
:105220002C6813E0022028712C68206840F00100EF
:105230002060206800F03C003C2803D1606840F00A
:105240000100606001202871002068710020029038
:10525000029402984FF4BA710830029002980160EB
:105260009AF82900C00600F14F819AF82900012818
:1052700040F04A81DAF800004FF6E471CBF6FE7197
:1052800001444FEAB10105294AD20FF2546252F8A3
:1052900021104FE0606A28B142F22470C2F200008F
:1052A000FCF7B6F92068416821F4904141608168BB
:1052B00021F02A018160016841F0010101600021B3
:1052C000C4F880103D680168090710D542F2247ABD
:1052D000C2F2000A50464FF400112A466FF07E4396
:1052E000FEF774FC00287FF4BEADDAF80000006819
:1052F00040070DD542F22470C2F200004FF4800145
:105300002A466FF07E43FEF761FC00287FF4ABADC8
:105310002020A067E0670020206684F87400A5E5DF
:1053200040F20841C4F20101A1F5767202219042D7
:1053300008BF0121DAF8245015F0300F00F0DD80AD
:1053400040F2284CEA06C4F2010C6FEA01034FEA6E
:10535000817234D4002A00F09A80DCF800601E408C
:1053600032E04FF4E065994208BF4FF44075B1F167
:10537000A04F08BF4FF44075435942F2A46623F48E
:10538000604343518B68C2F2000603F00303012B14
:1053900002D10968C9070CD1916801F00301012904
:1053A00002D11168C90704D1415940F61F729143D7
:1053B0004151002088F83C000290FFF70BBC002A06
:1053C0006DD0DCF800600E43CCF80060AE0671D4FE
:1053D000002A7DD0DCF804201A406FE0D9F80000E4
:1053E000FFF779B906F00F0346F2E456C0F600065F
:1053F000F35CB1FBF3F151435BF8102C0FF2D04397
:10540000C2F303129A5C42F6EC6CC2F2000C21FA71
:1054100002F59CF80020A5FB00034FF0FF36002AA0
:10542000104606EB93164FF0000318BF0920B3EBAC
:10543000166FCEF800507EF4D9AD4EF21001CEF2C8
:1054400000014EF60C554E60F026CEF20005EE75CA
:105450008B600723002A0B603EF4C8AD2A684FF02A
:10546000FF36C2F3022282F00703042B28BF042375
:1054700006FA03F3033A20EA030038BF0022904003
:105480000001E87501208CF80000FEF7AFBD40F286
:10549000084EC4F2010EDEF800601E4006E040F245
:1054A000084EC4F2010EDEF800600E43CEF8006034
:1054B000AE068DD59AB1DCF804200A43CCF804205E
:1054C00040F20842C4F201021C320CF10C0310E05D
:1054D00040F20846C4F2010672681A4005E040F244
:1054E0000846C4F2010672680A437260321F06F170
:1054F0000C0316680E4316601960016841F0010143
:10550000016002208AF8290099F83E1042F6FF3324
:105510000129C4F2010399F8440008BF012800F0F2
:10552000FA8099F83F1099F84500012908BF012831
:1055300000F0168198F83C00012827D00121D8F806
:10554000000088F83C10826802F00302012A03D1AF
:105550000268D20740F06F81C8F84010816821F0DE
:1055600080418160816841F00041816039688268D2
:10557000B2F1FF3F67DD404650F8401F21F00301C4
:1055800041F001010160002088F83C0044F23F2511
:1055900049F2DF36C0F20F05C0F20406FBF732FA1B
:1055A000FBF794F9D8F80000006CA84238BF054614
:1055B000013EF3D1FBF7E2FAD8F80000B0F1A04FBA
:1055C00005D1DBF8000020F08050CBF8000000206F
:1055D00002900294029900EE105A0831B8EE400A87
:1055E000B7EE0C1A029120EE010A0299BCEEC00A35
:1055F00081ED000A42F62051C2F20001086042F635
:105600002C00C2F20000012202703A6840F2DC5322
:1056100040F2DD563D68AD1A9D420BD83D68AD1A8B
:105620009D4207D83D68AD1A9D4203D83D68AD1A2A
:10563000B542EFD30A68062A3AD1132106223CE08C
:105640008268002A97D53A68521A0B2A03D38268D7
:10565000B2F1FF3F23DD8268B2F1FF3F3FF78BAF2E
:105660003A68521A0B2A02D38268002A17D4826839
:10567000B2F1FF3F3FF77FAF3A68521A0B2A02D3CD
:105680008268002A0BD48268B2F1FF3F3FF773AF04
:105690003A68521A0B2AD3D38268002AD0D5D8F898
:1056A000400040F0100020F00200C8F840006AE717
:1056B0000968052910D11621052240F20003C2F223
:1056C00000031A6040F20803C2F200031A6040F2BD
:1056D0000402C2F2000211600021017042F62D00A6
:1056E000C2F20000012101704EF21001CEF2000161
:1056F000086820F0020008604EF60C51CEF200015E
:10570000486840F002004860486820F004004860A3
:1057100030BF00BFFEE7022089F83E0089F8440050
:10572000D9F80000C168984241F00201C160016AE5
:1057300021F001010162016A41F00101016234DCE2
:10574000B0F1804F43D040F20041C4F200018842E2
:105750003DD040F60001C4F20001884237D042E05B
:10576000022089F83F0089F84500D9F80000C16897
:10577000984241F00401C160016A21F01001016208
:10578000016A41F01001016232DCB0F1804F41D07A
:1057900040F20041C4F2000188423BD040F60001D3
:1057A000C4F20001884235D040E042F60041C4F224
:1057B000010188420BD044F20001C4F20101884289
:1057C00005D043F20041C4F2010188420BD1816847
:1057D0000722C0F20102114006293FF4A2AEB1F542
:1057E000803F3FF49EAE016841F00101016098E600
:1057F00042F60041C4F2010188420BD044F200019C
:10580000C4F20101884205D043F20041C4F2010113
:1058100088420BD181680722C0F20102114006299B
:105820003FF488AEB1F5803F3FF484AE016841F0AB
:10583000010101607EE6826802F00D02012A12D1A8
:10584000826842F002028260032202603A6800BF6E
:105850008368DB073FF480AE3B689B1A032BF7D3CA
:105860008368DB07F4D0D8F8400040F01000C8F897
:105870004000404650F8441F82E6016801F00D01E7
:10588000012913D10168032241F0020101604FF0A8
:10589000A0410A6039680268D2073EF4A7AF3A68AF
:1058A000521A032AF7D30268D207F4D0D8F840106E
:1058B00041F01001C8F84010D8F8441041F001013F
:1058C000C8F84410D8F840100121FFF7CEB800BF47
:1058D00000000000000000000102030406070809A0
:1058E00000002000000040000000002000000040F8
:1058F000000000802DE9F04FCFB0064600680F464B
:1059000000EBC20115468142316002D2716801315B
:105910007160C0F3C50906F12808CDE9018603E0EE
:105920002D1B274400F02982C9F14004A54238BF4D
:105930002C4608EB090039462246FAF794FEA144AA
:10594000B9F1400FECD1CDE9044796F8327096F8E2
:105950002A000C9796F837708DF83D0096F83400C1
:105960000E9796F836700B900C980D978DF84500B1
:105970000D9896F830A08DF8490096F840008DF803
:1059800047A0DDF838A00E900B9896F829108DF8F6
:105990004B0096F846008DF83E100D900E9896F844
:1059A0003B108DF8570096F852008DF84C100E9071
:1059B0000D9896F845108DF8590096F850008DF81E
:1059C0005A100D9096F8571096F85D008DF86810F3
:1059D0000A900E98B1688DF8650096F85C000E91FB
:1059E000F16809900D980D91316906950C917169D6
:1059F00096F82B500B910A9996F82E3096F82C4079
:105A00008DF87210B16996F828E096F82F2096F874
:105A10002DC096F833808DF83C5096F835508DF8AF
:105A2000413096F838308DF8434096F83E400A9160
:105A300009998DF83FE096F83A908DF8402096F855
:105A400039208DF842C096F83F7096F83DC096F820
:105A50003CE096F831B08DF8448096F843808DF89C
:105A60004A5096F847508DF84F3096F84A308DF8E6
:105A7000514096F848408DF87310F1698DF848A0B0
:105A800096F841A08DF84D9096F844908DF84E20F0
:105A900096F84B208DF8507096F849708DF852C0EA
:105AA00096F84FC08DF853E096F84EE08DF846B06A
:105AB00096F842B08DF8548096F84D808DF8585085
:105AC00096F851508DF85D3096F854308DF85F405F
:105AD00096F85A400991316A8DF856A096F853A06D
