:020000040800F2
:10000000F8340020A1020008C1120008B112000853
:10001000BD120008E90700088D3B00080000000041
:10002000000000000000000000000000C9120008ED
:10003000ED07000800000000C512000801030010D1
:10004000BB020008BB020008BB020008BB0200089C
:10005000BB020008BB020008BB020008C903001075
:10006000BB020008BB020008BB020008BB0200087C
:10007000BB020008BB020008BB020008110300100D
:10008000BB020008BB020008BB020008BB0200085C
:10009000BB020008BB020008BB020008BB0200084C
:1000A000BB020008BB020008BB020008BB0200083C
:1000B000BB020008B9040010BB020008BB02000824
:1000C000BB020008BB020008BB020008BB0200081C
:1000D000BB020008413B0008BB020008BB0200084D
:1000E000BB020008BB020008BB020008BB020008FC
:1000F000BB020008BB020008BB020008BB020008EC
:10010000000000000000000000000000BB0200082A
:10011000BB020008BB020008BB020008BB020008CB
:10012000BB020008BB020008BB020008BB020008BB
:10013000BB020008BB020008000000000000000035
:10014000BB020008BB020008BB0200080000000060
:10015000000000000000000000000000000000009F
:100160000000000000000000BB020008BB02000805
:10017000BB020008000000000000000000000000BA
:1001800000000000BB02000800F002F800F078F860
:1001900014A696E8000CB244B344DA4501D100F04D
:1001A0006FF8BAE80F000FA696E83000A5EB04053B
:1001B00004EB0607AAEB0704A7F101074FEA1515A0
:1001C0004FEA3414A4F10104AC4201D300F058F812
:1001D00013F0010F18BFFB1A43F0010300F001F800
:1001E000DBE7184774760000B47600000A4410F884
:1001F000014B14F00F0508BF10F8015B240908BF7C
:1002000010F8014B6D1E05D010F8013B6D1E01F872
:10021000013BF9D1641E03D0641E01F8015BFBD1E0
:100220009142E4D370470000103A24BF78C878C1E7
:10023000FAD8520724BF30C830C144BF04680C60EC
:1002400070470000704700000023002400250026AE
:10025000103A28BF78C1FBD8520728BF30C148BF29
:100260000B607047692900F0AD80732900F0BD81F3
:10027000002070471FB506F016FA1FBD10B510BD5F
:1002800000F0B7F91146FFF7F5FF03F0E7FC00F0C7
:10029000D5F903B4FFF7F2FF03BC00F0DDF900006D
:1002A0000948804709480047FEE7FEE7FEE7FEE70A
:1002B000FEE7FEE7FEE7FEE7FEE7FEE70448054946
:1002C000054A064B70470000CD120008890100085E
:1002D000F82E0020F8340020F8300020F8300020FC
:1002E0000FB41CB5074B06AA7B44694600900598DD
:1002F00000F051F90020694600F060F91CBC5DF87F
:1003000014FB0000D10200002DE9F0410E46044626
:10031000002020622046E168884730B3252805D0B8
:10032000D4E901219047206A401CF2E7E1682046A9
:1003300000278847050018D0A5F14100192802D8E8
:1003400020354FF400673246294620462760FFF7E4
:1003500089FF40B1012804D0F61D26F007060836B3
:10036000D8E7361DD6E72846DAE7206ABDE8F081EF
:1003700070B50C460546012A05D02878800600D5C0
:10038000EA69002302E0012305E05B1C934202D2EC
:10039000E05C0028F9D1A869E618C01AA861286AAB
:1003A000184428622846AFF3008004E0D5E9012113
:1003B00014F8010B9047B442F8D32846AFF30080FD
:1003C00070BD00002DE9F041064600241068752933
:1003D000314616A510D0AFF30080002802DA404263
:1003E00013A507E031688A0701D512A502E0490785
:1003F00004D511A5012401E0AFF3008000210A22F9
:1004000006F1240709E0B0FBF2FCB0FBF2F302FBBB
:100410001C00303078541846491C0028F3D123467C
:100420002A463046BDE8F04100F056B80000000012
:100430002D0000002B0000002000000040EA010316
:1004400010B59B070FD1042A0DD310C808C9121F7D
:100450009C42F8D020BA19BA884201D9012010BDB7
:100460004FF0FF3010BD1AB1D30703D0521C07E084
:10047000002010BD10F8013B11F8014B1B1B07D1E8
:1004800010F8013B11F8014B1B1B01D1921EF1D159
:10049000184610BD10B5431C02E010F8011B71B1E5
:1004A0008107FAD14FF0013202C88C1A8C4314EA4A
:1004B000C211F9D0C01A0A0603D0C01E10BDC01A5E
:1004C00010BD0A0401D0801E10BD0902FCD0401EE0
:1004D00010BD7047704770472DE9F0470D469946AB
:1004E0009246044600F124080168880604D5E069B4
:1004F00021F01001216000E00120A84201DD471B2E
:1005000000E00027A1697A1902EB0900081AA0612E
:100510002078C00602D42046AFF30080002608E011
:10052000D4E901211AF806009047206A401C761C85
:1005300020624E45F4DB2078C0060AD52046AFF392
:10054000008006E0D4E9012130209047206A401C59
:100550002062381EA7F10107F4DC07E0D4E901218D
:1005600018F805009047206A401C2062281EA5F15B
:100570000105F3DC2046AFF300802078000602D5A9
:100580000220BDE8F0870120FBE7000001694A1C5A
:1005900002610878704700B58FB0CDE901310021C4
:1005A000059105497944CDE9031011466846FFF7E6
:1005B000ABFE0FB000BD0000E5FFFFFF0A6802F8C8
:1005C000010B0A60704710B5436913B1AFF30080A7
:1005D00001E0FFF7CDFE012010BD127800F12401EB
:1005E0000A7000224A700122EDE711684FF0FF32D5
:1005F000E9E7754600F02CF8AE460500694653461B
:1006000020F00700854618B020B5FFF757FEBDE87B
:1006100020404FF000064FF000074FF000084FF069
:10062000000BAC46ACE8C009ACE8C009ACE8C009B6
:10063000ACE8C00921F007018D46704710B50446AB
:10064000AFF300802046BDE81040FFF722BE000057
:10065000004870471800002001491820ABBEFEE793
:10066000260002007047032A40F2308010F0030C8D
:1006700000F0158011F8013BBCF1020F624498BFF5
:1006800011F801CB00F8013B38BF11F8013BA2F192
:10069000040298BF00F801CB38BF00F8013B11F00D
:1006A000030300F02580083AC0F0088051F8043BAD
:1006B000083A51F804CBA0E80810F5E7121D5CBF1A
:1006C00051F8043B40F8043BAFF30080D20724BF4D
:1006D00011F8013B11F801CB48BF11F8012B24BFE1
:1006E00000F8013B00F801CB48BF00F8012B704730
:1006F00010B5203AC0F00B80B1E81850A0E81850AF
:10070000B1E81850A0E81850203ABFF4F5AF5FEAFE
:10071000027C24BFB1E81850A0E8185044BF18C9A3
:1007200018C0BDE810405FEA827C24BF51F8043B4A
:1007300040F8043B08BF7047D20728BF31F8023B9E
:1007400048BF11F8012B28BF20F8023B48BF00F832
:10075000012B70474FF000020429C0F0128010F006
:10076000030C00F01B80CCF1040CBCF1020F18BF8D
:1007700000F8012BA8BF20F8022BA1EB0C0100F020
:100780000DB85FEAC17C24BF00F8012B00F8012BF3
:1007900048BF00F8012B70474FF0000200B5134628
:1007A00094469646203922BFA0E80C50A0E80C5091
:1007B000B1F12001BFF4F7AF090728BFA0E80C5042
:1007C00048BF0CC05DF804EB890028BF40F8042B3B
:1007D00008BF704748BF20F8022B11F0804F18BFA8
:1007E00000F8012B70470000FEE700007047000092
:1007F00042F62851C2F200010022CA6142F2100101
:10080000C4F202010A6842F002020A604860086805
:1008100040F040000860704784B042F68C60C2F23D
:10082000000003904FF60000C0F60100029003980C
:1008300001900020ADF80200FFE7BDF80200042897
:1008400011D8FFE702980068019908600298043007
:100850000290019804300190FFE7BDF802000130DA
:10086000ADF80200E9E704B07047000080B584B03D
:1008700005F002FD00F038F942F68C60C2F200008B
:1008800003904FF60000C0F6010002900020ADF882
:100890000600FFE7BDF80600042813D8FFE702981A
:1008A00003990A68002300F01BF8039804300390B2
:1008B000029804300290FFE7BDF806000130ADF861
:1008C0000600E7E700F002F804B080BD42F2100035
:1008D000C4F20200016841F080010160704700002D
:1008E00042F6285CC2F2000C9CF81810012908BFDF
:1008F0007047B0B542F20C03012142F6E86EC4F233
:1009000002038CF81810C2F2000EDEF800101C680A
:10091000E40710D11968890644BF202119601968BD
:10092000C9065CBF19685FEA41713DD51868C00609
:1009300026D400202BE04CF25034DEF800506D1A23
:10094000A54200F289801D68ED07E3D0DEF8005073
:100950006D1AA54200F280801D68ED07DAD0DEF83E
:1009600000506D1AA54277D81D68ED07D2D0DEF889
:1009700000506D1AA5426FD81D68ED07DDD1C9E79B
:10098000DCF81C0040F00200CCF81C0010201968B4
:10099000490707D5DCF81C1040F0040041F00101C4
:1009A000CCF81C10186057E00021CCF81C105968D6
:1009B00041F0010159600280DEF800101C68E40774
:1009C00010D11968890644BF202119601968C90629
:1009D0005CBF19685FEA417144D51868C00624D429
:1009E000002029E04CF25034DEF800506D1AA54288
:1009F0002ED81D68ED07E4D0DEF800506D1AA54230
:100A000026D81D68ED07DCD0DEF800506D1AA5422F
:100A10001ED81D68ED07D4D0DEF800506D1AA5422F
:100A200016D81D68ED07DFD1CBE7DCF81C0040F0DD
:100A30000200CCF81C0010201968490707D5DCF823
:100A40001C1040F0040041F00101CCF81C101860AB
:100A5000586820F00100586000208CF81800BDE8AC
:100A6000B04070475968120C21F001015960002113
:100A7000CCF81C10596841F0010159604280DEF841
:100A800000001968C9070CD11868800644BF2020EF
:100A900018601868C0065CBF18685FEA40709CD494
:100AA000D6E74CF25031DEF80020121A8A42CFD835
:100AB0001A68D207E8D0DEF80020121A8A42C7D896
:100AC0001A68D207E0D0DEF80020121A8A42BFD896
:100AD0001A68D207D8D0DEF80020121A8A42B7D896
:100AE0001A68D207DFD1CFE742F20400C4F2020055
:100AF000C168090658BF704740F22311C4F267511C
:100B0000016048F6AB11CCF6EF510160C068704748
:100B10002DE9F04F82B041F2000200F13847C4F6EF
:100B2000000205234FEAB726904208BF042300F1D4
:100B300020020092042E38BF4FEAB7230025002779
:100B4000012401932BE000BF0268032303FA07F896
:100B500022EA080202606FF00302009B02EA5C06D0
:100B600005F01C0E53F806C00F2202FA0EF22CEA12
:100B700002029A51C26822EA0802C260426822EA6E
:100B80000B024260826822EA0802826031FA04F2B3
:100B900004F1010407F1020705F104053ED0A4F1B8
:100BA000010C012202FA0CFB1BEA0109EED040F213
:100BB0000042C4F20102A2F57E782CF0030305F096
:100BC0000C0E0F2258F8033002FA0EFA019A03EACB
:100BD0000A0302FA0EF29342B6D140F20043C4F285
:100BE00001031A6840F20C4622EA09021A605A68A8
:100BF000C4F2010622EA09025A609A6822EA09024E
:100C00009A6032684FEA9C0322EA0902326058F87F
:100C1000232022EA0A0248F8232095E702B0BDE823
:100C2000F08F00002DE9F04F83B00D68002D00F02B
:100C3000C58000F1200241F2000C009200F138471B
:100C4000C4F6000C05224FEAB726604508BF04220F
:100C5000042E38BF4FEAB722002600274FF00108C4
:100C6000019209E00D68043735FA08F208F101082D
:100C700006F1020600F0A280A8F1010A012202FAA0
:100C80000AFE15EA0E09EDD0D1F804B003220BF0EC
:100C900003056C1EB240012C6FEA020C10D882686A
:100CA000CC6802EA0C02B440224382604268CBF373
:100CB000001422EA0E0204FA0AF42243426003E01E
:100CC000032D01D103251EE0C2688C6802EA0C02E4
:100CD000B4402243022DC26015D16FF0030202EA34
:100CE0005A0B009A07F01C0452F80BE00F230D6911
:100CF000A3402EEA0303A5402B4342F80B30D1F862
:100D000004B00BF00305026805FA06F302EA0C02D0
:100D10001A431BF4403F0260A4D041F21803C4F20E
:100D200002031A6840F2004C42F001021A601A688D
:100D3000C4F2010C02F001020292029A2AF00302AC
:100D40004FF6084E6244CFF6FF7E52F80E3007F0A1
:100D50000C050F24AC40A343019C04FA05F52B437A
:100D600042F80E30DCF800204B6842EA0905DC034B
:100D700058BF22EA0905CCF80050DCF804209C0397
:100D800042EA090558BF22EA0905CCF80450DCF80C
:100D90000820DC0242EA090540F20C4458BF22EA6E
:100DA0000905CCF80850C4F2010422689B0242EA0B
:100DB000090558BF22EA0905256053E703B0BDE8DD
:100DC000F08F000070B542F22474C2F20004A06FEC
:100DD00028B9002084F87400204600F055F824203B
:100DE000A0672068016821F001010160204602F03F
:100DF000A5FC00281CBF012070BD606A28B142F22A
:100E00002470C2F2000000F0EFFA2068416821F47B
:100E100090414160816821F02A018160016841F0C0
:100E2000010101600021C4F8801042F6E861C2F2BD
:100E300000010D68016809070DD542F22476C2F25F
:100E4000000630464FF400112A466FF07E4302F050
:100E5000A9FD78B93068006840070DD542F22470CA
:100E6000C2F200004FF480012A466FF07E4302F088
:100E700099FD08B1032070BD2020A067E067002025
:100E8000206684F8740070BDB0B586B0026844F680
:100E90000003C4F2000300219A42CDE90411CDE918
:100EA0000211019160D043F60001C4F201018A42AF
:100EB00040F0818041F21401C4F202014A6800242A
:100EC00042F480424A604A68054602F48042009239
:100ED000009A0A684FF0904042F400320A600968B4
:100EE00001F40031009100994FF4C0610191022199
:100EF0000291032104910721059101A90394FFF7B1
:100F000091FE42F260605821C2F20000C4F2020178
:100F100080224FF0200CC0E90014C0E90242C0E971
:100F20000444C0E906C40A680A2363F30D1241F8B9
:100F300058291022C0E90F124FF480718463018494
:100F4000286745624EF60C50CEF2000000684EF263
:100F50002540CEF2000004704EF20410CEF20000E4
:100F6000C0F800C006B0B0BD41F21400C4F20200E7
:100F7000826842F480228260826802F480220092B9
:100F8000009A026842F480220260006800F4802027
:100F9000009000984FF4806001900220CDE902019A
:100FA000032004900720059040F20040C4F60000A2
:100FB00001A9FFF737FE06B0B0BD000042F2247071
:100FC000C2F20000C16F202940F0188190F874101F
:100FD000012908BF7047F0B501214FF0000C80F8DF
:100FE0007410C0F860C001684968090200F1CE8041
:100FF00042F2CC114FF48062C2F20001A0F85820F6
:1010000022224165C0F880C0C267026F002A44D026
:1010100041F2516343F23574C0F60003C0F6000498
:10102000C2E90A3492F8203041F2D145C0F60005F9
:101030000026012B1563566300F0D78092F821300B
:10104000D0F800C04FF0010E012B82F820E040F0F4
:10105000C980022382F8213000239363D2E900374C
:10106000D2E90F251E680CF1240426F001061E604B
:101070000EFA05F656604FF480625A602246102F31
:1010800004BF0A4621469A60D960196841F00E01F2
:101090001960196841F001011960002180F874108D
:1010A000016851E8001F026841F4807142E80013B2
:1010B000E3B1016851E8001F026841F4807142E821
:1010C00000139BB1016851E8001F026841F4807170
:1010D00042E8001353B1016851E8001F026841F46F
:1010E000807142E80013002BDAD100BF016851E89B
:1010F000021F026841F0010142E80213D3B3016804
:1011000051E8021F026841F0010142E802138BB36B
:10111000016851E8021F026841F0010142E8021330
:1011200043B3016851E8021F026841F0010142E83F
:101130000213002BDAD11DE0016851E8021F02689A
:1011400041F0400142E80213002B55D0016851E8FC
:10115000021F026841F0400142E80213002B4BD00D
:10116000016851E8021F026841F0400142E80213A1
:10117000002B41D0016851E8021F026841F0400194
:1011800042E80213002BD7D136E000BF016851E8D6
:10119000001F036841F0806143E80012002A3FF419
:1011A00027AF016851E8001F026841F0806142E802
:1011B0000013002B3FF41CAF016851E8001F0268C8
:1011C00041F0806142E80013002B3FF411AF016849
:1011D00051E8001F026841F0806142E80013002BD3
:1011E000D4D105E7002182F820101021C0F880102A
:1011F000202180F87460C167BDE8F04070470000AE
:10120000F0B581B00446806F202804D10D46002936
:1012100018BF002A01D101B0F0BD94F87400012874
:10122000F9D00020C4F880002120A06742F6E860D1
:10123000C2F200000668A4F85020A4F85220A0686A
:10124000B0F5805F01D1206980B32F4600250020D2
:1012500084F8740008E000BF17F8011B0185B4F89A
:1012600052000138A4F85200B4F8520088B1204668
:10127000802132464FF47A7302F094FB0028CAD1E1
:101280002068002FE8D135F8021B00276FF35F219B
:10129000E4E72046402132464FF47A7302F082FBA5
:1012A000002804BF2020A06701B0F0BD0027CEE7D2
:1012B000012080F3138802F06BFC0000FEE70000C1
:1012C000FEE7000070470000704700004EF68850AF
:1012D000CEF20000016841F4700101607047000027
:1012E00040F2FF7C0268C4F2000C604512DD40F65B
:1012F0000003C4F20003984215D043F20043C4F245
:10130000010398420FD042F60043C4F20103984211
:1013100009D00CE0B0F1804F05D040F20043C4F298
:101320000003984203D14B6822F070021A4343F243
:10133000FF33C4F2010398420BDC604518DCB0F1C6
:10134000804F2AD040F20043C4F20003984224D0D8
:1013500027E044F2FF33C4F20103984211DC43F268
:101360000043C4F20103984217D044F2000310E096
:1013700040F60003C4F2000398420ED042F6004348
:1013800007E044F60003C4F20103984205D044F29A
:101390000043C4F20103984203D1CB6822F44072A7
:1013A0001A4380B54B6922F0800E8A6843EA0E0327
:1013B000D1F800C00360C262A0F18042A2F596326B
:1013C0004FEAB222072AC0F828C0BDE8804007D8FB
:1013D000012303FA02F212F0E50F1CBF0969016351
:1013E0000121416170470000416ACA070CD18A0798
:1013F00015D44A071ED40A0727D4CA0630D48A0651
:1014000039D44A0642D457E00268D0F828C053685D
:1014100023F4003343EA0C0353608A07E9D50268DA
:10142000D0F82CC0536823F4803343EA0C03536094
:101430004A07E0D50268D0F830C0536823F480230F
:1014400043EA0C0353600A07D7D50268D0F834C0CA
:10145000536823F4004343EA0C035360CA06CED515
:101460000268D0F838C0936823F4805343EA0C0331
:1014700093608A06C5D50268D0F83CC0936823F40F
:10148000005343EA0C0393604A0615D5D0F800C018
:10149000036CDCF80420B3F5801F22F4801242EACA
:1014A0000302CCF8042007D1DCF80420436C22F4BA
:1014B000C0021A43CCF80420090658BF70470168DF
:1014C000806C4A6822F40022104348607047000094
:1014D000406A0268836FD0F87CC0916809062DD5F8
:1014E000212B2BD10021A0F8521000BF016851E838
:1014F000001F026821F0C00142E80013DBB101685F
:1015000051E8001F026821F0C00142E8001393B1C6
:10151000016851E8001F026821F0C00142E8001391
:101520004BB1016851E8001F026821F0C00142E898
:101530000013002BDAD120218167026891684906E7
:1015400040F17E80BCF1220F7AD10021A0F85A1020
:10155000016851E8001F026821F4907142E800130D
:10156000BBB3016851E8001F026821F4907142E8A2
:10157000001373B3016851E8001F026821F49071F1
:1015800042E800132BB3016851E8001F026821F400
:10159000907142E80013002BDAD11AE0016851E89B
:1015A000021F026821F0010142E80213DBB1016869
:1015B00051E8021F026821F0010142E8021393B1D1
:1015C000016851E8021F026821F0010142E802139C
:1015D0004BB1016851E8021F026821F0010142E8A5
:1015E0000213002BDAD1016E012924D1016851E8E0
:1015F000001F026821F0100142E80013DBB101680E
:1016000051E8001F026821F0100142E8001393B175
:10161000016851E8001F026821F0100142E8001340
:101620004BB1016851E8001F026821F0100142E847
:101630000013002BDAD12021C16700210166416629
:10164000D0F8801041F01001C0F880107047000001
:101650002DE9F04F81B02DED088BB4B08169406A5F
:10166000202900F09E800021A0F85A10016851E85E
:10167000001F026821F4807142E80013E3B10168A1
:1016800051E8001F026821F4807142E800139BB109
:10169000016851E8001F026821F4807142E80013DC
:1016A00053B1016851E8001F026821F4807142E8DB
:1016B0000013002BDAD100BF016851E8021F026855
:1016C00021F0010142E80213BBB3016851E8021F97
:1016D000026821F0010142E8021373B3016851E886
:1016E000021F026821F0010142E802132BB30168D6
:1016F00051E8021F026821F0010142E80213002BA9
:10170000DAD11AE0016851E8021F026821F04001B5
:1017100042E80213DBB1016851E8021F026821F0C0
:10172000400142E8021393B1016851E8021F0268C8
:1017300021F0400142E802134BB1016851E8021F59
:10174000026821F0400142E80213002BDAD1202187
:10175000C167016E012924D1016851E8001F0268A8
:1017600021F0100142E80013DBB1016851E8001FCD
:10177000026821F0100142E8001393B1016851E8BA
:10178000001F026821F0100142E800134BB101680C
:1017900051E8001F026821F0100142E80013002BFD
:1017A000DAD1016E012900F09485006F40F27C05CA
:1017B0000068C2F20005406840F2100403902868F7
:1017C0000399C2F2000488420FD140F28006C2F2AF
:1017D000000630680130306030680B2805D3FFF711
:1017E000EDFB002030600390606003982860206863
:1017F00038B10398B0F5806F03D10020206000F06D
:1018000068BD61680020B0EB912F04BF6068C0F52F
:1018100080600590206840B160680021B1EB902F96
:101820000BD160680399401A0AE00598C0F5806002
:1018300004904FF48060606007E00398C0F580601A
:101840000490039860600020206040F27800C2F2AB
:1018500000000078002800F042854EF21001CEF220
:101860000001086840F002000860DDF814B0049838
:1018700005990844834580F0248542F2CC1942F64C
:10188000B86842F6BC6542F6B46C42F6D4679FED88
:10189000D68A9FEDD69A9FEDD6AB42F6C466C2F2C9
:1018A0000009C2F200084FF0000AC2F20005C2F2BD
:1018B000000CC2F20007C2F200060AE0481CC8F899
:1018C0000000049805990BF1010B0844834580F052
:1018D000F88458466FF39F2019F80000D8F80010DC
:1018E0002028EBD051B1A0F12E010B291BD8DCF838
:1018F00000107054481CCCF80000E2E70D2815D009
:1019000042F6B061C2F200012C460D46096842F66B
:10191000A063C2F2000332463E465854481C286079
:1019200025461646CDE70D2840F0A88042F6B06067
:10193000C2F2000042F6A061C0F800A00FF6C42079
:10194000C2F200010622C5F800A0CCF800A0C8F839
:1019500000A0FEF773FD002800F0958042F6A0611C
:101960000FF6B020C2F200010A22FEF767FD002840
:1019700000F0E58042F6A0610FF6A420C2F200015B
:101980000A22FEF75BFD002800F0368142F6A061D6
:101990000FF69820C2F200010B22FEF74FFD00283F
:1019A00000F0B38142F6A0610FF68C20C2F2000174
:1019B0000B22FEF743FD002800F03A8242F6A061B8
:1019C0000FF68420C2F200010622FEF737FD002840
:1019D00000F0908242F6A0610FF67C20C2F2000176
:1019E0000A22FEF72BFD002800F0A38242F6A06039
:1019F000C2F20000006846F26851C7F26C018842EA
:101A000040F043840FF65C2004F070FC47F28270D3
:101A1000C0F6000004F06AFC47F2A774C0F60004A8
:101A2000204604F063FC47F26360C0F6000004F057
:101A30005DFC47F28660C0F6000004F057FC2046CB
:101A400004F054FC47F23E60C0F6000004F04EFC87
:101A500047F22570C0F6000004F048FC204604F070
:101A600045FC47F2F260C0F6000004F03FFC20465F
:101A700004F03CFC0FF6042000F005BC2968785403
:101A8000481C28601DE73C464F4647F2F479C0F6F3
:101A90000009484621460622FEF7D0FC002800F047
:101AA000FF80206847F26321C6F27361884200F02C
:101AB000808147F64C00C0F6000021460322FEF765
:101AC000BDFC42F6C4660028C2F20006B9462746AD
:101AD00040F0DB8342F68C610220C2F20001087103
:101AE000FEF7C4FE0DF1200A50463221FEF754FEE7
:101AF00047F27B7147F2A97247F64C035046C0F695
:101B00000001C0F60002C0F60003FEF7E9FB42F652
:101B1000C060C2F2000005685046FEF7BBFC82B20E
:101B2000284642F6BC65514642F6C466C2F200053C
:101B30004FF0000AC2F20006FFF762FBA5E347F68A
:101B40001900C0F6000039460622FEF777FC00288F
:101B500000F0678147F64100C0F6000039460622D2
:101B6000FEF76CFC002800F0B78147F2E670C0F683
:101B7000000039460622FEF761FC002800F0C4810F
:101B800047F62D00C0F6000039460622FEF756FC47
:101B9000002800F03C8247F2C970C0F600003946C8
:101BA0000622FEF74BFC002800F05B8247F2DD7056
:101BB000C0F6000039460622FEF740FC002800F07F
:101BC000CE8247F2BB70C0F6000039460622FEF70F
:101BD00035FC002840F0598342F68C610120C2F2A6
:101BE0000001C87249E300BFCDCCCC3D000000002D
:101BF0009A9999999999B93F47F61900C0F600004A
:101C000039460622FEF71AFC002800F06C8147F6E0
:101C10004100C0F6000039460622FEF70FFC0028FE
:101C200000F0798147F2E670C0F6000039460622DE
:101C3000FEF704FC002800F0F18147F62D00C0F605
:101C4000000039460622FEF7F9FB002800F010825A
:101C500047F2C970C0F6000039460622FEF7EEFBD7
:101C6000002800F0838247F2DD70C0F6000039469C
:101C70000622FEF7E3FB002800F0D68247F2BB7095
:101C8000C0F6000039460622FEF7D8FB002840F0D7
:101C9000FC8242F68C60C2F2000080F80BA0ECE2FD
:101CA00042F68C60C2F2000080F804A0FEF7DEFD70
:101CB0000DF1200A50463221FEF76EFD47F27B718E
:101CC00047F2A9725046C0F60001C0F600024B462A
:101CD000FEF706FB42F6C060C2F20000D0F80090AA
:101CE0005046FEF7D7FB82B2484642F6BC655146E5
:101CF000C2F20005B9464FF0000AFFF781FA42F63A
:101D0000C4662746C2F20006BFE247F2FC70C0F686
:101D1000000039460322FEF791FB002800F0028103
:101D200047F62400C0F6000039460322FEF786FB82
:101D3000002800F07A8147F61500C0F60000394609
:101D40000322FEF77BFB002800F0998147F2F77031
:101D5000C0F6000039460322FEF770FB002800F0B1
:101D60000C8247F65000C0F6000039460322FEF709
:101D700065FB002800F05F8247F2E670C0F60000C5
:101D800039460322FEF75AFB002800F0628247F230
:101D9000D170C0F6000039460322FEF74FFB002841
:101DA00040F0738242F68C610120C2F20001887417
:101DB00063E242F68C69C2F20009012089F804004E
:101DC000FEF754FD0DF1200A50463221FEF7E4FCE7
:101DD00047F27B7147F2A97247F2EF735046C0F6A3
:101DE0000001C0F60002C0F60003FEF779FA42F6E1
:101DF000C060C2F2000005685046FEF74BFB82B29D
:101E0000284642F6BC655146C2F200054FF0000A72
:101E1000FFF7F6F942F6C466C2F20006B946274655
:101E200033E242F68C610120C2F20001487109E1FF
:101E300047F2FC70C0F6000039460322FEF7FEFAB6
:101E4000002800F0F98047F62400C0F6000039466B
:101E50000322FEF7F3FA002800F0188147F6150078
:101E6000C0F6000039460322FEF7E8FA002800F029
:101E70008B8147F2F770C0F6000039460322FEF767
:101E8000DDFA002800F0DE8147F65000C0F60000C1
:101E900039460322FEF7D2FA002800F0E18147F22A
:101EA000E670C0F6000039460322FEF7C7FA0028A4
:101EB00000F0DD8147F2D170C0F600003946032200
:101EC000FEF7BCFA002840F0E08142F68C60C2F2D6
:101ED000000080F812A0D0E142F68C610120C2F22D
:101EE00000018871AEE042F68C60C2F2000080F81A
:101EF00005A0A7E030783C462D2803D030782B2869
:101F000040F0CB800125C9E042F68C610120C2F28D
:101F10000001C87196E042F68C60C2F2000080F8C1
:101F200006A08FE042F68C610120C2F20001087326
:101F300088E042F68C64C2F200040DF1200A2568A4
:101F400050463221FEF728FC47F2747147F607022B
:101F50005046C0F60001C0F600022B46FEF7C0F95D
:101F600042F6C060C2F2000005685046FEF792FAE1
:101F700082B228465146FFF743F92079002800F045
:101F80000A81207942F6BC6542F6C4660128C2F295
:101F90000005C2F200064FF0000A40F03E8147F211
:101FA000EF70C0F6000004F0B1F9217B47F2FC703D
:101FB000C0F6000004F078F9617B47F62400C0F613
:101FC000000004F071F9A17B47F61500C0F600008F
:101FD00004F06AF9E17B47F2F770C0F6000004F004
:101FE00063F9217C47F65000C0F6000004F05CF96C
:101FF000617C47F2E670C0F6000004F055F9A17C60
:1020000047F2D170C0F6000004F04EF93DE142F60F
:102010008C610120C2F20001087213E042F68C606C
:10202000C2F2000080F807A00CE042F68C610120AB
:10203000C2F20001487305E042F68C60C2F2000073
:1020400080F80CA0FEF712FC42F6C060C2F200005D
:10205000006847F23961C0F600010422FFF7D0F8AA
:1020600013E142F68C610120C2F20001487204E1E2
:1020700042F68C60C2F2000080F808A0FDE042F653
:102080008C610120C2F200018873F6E042F68C6098
:10209000C2F2000080F80DA0EFE000250027B0EEAE
:1020A00049BAB0EE480A002019E0705D303801EE00
:1020B000100AB8EEC11A20EE011A10EE100A31EE25
:1020C0000BBA04F07FFA53EC1A2B04F07DF904F0FC
:1020D00049F900EE100A01200135112D21D0715D62
:1020E00069B1715D2E29F6D0C007DED1705D07EBB6
:1020F000870100EB4100A0F130070020ECE700EE83
:10210000107AB8EEC00A30783BEE000AB1EE401A01
:102110002D2808BFB0EE410ABCEEC00A10EE100A2E
:1021200000E0002042F68C61C2F200010860FEF778
:102130009DFB42F6C060C2F20000006847F22461D5
:10214000C0F600011422FFF75BF842F2CC1942F608
:10215000BC65C2F20009C2F20005274695E042F6CE
:102160008C610120C2F20001887286E042F68C6028
:10217000C2F2000080F809A07FE042F68C610120E5
:10218000C2F20001C87378E042F68C60C2F200002F
:1021900080F80EA071E047F2F470C0F6000004F081
:1021A000B5F8617947F61900C0F6000004F07CF834
:1021B000A17947F64100C0F6000004F075F8E17916
:1021C00047F2E670C0F6000004F06EF8217A47F698
:1021D0002D00C0F6000004F067F8617A47F2C9707C
:1021E000C0F6000004F060F8A17A47F2DD70C0F696
:1021F000000004F059F8E17A47F2BB70C0F6000025
:1022000004F052F842F6BC6542F6C466C2F200051C
:10221000C2F200064FF0000A37E047F64C00C0F665
:10222000000004F073F830E042F68C60C2F2000067
:1022300080F80AA021E042F68C610120C2F2000180
:1022400008741AE042F68C60C2F2000080F80FA019
:1022500013E042F68C610120C2F2000148740CE0E8
:1022600042F68C60C2F2000080F810A005E042F651
:102270008C60C2F2000080F811A0FEF7F7FA47F276
:102280003960C0F6000004F031F842F6A06042F672
:10229000B46CC2F20000C2F2000CC0F80BA0C0E99E
:1022A00000AAC0F808A0C6E900AAC6F808A0C6F8A7
:1022B0000BA0C7E900AAC7F808A0C7F80BA0FFF752
:1022C00000BB4EF21001CEF20001086820F00200BF
:1022D000086034B0BDEC088B01B0BDE8F08F42F669
:1022E0008C68C2F2000898F80410DDF814B0049865
:1022F00002291ED1059942F2CC185844C2F20008B6
:10230000B0F5806F08EB010501F2458142F64856B1
:1023100042F64C50C2F20006C2F20000049C316842
:102320000268914281F24C8100683168401A01F0E4
:102330004CB9059908448345CBD222A842F2CC1C63
:1023400042F6C04342F6340E42F2C81546F2CC695A
:102350000130C2F2000CC2F20003C2F2000E4FF0D4
:10236000000AC2F20005C0F60009019006E00498D8
:1023700005990BF1010B08448345AAD298F8040093
:10238000002800F08D8098F804000128EFD158460D
:102390006FF39F201CF800002968002900F0B88026
:1023A0002968A0F13F0212F13E0F02D8012900F086
:1023B000438529683F2900F23F8529684A1C2A6025
:1023C00042F28812C2F20002505428680528CED387
:1023D00042F28810C2F20000407829680230884238
:1023E000C5D142F28816C2F200067078431E00F092
:1023F000B884811E032906F1020280F0B484002112
:1024000000F0D2BC7365745F70726F746F636F6C31
:10241000000000006D61765F6D73675F6F6E000096
:102420006D61765F6D73675F6F666600637273667A
:102430005F6D73675F6F6E00637273665F6D736766
:102440005F6F6666000000007365745F756172748B
:102450005F737065656400006765745F73746174B1
:10246000757300007365745F70726F746F636F6C67
:1024700020617267756D656E74200D006765745F0D
:102480007374617475733A2073686F772063757223
:1024900072656E742073657474696E67730D0000E5
:1024A00058466FF39F201CF80060DC784FF000095D
:1024B0000F2C83F80090029600F22382DFE814F0DC
:1024C0001000100024013E01900087019B01610172
:1024D000CE010C01AF016B00A3002F002F005501AE
:1024E000FE2E00F0D58142F66857FD2EC2F200079D
:1024F00040F00B82187B022400F0FE00FD211873CF
:102500004FF6FF70DC70AEF80210AEF80000FCE190
:10251000EA283FF445AFC8283FF442AF27E79EF8CA
:1025200001009EF80410B0424FF0020908BF4FF0BE
:1025300001090E2C08BF4FF00209C80783F800906C
:102540008EF8156140F03181186942F6685700280D
:10255000C2F2000700F0F087026B002A00F07384DB
:102560009EF80B00BEF8091041EA0041184690475A
:1025700042F6C043C2F2000393F80090002840F0F6
:10258000398642F6340EB9F1020FC2F2000E40F065
:10259000788400F0D1BF19791D46481C1871BEF827
:1025A000003071440E7386EA030181EA0111CCB256
:1025B000090241EA1321230983EAC4039EF8036058
:1025C000C2B25940B242AEF8001011BF0B240C2425
:1025D000EC7006462B4642F2C815C2F200051CE319
:1025E000BEF800008EF8056086EA000181EA01115C
:1025F000CAB2090241EA1020110981EAC201484029
:10260000AEF8000076E19EF80B00BEF8091046F621
:10261000043542F6685741EA0040D7220021C0F64F
:1026200000054FF0FF36C2F2000700BF914210D202
:102630008B1801335C0804EB440755F82770874278
:1026400042F66857C2F2000794BF214606EB5302D8
:10265000ECD101EB410155F82120824240F0268166
:1026600005EB8100BEF800200379817983EA02003E
:1026700080EA0010C0B2030243EA1222030983EA8F
:10268000C0005040029D42F6C043AEF80000C0B208
:102690000E24C2F20003854208BF0D241A79DC70B3
:1026A0008A428EF8145180F01C810EEB02000C302F
:1026B000891AFEF74FF842F6C04342F6340E42F252
:1026C000CC1C42F68C68C2F20003C2F2000EC2F2C9
:1026D000000CC2F2000804E1704630F8091FBEF891
:1026E000002041EA0621018086EA020080EA00100B
:1026F000C1B2000240EA12200A0982EAC101484040
:10270000AEF800000A24FBE0BEF800008EF803607B
:1027100086EA000181EA0111CAB2090241EA1020E9
:10272000110981EAC2011A7B4840D10783F804A04D
:10273000AEF8000040F0DC800324E1E0022E8EF8C9
:10274000046080F0D980BEF80000042486EA00010D
:1027500081EA0111CAB2090241EA1020110981EA95
:10276000C2014840AEF80000CAE0587BAEEB000161
:10277000013881F823610106587300F09A810F2413
:10278000BFE0BEF800008EF8086086EA000181EA2A
:102790000111CAB2090241EA1020110981EAC201FD
:1027A0004840AEF800000824AAE00F240D2042F6AD
:1027B0006857DC70B9F1020F5873C2F200070EBF00
:1027C0004FF002094FF0000983F800909DE0BEF839
:1027D00000008EF8066086EA000181EA0111CAB2A3
:1027E000090241EA1020110981EAC2014840AEF80D
:1027F0000000062484E0BEF800008EF8076086EA38
:10280000000181EA0111CAB2090241EA102011094E
:1028100081EAC2014840AEF80000072470E070462B
:1028200030F8091F8278018032438270BEF80020A0
:1028300086EA020080EA0010C1B2000240EA1220DB
:102840000A099EF8036082EAC1014840002EAEF8F2
:10285000000000F0DF810B24DC70DEE1BEF8000038
:102860008EF80BA086EA000181EA0111CAB20902C2
:1028700041EA1020110981EAC2011A7B4840D107C0
:10288000AEF80960AEF8000040F00781092437E097
:10289000187B022440F00100FE2118734FF6FF70F0
:1028A000DC70AEF80210AEF800002AE0BEF80000BE
:1028B00042F6C04380EA0011C9B20A0242EA10207F
:1028C0000A0982EAC10148400299AEF80000C0B28C
:1028D0000E24C2F20003814208BF0D24DC708EF882
:1028E000141142F2C8154FF00009C2F200050CE0C5
:1028F000AEF80490052403E0987801240130987024
:10290000DC7042F66857C2F200079EF8036042F698
:10291000505A19795A79C2F2000A987842F6C0439F
:10292000C2F200038AF80410511C42F6C0421B7B1D
:10293000C2F2000212898AF80C3042F6C0438AF8CB
:1029400003408AF80510AAF80820AAF80A00C2F283
:102950000003B9F1020F4FF0000AFE7083F802A0E5
:1029600003D1BEF81401388003E009F0FE0002280C
:1029700015D140F201105880029846F2CC69FD282A
:10298000C0F6000983F800A07FF4F1AC0220D870F3
:102990004FF6FF708EF803A0AEF80000E7E4B9F13F
:1029A000000F46F2CC69C0F600093FF4E0AC42F6F5
:1029B0006851C2F20001C87AB1F8091041EA00403A
:1029C00020F07F40492843DC013820283FF6CFAC77
:1029D000DFE810F022002100210021002100210069
:1029E00021002100210021002100210021002100DF
:1029F00021002100210021002100210021002100CF
:102A00002100210021006001210021002100280176
:102A1000210021004401AAE498F8050000283FF4B1
:102A2000A6AC42F66854C2F20004A078FE2840F03A
:102A30006D82A07940F28401C2F200018870B4F87E
:102A40000700FE22A1F8030001200A704E7074E115
:102A50004A2800F03B818D2800F05481EB287FF458
:102A600086AC98F80B0000283FF481AC42F668541D
:102A7000C2F20004A078FE2840F04083A07940F222
:102A80008401C2F200018870B4F80700FE220A70C7
:102A90004E70A1F80300EB204FE19EF8036042F670
:102AA0006857002EC2F2000700F0EE810B24DC70A4
:102AB0002DE71969002900F0378558690DF12008C4
:102AC00000904EF26760C6F609200A904AF68560CB
:102AD000CBF667300B904FF27230C3F66E400C901D
:102AE0004FF23A50CAF24F500D9045F27F20C5F296
:102AF0000E100E9046F68C00C9F605300F904DF67C
:102B0000AB10C1F6837010904CF61950C5F6E0304A
:102B1000CDE908AA11908A46103140462022F1469C
:102B200003F064F999F8030009F1020100F10A02C7
:102B3000404603F05BF909F58A714046022203F032
:102B400055F909F58B714046072203F04FF9089FAC
:102B50003720A0EBD70000F03F0480208DF88800DC
:102B6000019822AE4721A519FDF7F4FD099938BA5D
:102B7000C5F8050008BAC5F8010004F1090240468D
:102B80003146009E03F032F99DF828009DF8291087
:102B90009DF82B208DF81C108DF81D009DF82F003E
:102BA0009DF82E109DF82A308DF81A208DF81E0001
:102BB0008DF81F1009F21D110DF11A0006228DF873
:102BC0001B30FDF73BFC002800F0198342F6C043A0
:102BD000C2F200031869026B002A00F0398342F642
:102BE0003404C2F20004E07AB4F8091041EA00416A
:102BF0001846904742F6C04342F2C815C2F200039D
:102C0000A6460028C2F2000540F08E844FF003096A
:102C100000F08CBC0C24DC70002642F66857C2F22F
:102C2000000774E698F8070000283FF4A0AB42F6CE
:102C30006854C2F20004A078FE2840F02981A079EF
:102C400040F28401C2F200018870B4F80700FE224D
:102C50000A704E70A1F803001E206EE098F808007C
:102C600000283FF484AB42F66854C2F20004A07816
:102C7000FE2840F08981A07940F28401C2F200016F
:102C80008870B4F80700FE220A704E70A1F80300A5
:102C9000212052E098F8060000283FF468AB42F685
:102CA0006854C2F20004A078FE2840F0AB81A079FD
:102CB00040F28401C2F200018870B4F80700FE22DD
:102CC0000A704E70A1F803001A2036E098F8090047
:102CD00000283FF44CAB42F66854C2F20004A078DE
:102CE000FE2840F0CD81A07940F28401C2F20001BB
:102CF0008870B4F80700FE220A704E70A1F8030035
:102D00004A201AE098F80A0000283FF430AB42F657
:102D10006854C2F20004A078FE2840F02D82A07909
:102D200040F28401C2F200018870B4F80700FE226C
:102D30000A704E70A1F803008D205FFA86F88D1D91
:102D4000487104F10C0128464246FDF78CFC2288AC
:102D500055FA86F042F2C815C2F20005130A08219E
:102D600079E3002135E023F00305002112F8047B0C
:102D7000043D81EA070112F8034C59F8211012F8BA
:102D8000027C81EA040159F8211012F8014C81EA11
:102D9000070159F8211081EA040159F82110E5D101
:102DA00042F2C815C2F2000513F0030311D01778E0
:102DB000012B81EA070159F821100AD05778022B1C
:102DC00081EA070159F8211003D09278514059F84F
:102DD00021103044407842F6C0438142C2F20003E1
:102DE0007FF4C5AA42F28810C2F20000807802384F
:102DF0001F2821D8DFE810F0240020002000200048
:102E000020003E0244024702200020002000200053
:102E10002000200020002000200020004A02200086
:102E200020002000200020002000200020002000A2
:102E30003B02200020004102C5F800A0FFF797BA2E
:102E400098F80E0024E2B9F1020F1AD10124384695
:102E5000714640F22312DC70FDF74AFC42F6C04393
:102E600042F6340E42F68C6842F2CC1CC2F20003E9
:102E7000C2F2000E4FF00209C2F20008C2F2000CCA
:102E800043E54FF0030955E30C24DC7000263EE5D2
:102E9000F1B20229C0F0438242F66851C2F2000149
:102EA00051FA86F1C97A002940F03982711ECAB2FE
:102EB000022A29D342F66852C2F2000252FA81F283
:102EC000D27A002A40F02A82B11ECAB2022A1BD34B
:102ED00042F66852C2F2000252FA81F2D27A002A15
:102EE00040F01C82F11ECAB2022A0DD342F668528B
:102EF000C2F2000252FA81F2D27A002A40F00E8227
:102F0000043EF1B20129C7D8012608E2F1B2022934
:102F1000C0F0188242F66851C2F2000151FA86F1FF
:102F2000C97A002940F00E82711ECAB2022A29D342
:102F300042F66852C2F2000252FA81F2D27A002AB4
:102F400040F0FF81B11ECAB2022A1BD342F668527A
:102F5000C2F2000252FA81F2D27A002A40F0F181E4
:102F6000F11ECAB2022A0DD342F66852C2F2000222
:102F700052FA81F2D27A002A40F0E381043EF1B2A3
:102F80000129C7D80126DDE1F1B20229C0F0ED81A7
:102F900042F66851C2F2000151FA86F1C97A00295D
:102FA00040F0E381711ECAB2022A29D342F6685268
:102FB000C2F2000252FA81F2D27A002A40F0D481A1
:102FC000B11ECAB2022A1BD342F66852C2F20002F4
:102FD00052FA81F2D27A002A40F0C681F11ECAB2BA
:102FE000022A0DD342F66852C2F2000252FA81F26E
:102FF000D27A002A40F0B881043EF1B20129C7D844
:103000000126B2E1F1B20229C0F0C28142F6685154
:10301000C2F2000151FA86F1C97A002940F0B88164
:10302000711ECAB2022A29D342F66852C2F20002C5
:1030300052FA81F2D27A002A40F0A981B11ECAB2B6
:10304000022A1BD342F66852C2F2000252FA81F2FF
:10305000D27A002A40F09B81F11ECAB2022A0DD317
:1030600042F66852C2F2000252FA81F2D27A002A83
:1030700040F08D81043EF1B20129C7D8012687E1D5
:10308000F1B20229C0F0978142F66851C2F2000104
:1030900051FA86F1C97A002940F08D81711ECAB2B9
:1030A000022A29D342F66852C2F2000252FA81F291
:1030B000D27A002A40F07E81B11ECAB2022A1BD306
:1030C00042F66852C2F2000252FA81F2D27A002A23
:1030D00040F07081F11ECAB2022A0DD342F6685246
:1030E000C2F2000252FA81F2D27A002A40F06281E2
:1030F000043EF1B20129C7D801265CE1F1B20229F0
:10310000C0F06C8142F66851C2F2000151FA86F1BA
:10311000C97A002940F06281711ECAB2022A29D3FD
:1031200042F66852C2F2000252FA81F2D27A002AC2
:1031300040F05381B11ECAB2022A1BD342F6685234
:10314000C2F2000252FA81F2D27A002A40F045819E
:10315000F11ECAB2022A0DD342F66852C2F2000230
:1031600052FA81F2D27A002A40F03781043EF1B25D
:103170000129C7D8012631E1F1B20229C0F041810D
:1031800042F66851C2F2000151FA86F1C97A00296B
:1031900040F03781711ECAB2022A29D342F6685222
:1031A000C2F2000252FA81F2D27A002A40F028815B
:1031B000B11ECAB2022A1BD342F66852C2F2000202
:1031C00052FA81F2D27A002A40F01A81F11ECAB274
:1031D000022A0DD342F66852C2F2000252FA81F27C
:1031E000D27A002A40F00C81043EF1B20129C7D8FE
:1031F000012606E142F6340EC2F2000E9CE1002EDA
:103200003FF4E4AC42F63402C2F20002318892F894
:103210001641B2F81B81D2F817E1002956D0D079B7
:10322000137A002202E0013291424DD002EBC20734
:1032300006EB070C9CF80370B842F4D19CF80470BC
:10324000BB42F0D19CF80270BC42ECD190B23FE09E
:1032500042F6340E42F6685742F2C8154FF00309A1
:10326000C2F2000EC2F20007C2F2000562E198F855
:1032700011000DE098F80C000AE098F8120007E041
:1032800098F8100004E098F80D0001E098F80F009D
:1032900000283FF4D1AD42F28810C2F2000041781C
:1032A000023103F059F842F6C04342F6340E42F2BE
:1032B000CC1C42F68C68C2F20003C2F2000EC2F2CD
:1032C000000CC2F20008B7E50A4604E00020002224
:1032D000884240F0F4800F293FF678AC48F68050E1
:1032E000C0F25B001EEB0005DAE902701FFA88FCF1
:1032F0004CF10003EF1B73EB0000FFF467AC42F6E8
:103300003400C2F20000B0F8070002EBC2033344FD
:10331000A3F80300481C9C703080DFE00E4640F2AA
:10332000840142F66854C2F20001C2F2000408703F
:103330002779D4F805004E708F70C1F803001E2065
:1033400070E00E4640F2840142F66854C2F2000179
:10335000C2F200040870D4F805002779C1F8030010
:1033600001204E708F705DE00E4640F2840142F6FF
:103370006854C2F20001C2F2000408702779D4F840
:1033800005004E708F70C1F8030021204AE00E4600
:1033900040F2840142F66854C2F20001C2F2000415
:1033A00008702779D4F805004E708F70C1F80300BB
:1033B0001A2037E00E4640F2840142F66854C2F209
:1033C0000001C2F2000408702779D4F805004E709D
:1033D0008F70C1F803004A2024E00E4640F28401B9
:1033E00042F66854C2F20001C2F200040870277964
:1033F000D4F805004E708F70C1F80300EB2011E087
:103400000E4640F2840142F66854C2F20001C2F254
:10341000000408702779D4F805004E708F70C1F849
:1034200003008D205FFA86F801F10A05A1F8070074
:1034300081F809A004F10C0128464246FDF713F972
:103440002288F80755FA86F009D142F2C815130A06
:103450000C21C2F2000502704370002015E0D4F880
:1034600016110280D4F81A21D4F81E31C0F80210C7
:1034700094F8221142F2C815C0F80620C0F80A30AC
:1034800081730D200C21C2F200054144014440F239
:103490008400C2F2000002F05FFF42F68C6842F244
:1034A000CC1C42F6340E42F6C043C2F20008C2F20F
:1034B000000CC2F2000EC2F20003FEF758BF02EB8E
:1034C000C2003044B0F80910D0F805001FFA88F3A4
:1034D000B0EB0E0071EB0300BFF478AB02EBC2005F
:1034E00042F63402C2F20002B2F81B113044A0F8D6
:1034F0000910D2F8171142F6C043C0F80510DAE9F6
:1035000002121FFA88F0B1EB0E0172EB000138BF16
:10351000CAE902E042F6340E42F2C815C2F2000EC9
:10352000C2F20003C2F200054FF0010942F66857EB
:10353000C2F2000783F8009001243846714640F239
:1035400023124FF0000ADC70FDF7D2F842F6C043B8
:1035500042F6340E42F68C6842F2CC1CC2F20003F2
:10356000C2F2000EB9F1010FC2F20008C2F2000C63
:103570007FF4CBA918899EF80610002800F10100FD
:103580004FF001044FF00109597108BFA3F80AA0D8
:103590001881FFF7BAB942F6485742F64C5AC2F2C0
:1035A0000007C2F2000A059C3868DAF80010C4F57A
:1035B000806688421EDADAF800003968401A1FE097
:1035C00031680068401A00F50050A042C0F2A280A5
:1035D0003068316840F28412C0F50050C2F2000237
:1035E000A04202EB010020DD29462246FDF73BF810
:1035F00035682FE03868DAF80010081A00F5005036
:10360000B042C0F28C803868396840F28419C0F545
:103610000050C2F20009B04209EB01001EDD29464C
:103620003246FDF720F83C6830E03168C1F50052C1
:103630002946FDF718F83068281A00F5005130685F
:10364000A4F500552A1840F28410C2F20000FDF7DC
:103650000AF8346828193060FEF73BBE3968C1F5B6
:1036600000522946FCF7FFFF38684EF20042281A44
:1036700000F500513868CFF6FF72141B221840F293
:103680008410C2F20000FCF7EEFF3E68A01938601B
:10369000049805993A68DAF8003008449A42A0F58F
:1036A000806504DADAF800003968401A05E0386805
:1036B000DAF80010081A00F50050A84234DB386828
:1036C0003968C0F50050A84209EB010008DD42F25C
:1036D000CC11C2F200012A46FCF7C5FF3C6815E098
:1036E0003968C1F500524146FCF7BDFF3868A5F5C1
:1036F0000054A8EB000000F500513868221840F291
:103700008410C2F20000FCF7AEFF3D68601938601B
:10371000FEF7DFBD012080F3138800F04FFA01208F
:1037200080F3138800F04AFA012080F3138800F038
:1037300045FA0000406A006E70470000B0B50146CF
:1037400005688068D1E903324C691043D1F81CE068
:103750002A68204349F20C64A243104340EA0E0059
:103760002860686841F2040C20F4405018436860F7
:1037700088690A6AAB68104323F430621043A8607A
:1037800044F6FF30C4F20000C4F2020C85424FF050
:10379000100315DD44F60040C4F2000085421FD03E
:1037A00045F20000C4F2000085421DD043F600003F
:1037B000C4F20100854226D1DCF82C3075A01EE051
:1037C00044F20040C4F20000854211D044F60000EB
:1037D000C4F20000854216D1DCF82C00830C0AE00C
:1037E000DCF82C00030D06E0DCF82C00830D02E071
:1037F000DCF82C00030C46F6EC20C0F6000003F0C9
:10380000030250F82230BEF5004F41F2002EC0F204
:103810007A0E15D1082B4FF0010000F29E80DFE8F0
:1038200003F005257F9C4D9C9C9C7D0040F20C0084
:10383000C2F200000068DCF80020C2F302221EE0A1
:10384000082B4FF0010000F28880DFE803F0052329
:103850007A864F868686780040F20C00C2F200001D
:103860000068DCF80020C2F302221CE040F20C00E9
:10387000C2F200000068DCF80020C2F3C22246F663
:10388000FC23C0F600039A5C20FA02FEBEF1000F92
:1038900046D15FE040F20C00C2F200000068DCF8A4
:1038A0000020C2F3C22246F6FC23C0F600039A5C55
:1038B00020FA02FEBEF1000F43D14BE0DCF80030ED
:1038C00003F00C0008282BD146F6CC22C3F383402A
:1038D000C0F60002105CDCF828C0DA0341D440F6E0
:1038E0000012C0F23D0200FB02FECFE7DCF8003020
:1038F00003F00C00082824D146F6CC22C3F3834001
:10390000C0F60002105CDCF828C0DA0335D440F6BB
:103910000012C0F23D0200FB02FECBE74FF4004E66
:103920004868420802EB4E02B2FBF0F04FF6F0722C
:1039300010EA020310D0C0F34200184309E04FF42C
:10394000004E48680EEB5002B2FBF0F080B2102837
:1039500002D3E860002000E001200022C1E9192222
:10396000B0BD46F6DC230CF00F02C0F600039A5CF3
:10397000BEFBF2F202FB00FE88E746F6DC230CF009
:103980000F02C0F600039A5CBEFBF2F202FB00FEDF
:1039900090E700BF010000000400000008000000E4
:1039A0000200000010B5D0F800C0DCF81CE00EEA00
:1039B000010E8E4517D042F6E86EC2F2000E00BF2F
:1039C000DEF80040A41A9C4210D8DCF800406407DE
:1039D00044BFDCF81C405FEA045455D4DCF81C40BA
:1039E0000C408C42ECD1002010BD00BF016851E8B2
:1039F000001F026821F4D07142E80013BBB30168D4
:103A000051E8001F026821F4D07142E8001373B33B
:103A1000016851E8001F026821F4D07142E80013E8
:103A20002BB3016851E8001F026821F4D07142E80D
:103A30000013002BDAD11AE0016851E8021F026876
:103A400021F0010142E80213DBB1016851E8021FD5
:103A5000026821F0010142E8021393B1016851E8C4
:103A6000021F026821F0010142E802134BB1016814
:103A700051E8021F026821F0010142E80213002B05
:103A8000DAD17C21782252E04FF40061CCF820108A
:103A9000016851E8001F026821F4D07142E8001368
:103AA000BBB3016851E8001F026821F4D07142E8FD
:103AB000001373B3016851E8001F026821F4D0714C
:103AC00042E800132BB3016851E8001F026821F49B
:103AD000D07142E80013002BDAD11AE0016851E8F6
:103AE000021F026821F0010142E80213DBB1016804
:103AF00051E8021F026821F0010142E8021393B16C
:103B0000016851E8021F026821F0010142E8021336
:103B10004BB1016851E8021F026821F0010142E83F
:103B20000213002BDAD12021816780217C222023FF
:103B300083504350002180F87410032010BD000012
:103B400082B042F22470C2F200000068C1690191A3
:103B5000818C00910168C90615D51021016242F6D9
:103B60002D00C2F20000007868B140F21000C2F2ED
:103B700000000121016040F21040C4F20100016820
:103B800041F00201016002B070470000FEE7000052
:103B90004EF60C50BFF34F8FCEF2000001680422A6
:103BA00001F4E061C0F2FA5211430160BFF34F8F9C
:103BB00000BF00BF00BF00BFFAE700004EF60C5088
:103BC000BFF34F8FCEF200000168042201F4E061E0
:103BD000C0F2FA5211430160BFF34F8F00BF00BF24
:103BE00000BF00BFFAE7000010B542F68C64C2F2D5
:103BF000000400202061E060A06060602060FCF7AD
:103C00000BFE2068B0F5165F0CD3FFE742F68C6020
:103C1000C2F20000006844F24121C0F20F01884264
:103C20001BD3FFE742F68C60C2F200004FF4E13193
:103C300001600021017141718171C1710172417294
:103C400081720122C272027341738273C173027462
:103C500042748174FCF70AFEFFE710BD8AB04EF68D
:103C60000C59CEF2000940F2000459F8041CC1F2CC
:103C7000000442F2000620464FF4C472C4F2020669
:103C8000FCF736FD49F8044C30684FF6FF0140F070
:103C900010003060D9F8000040F20C04084040F2F7
:103CA0000031C0F2FA510843C9F80000C2F2000422
:103CB000216844F6D350C1F26200A1FB00124FF01C
:103CC000FF3101EB92130022B2EB136F24D14EF2BD
:103CD0001007CEF200077B60F02389F81730072326
:103CE000BA603B60D9F80030C3F3022383F00707C2
:103CF000042F28BF0427033B38BF1346B9400922CD
:103D000022EA01019940090189F8171042F6EC6195
:103D1000C2F2000101220A7041F21405C4F2020548
:103D2000696842F6E86841F0010169606968C2F2B9
:103D3000000801F0010104910499A96841F0805143
:103D4000A960A96801F080510491049955F8101CEC
:103D500001F00C01042940F0048155F8141C55F8B9
:103D6000101C01F00C01082940F0ED8255F8101CE0
:103D700001F47411B1F5E81F02D0EFF3108172B6AF
:103D8000316811F0060F09D13168022262F3020195
:103D90003160316801F0070102290AD155F8101C81
:103DA00021F0F00145F8101C55F8141C890100F1B0
:103DB000FD82EFF3108072B6E869102120F0030055
:103DC000E861E869002420F44020E861A86940F235
:103DD000004961F30810A86108942868C4F6000936
:103DE00040F40020286028682F4600F40020099045
:103DF000099828684EF2074B40F480002860286834
:103E000040F2084A00F480000990099828680326C7
:103E100040F4003028602868CEF2000B00F4003037
:103E2000099009982868C4F2010A40F480202860AB
:103E3000286804AD00F48020099009984FF40050E0
:103E4000C9F8280004900120CDE905044846294618
:103E50000796FCF7E7FE4FF46040CDE9040609F54C
:103E6000806029460694FCF7DDFE49F6C110CDE9D5
:103E700004064FF0904029460694FCF7D3FE4DF619
:103E8000F030CDE90406484629460694FCF7CAFE00
:103E90005AF8080C4EF2100140F002004AF8080CE3
:103EA0005AF8040CCEF2000140F002004AF8040C6B
:103EB000B0208BF800008020C1F8F000386842F292
:103EC0004C6340F0010038603868C2F2000300F033
:103ED0000100049004984EF60C50CEF200000068E9
:103EE0004FF400408BF80840C1F8F00040F2004069
:103EF000C4F2000000F5E0401860187928BB41F2D8
:103F000014015C71CDE90744C4F20201886840F0F5
:103F100000508860886800F000500990099808688F
:103F200040F400300860086804A900F400300990EB
:103F300009981020CDE904064FF090400694FCF754
:103F400071FE42F24C63C2F200030220012118719B
:103F50001C6119715979012946D1EFF3108072B6AD
:103F600051E055F8101C01F00C01082904D155F856
:103F7000101CC9033FF5F1AE55F8141C41F4803113
:103F800045F8141CA96921F00F01A961D8F80010A7
:103F900055F8142C92033FF5E2AED8F80020521ADF
:103FA000642A3FF6EAAE55F8142C92033FF5D7AEDB
:103FB000D8F80020521A642A3FF6DFAE55F8142CC8
:103FC00092033FF5CCAED8F80020521A642A3FF68F
:103FD000D4AE55F8142C92033FF5C1AED8F80020AA
:103FE000521A642AD4D9C8E61871186840F6FE72CD
:103FF000016891430160016821F0C0010160012066
:1040000018710020587140F20844C4F2010442F2D1
:104010001C69A4F57B71C2F2000940220020C9E9A5
:10402000001209F1080142F603034FF4004789C169
:10403000C9E90500C9E90700C9F8240099F8291061
:1040400041F21406C4F20206C90662D4716841F056
:1040500001017160716801F0010104910499CDE9D9
:104060000700316841F400313160316801F40031FA
:1040700009910999022104910321CDE9051004A9B0
:104080004FF09040FCF7CEFD99F82900002804BFBE
:10409000002089F828000020049099E80F000768A4
:1040A0000497049F27F0700739430491049921F085
:1040B0008201114304910499D9F8182021F4402178
:1040C0001143049104999A0A62F38D210491049991
:1040D000D9F8102021F40041114304910499D9F832
:1040E000142021F44031114304910499D9F81C2083
:1040F00021F00C01114304910499D9F8202021F4F6
:1041000000711143049104990160012089F829008C
:1041100002E0EFF3108072B642F2A465A4F5747069
:10412000C2F2000500210422202385E80B00C5E926
:104130000321696295F83200052804D095F8320011
:10414000022840F06F82EFF3108072B642F2D86717
:1041500040F20043C2F200070420C4F20003002131
:104160004FF6FF72C7E900308020C7E902123961BB
:10417000B86197F83D00002818461DD187F83C101B
:10418000B06840F00200B060B06800F00200049037
:1041900004984EF60C50CEF2000000684EF2074034
:1041A000CEF2000081754EF210014FF00050CEF2B9
:1041B0000001C1F8F00038683D1D40F2880A022471
:1041C0002946CFF6FE7A87F83D40FDF789F80120B1
:1041D00087F8480087F83E0087F83F0087F84000DE
:1041E00087F8410087F8420087F8430087F84400C9
:1041F00087F8450087F8460087F8470087F83D00B4
:1042000097F83C10012903D1EFF3108072B60BE050
:1042100087F83D4039688A6802EA0A028A6087F8AE
:104220003D00002087F83C0097F83D00022400285C
:1042300004BF002087F83C0087F83D4038682946D5
:10424000FDF74EF8012087F8480087F83E0087F810
:104250003F0087F8400087F8410087F8420087F860
:10426000430087F8440087F8450087F8460087F840
:10427000470087F83D0097F83C1043F2004542F6AE
:10428000FF3C0129C4F20105C4F2010C1AD1EFF37D
:10429000108072B697F83C00012836D1EFF31080F9
:1042A00072B697F83C00012840F07982EFF3108055
:1042B00072B697F83C00012840F0F286EFF31080C8
:1042C00072B627E187F83D4039680AF57F438A686E
:1042D0001A4042F054028A600A6A0B6A22F00A020B
:1042E00023F001030B628B6923F0F0038B610A62F8
:1042F000CA6822F04002CA60CA6822F48042CA60DA
:1043000087F83D00002087F83C003868016A604566
:1043100021F0010101628269016A00F38680B0F137
:10432000804F00F0908040F20043C4F200039842B6
:1043300000F0898040F60003C4F20003984208BFF1
:1043400022F0030281E06021C4F2422100220A60CF
:10435000D8F8002055F8143C9B0140F1AD81D8F805
:1043600000309B1A022B3FF608AD55F8143C9B0118
:1043700040F1A281D8F800309B1A022B3FF6FDAC29
:1043800055F8143C9B0140F19781D8F800309B1AF6
:10439000022B3FF6F2AC55F8143C9B0140F18C81A6
:1043A000D8F800309B1A022BD4D9E6E455F8101C3B
:1043B000022262F3010145F8101CD8F8001041F206
:1043C000883255F8103C03F00C03082B00F0AD8147
:1043D000D8F800305B1A93423FF6EBAC55F8103C2E
:1043E00003F00C03082B00F0A081D8F800305B1A12
:1043F00093423FF6DEAC55F8103C03F00C03082B5B
:1044000000F09381D8F800305B1A93423FF6D1ACAC
:1044100055F8103C03F00C03082B00F08681D8F807
:1044200000305B1A9342CCD9C3E442F60043C4F295
:104430000103984207D044F20003C4F201039842FA
:1044400001D0A84201D122F0030242F0010222F081
:10445000F00221F00A0182610162816921F00C0100
:10446000816181698161002187F83C10016A21F036
:10447000100101628169026A21F4734142F0200255
:1044800001F5007122F0800281610262816921F4EC
:104490004061816181698161022187F83D10426834
:1044A0008168A84208D042F60043C4F20103984252
:1044B00008BF22F4700201E022F4700222F07002C0
:1044C000604542600FDCB0F1804F1AD040F20042EC
:1044D000C4F20002904214D040F60002C4F200027E
:1044E00090420ED010E042F60042C4F20102904227
:1044F00007D044F20002C4F20102904201D0A84267
:1045000002D121F080018160012087F83D00002068
:1045100087F83C0042F2CC55C2F20005002001228F
:104520004FF0A041C5E90A20EA61042285F8200085
:1045300085F83000C5E90010C5E90200C5E90402AC
:10454000288368630990296C0824C906C5F2000411
:1045500000F16881286C00284FF0000040F05C8179
:104560006864C5E9120085F83C00316841F080516B
:104570003160316801F08051049104992168C900CB
:1045800000F14A81206800F00300012805D14FF0B6
:10459000A0400068C00741F0F483286CC00600F119
:1045A0003A81286C41F20211884302302864206865
:1045B0004DF6836120F0405020602068C4F21B312A
:1045C00040F08050206040F20C00C2F20000006811
:1045D000A0FB0101880C00EB8000400009900998C5
:1045E000002800F0188100BF099801380990099847
:1045F000002800F0108109980138099009980028D6
:1046000000F009810998013809900998002800F004
:104610000281099801380990099800284FF000009C
:10462000E2D1F9E0706840F001007060706800F05D
:1046300001000490049895F83200002804BF00207F
:1046400085F831000020CDE90700316841F40031E0
:104650003160316801F40031099109992C210491EC
:104660000321CDE9051004A94FF09040FCF7DAFAD8
:10467000D5F804C04CF02001602940F092802968F0
:1046800005F1200ED5E90323D5E906769EE8104A08
:10469000D1F800A043F61100CEF2000000EA0A00B3
:1046A0001043184338433043204340EA090040EAAE
:1046B000CB4040EA0E629AE055F8102C22F47412B6
:1046C00002F5E81245F8102C01220A60D8F8001013
:1046D00055F8142C92013FF553ABD8F80020521A2C
:1046E000022A3FF64AAB55F8142C92013FF548AB2D
:1046F000D8F80020521A022A3FF63FAB55F8142C86
:1047000092013FF53DABD8F80020521A022A3FF63D
:1047100034AB55F8142C92013FF532ABD8F8002099
:10472000521A022AD4D9FFF728BB316801F00701D9
:1047300003290AD33168022262F302013160316831
:1047400001F0070102297FF434AB55F8101C042254
:1047500062F30A2145F8101C55F8101C21F4605131
:1047600045F8101C55F8103C03F00C01082941F2E3
:104770000021C0F27A0140F0A08446F6CC27C3F3B2
:104780008342C0F60007BA5CAF69DB0300F18B849B
:1047900040F60011C0F23D01514300F08EBC386874
:1047A00064E6286929680390D5E90790D5E902AB4A
:1047B0000290D5E90576D5F824E0086843F61102A1
:1047C000CEF20002104040EA0A00039C40EA0B00CF
:1047D000204338433043029C40EA0900D5E90A23CC
:1047E000204340EA0E0040EAC24040EA036242EA47
:1047F0000C00086095F8320041F2140642F21C6980
:104800000028C4F20206C2F200097FF49FAC012026
:1048100085F832009AE400202168C90049D5216852
:10482000890046D4296C01F0100140184CD1206851
:10483000400749D4286C20F4817002302864206835
:1048400000F00300012804D14FF0A0400068C00729
:104850000FD1D4F8000100F00300012803D1D4F8EF
:10486000F800C00705D1D4F8000320F44030C4F8A4
:104870000003206810F00C0F04D1606844F20201BC
:104880008843606060684CF20701CFF6F071084021
:1048900000F580506060A06A012120F00F00A06246
:1048A00000206864286C61F3010028644FF0A04088
:1048B00014E0286C40F0100020F002002864686CBE
:1048C00040F001006864286C286C40F0100020F073
:1048D00002002864EFF3108072B6286800F13041BE
:1048E0004FEA3122052A04F1F801029124D80299F5
:1048F000DFE802F00F032222060D4FF0A04108E08E
:1049000040F20871C5F20001A1F5027101E004F561
:104910007E7195F83C20012A0ED0826852075CBF58
:104920008A685FEA427240F18383286C40F020007D
:104930002864002085F83C00EFF3108072B695F8EB
:104940003C0000210128049157D00121286885F8F6
:104950003C108168490749D4016B032262F38A1134
:104960000163816811F00C0F2DD14169062262F3B9
:104970004B214161C168016E01F0F841B1F1406F16
:1049800003D1016E21F000410166416E01F0F84152
:10499000B1F1406F03D1416E21F000414166816E5B
:1049A00001F0F841B1F1406F03D1816E21F0004177
:1049B0008166C16E01F0F841B1F1406F03D1C16E63
:1049C00021F00041C166816801F00301012902D193
:1049D0000168C90705D1D0F8B01021F00801C0F86E
:1049E000B0100020E24685F83C000AE0286C40F058
:1049F00020002864002085F83C00E246EFF3108098
:104A000072B640F20040C4F2000042F2A87500F510
:104A10008840C2F200054FF4613200210823C5E945
:104A20000002C5E9041331224FF4003305F1200CD4
:104A30008CE80E004FF480524FF40053C5E9021188
:104A4000C5E90611C5E90E23AA6F2AB9284685F8DB
:104A50007410FCF719FA28682421A967016821F06D
:104A6000010101602846FEF769FE002800F075820A
:104A7000EFF3108072B643F60005C4F20105FFF7AC
:104A8000B3F842F68C60C2F2000042F2247600686D
:104A9000C2F2000600210C22C6E900503020C6E90F
:104AA0000211C6E90412C6E90611C6E908104FF45E
:104AB00080504FF40051C6E90E01FCF783F910B1A4
:104AC000EFF3108072B6306842F260650168C2F29E
:104AD000000541F0100101602868016841F0020101
:104AE0000160FCF76BFA286842F2A4650168C2F223
:104AF000000521F004010160306842F2CC5B0168DE
:104B0000C2F2000B21F02001016095F83200D64678
:104B10000528A24600F0A98195F83200012840F04E
:104B2000A48128681022016841F002010160016837
:104B300041F480210160016841F400610160016875
:104B400041F440510160016841F0010101600168D8
:104B500062F31C610160D8F8001000BFD8F8002093
:104B6000521A022A0ED8D8F80020521A022A09D85E
:104B7000D8F80020521A022A04D8D8F80020521A75
:104B8000032AEBD30168026849004FF0180122F0B4
:104B9000F85258BF082142EA01620260D8F80020AA
:104BA000D8F800309B1A022B0ED8D8F800309B1A88
:104BB000022B09D8D8F800309B1A022B04D8D8F859
:104BC00000309B1A032BEBD3026852004FF0040213
:104BD00058BF6FF003020368114423F0F85242EA11
:104BE00001620260D8F80020D8F800309B1A022B2E
:104BF0000ED8D8F800309B1A022B09D8D8F800300C
:104C00009B1A022B04D8D8F800309B1A032BEBD345
:104C1000026852004FF0020258BF6FF001020368B1
:104C2000114423F0F85242EA01620260D8F80020F1
:104C3000D8F800309B1A022B0ED8D8F800309B1AF7
:104C4000022B09D8D8F800309B1A022B04D8D8F8C8
:104C500000309B1A032BEBD3026852004FF0010285
:104C600058BF4FF0FF320368114423F0F85242EA74
:104C700001620260D8F80020D8F800309B1A022B9D
:104C80000ED8D8F800309B1A022B09D8D8F800307B
:104C90009B1A022B04D8D8F800309B1A032BEBD3B5
:104CA0000268520006D50268013122F0F85242EA49
:104CB000016202600268012363F30D320260026840
:104CC000102363F3D7420260D8F80020D8F80030F0
:104CD0009B1A022B0ED8D8F800309B1A022B09D849
:104CE000D8F800309B1A022B04D8D8F800309B1A51
:104CF000032BEBD30268036852004FF0180223F431
:104D0000780358BF082243EAC2430360D8F8003052
:104D1000D8F80060F61A022E0ED8D8F80060F61AFD
:104D2000022E09D8D8F80060F61A022E04D8D8F856
:104D30000060F61A032EEBD303685B004FF0040308
:104D400058BF6FF0030306681A4426F4780343EA59
:104D5000C2430360D8F80030D8F80060F61A022E7B
:104D60000ED8D8F80060F61A022E09D8D8F80060DC
:104D7000F61A022E04D8D8F80060F61A032EEBD3E8
:104D800003685B004FF0020358BF6FF00103066831
:104D90001A4426F4780343EAC2430360D8F800308B
:104DA000D8F80060F61A022E0ED8D8F80060F61A6D
:104DB000022E09D8D8F80060F61A022E04D8D8F8C6
:104DC0000060F61A032EEBD303685B004FF001037B
:104DD00058BF4FF0FF3306681A4426F4780343EABD
:104DE000C2430360D8F80060D30400BFD8F8005075
:104DF000AD1B022D0ED8D8F80050AD1B022D09D8DE
:104E0000D8F80050AD1B022D04D8D8F80050AD1BC7
:104E1000032DEBD30668760007D50368013223F42F
:104E20007806D30446EAC2460660066842F2A465E4
:104E300026F4006606600668C2F2000526F0010648
:104E40000660066826F0020606604FF48026C5E973
:104E50000962E962026822F478021A430260026879
:104E600022F0F85242EA0161016095F8320005280B
:104E70000BD095F83200012807D12868016841F06D
:104E800001010160042085F83200D8F8000040F6E6
:104E9000B83140F6B93200BFD8F800301B1A8B4247
:104EA0000ED8D8F800301B1A8B4209D8D8F8003039
:104EB0001B1A8B4204D8D8F800301B1A9342EBD34C
:104EC00042F63000C2F200000021016042F6E460C8
:104ED000C2F20000016042F24C61C2F20001487966
:104EE000012801D10A6813E0022008710A681068DD
:104EF00040F001001060106800F03C003C2803D135
:104F0000506840F001005060012008710020487195
:104F1000002001920490049204984FF4BA71083072
:104F200004900498016099F82900C00600F14681B8
:104F300099F82900012840F04181D9F800004FF686
:104F4000E471CBF6FE7101444FEAB10105294FD25D
:104F50000FF6943252F8211054E0686A28B142F2F8
:104F6000A870C2F20000FCF73FFA2868416821F4FB
:104F700090414160816821F022018160816841F0A7
:104F800008018160016841F0010101600021C5F85C
:104F90008010D8F800600168090710D542F2A87B9C
:104FA000C2F2000B58464FF4001132466FF07E43B8
:104FB000FEF7F8FC00287FF45BADDBF8000000682A
:104FC00040070DD542F2A870C2F200004FF48001F4
:104FD00032466FF07E43FEF7E5FC00287FF448ADD3
:104FE0002020A867E8670020286685F8740042E55D
:104FF00040F20841C4F20101A1F57672022190420B
:1050000008BF0121D9F8246016F0300F00F0CF80DE
:1050100040F22842F306C4F201026FEA01034FEAAC
:10502000817531D4002D00F08F8014681C402FE072
:10503000029A04F54073904240F20872C5F20002F1
:1050400008BF1A46B0F1A04F08BF1A46136823F4F0
:1050500060431360836803F00303012B02D10068EF
:10506000C0070CD1886800F00300012802D108684D
:10507000C00704D1106840F61F71884310600020FB
:1050800085F83C00049060E4002D65D014680C4362
:105090001460B6066BD4002D74D05668334069E0B6
:1050A0003868FFF7F9B907F00F0346F6DC27C0F6BA
:1050B0000007FB5CB1FBF3F1514355F8102C0FF6E0
:1050C0001053C2F303129A5C4FF0FF3721FA02F635
:1050D00042F6EC61C2F200010A78A6FB0003002A46
:1050E000104607EB93174FF0000318BF0920B3EBEE
:1050F000176F26607EF460AE4EF21006CEF2000608
:105100007760F02789F81770B3600723002A3360AF
:105110003EF452AED9F800204FF0FF37C2F302221E
:1051200082F00703042B28BF042307FA03F3033A92
:1051300020EA030038BF00229040000189F81700E0
:1051400001200870FEF738BE40F2084CC4F2010C92
:10515000DCF800401C4006E040F2084CC4F2010CB0
:10516000DCF800400C43CCF80040B60693D585B17E
:1051700053680B43536040F20843C4F201031C33ED
:105180000C3210E040F20846C4F2010672681A4080
:1051900005E040F20846C4F2010672680A437260F4
:1051A000331F06F10C021E680E431E601160016879
:1051B00041F001010160022089F8290097F83E10B2
:1051C00097F84400012908BF012800F04A8297F8A7
:1051D0003F1097F84500012908BF012800F06582BB
:1051E0009BF83C00DBF8001001284FF0010528D0A7
:1051F00001208BF83C00886800F00300012803D1EF
:105200000868C00740F0F1820120CBF840008868B0
:1052100020F080408860886840F000408860D8F8BE
:1052200000008A68B2F1FF3F40F3E281584650F82F
:10523000402F22F0030242F00102026000258BF8A9
:105240003C50029840F208748142C5F200040AF50D
:105250004076A4F53F7208BF3446B1F1A04F08BFB5
:105260003446814208BF0AF10402039244F23F220D
:1052700001F10C0AC0F20F02AE464FF000091AE02D
:1052800043F020030BF14407CBF840303B6843F078
:1052900001033B605FEA4C4358BF0860086C09F1AA
:1052A0000109904238BF024649F2DF30C0F20400E3
:1052B000814500F051818868400700F1BD80BEF152
:1052C000010F03D14FF0010EB6E000BF01208BF8B3
:1052D0003C00886800F00300012802D10868C0077C
:1052E0002AD188683F23C8F20003184211D0DBF8A6
:1052F0004000002540F01000CBF84000DBF84400EF
:105300004FF0000E40F00100CBF844008BF83C5009
:1053100092E0886840F001008860D8F8000000BF83
:105320000B68DB0708D1D8F800301B1A032BF7D322
:105330000B68DB07F4D1DAE7DBF8400040F60173D5
:10534000984300F5807040F20013CBF8400041F420
:105350008070C5F20003984233461CBF40F20873C8
:10536000C5F200031B68DB0608D040F2004741F499
:105370008063C5F20007BB4240F0D680DBF84030C6
:1053800023F48013CBF84030CB689B0106D5DBF8C3
:105390004030012767F30D33CBF84030DBF8403065
:1053A000DB0446BFDBF8443023F006070027002368
:1053B000CBF844708BF83C301C230B6040F2001398
:1053C000C5F20003984233461CBF40F20873C5F291
:1053D00000031B68DB0627D040F20013C5F2000370
:1053E000984233461CBF40F20873C5F200031B68A5
:1053F00003F01F03052B17D040F20013C5F2000382
:10540000984230461CBF40F20870C5F200000068A8
:1054100000F01F00092807D040F2004341F48060EB
:10542000C5F20003984203D1886840F00400886008
:1054300000254FF0000E00BFDBF81400082801D152
:1054400008200FE02068C00608D0206810F4404F04
:1054500007D0DBF8400040F0200037E0C868C00704
:10546000F7D10C2040F2001741F48073C5F2000719
:10547000BB4233461CBF40F20873C5F200031B68F1
:10548000DB06534609D040F2004741F48063C5F281
:105490000007BB42534618BF039BD3F800C0D8F89F
:1054A00000B000BF0B68034218D1D8F80030A3EB5E
:1054B0000B03652BF6D30B680342F3D142F2CC5BAE
:1054C000C2F2000BDBF8400040F004000025CBF8EE
:1054D00040008BF83C504FF0000EDFE642F2CC5B10
:1054E000C2F2000BDBF840300CF4005743F40073B9
:1054F000CBF84030CB6803F44063DB197FF4CAAECD
:105500000B681B077FF5C6AE8F68DBF840307F075E
:105510003FF5B6AE23F480735F4647F8403F3B68E3
:10552000DB047FF5B3AEB5E6DBF84030029F43F411
:105530008013B942CBF8403009D040F208734FF6DF
:105540000457C5F20003CFF6FF77DB591DE70823A8
:10555000C5F200035B6818E74EF60C5A41F21404DA
:1055600042F22476012DCEF2000AC4F20204C2F205
:10557000000600F0858101208BF83C00886810F05F
:105580000C0F00F02381C8689BF819309BF8187045
:1055900083F0010387F001073B43B3FA83F300F084
:1055A00000705B0903EA5063012B40F0E880086853
:1055B000400614D449F20440C0F20900043800F057
:1055C00050810F687F065CBF0F685FEA476706D4AB
:1055D0000F687F065CBF0F685FEA4767EED5402023
:1055E00008600420CCE000BF8A68002A7FF51EAE68
:1055F000D8F80020121A0B2A03D38A68B2F1FF3FB1
:1056000026DD8A68B2F1FF3F3FF710AED8F80020E0
:10561000121A0B2A02D38A68002A19D48A68B2F1B6
:10562000FF3F3FF703AED8F80020121A0B2A02D32F
:105630008A68002A0CD48A68B2F1FF3F3FF7F6ADC2
:10564000D8F80020121A0B2ACED38A68002ACBD5AC
:10565000DBF8400040F0100020F00200CBF84000E2
:10566000ECE5022087F83E0087F844003868C168FE
:10567000704541F00201C160016A21F0010101623F
:10568000016A41F00101016233DCB0F1804F42D088
:1056900040F20041C4F2000188423CD040F60001D3
:1056A000C4F20001884236D041E0022087F83F0072
:1056B00087F845003868C168704541F00401C16051
:1056C000016A21F010010162016A41F010010162DA
:1056D00032DCB0F1804F41D040F20041C4F2000111
:1056E00088423BD040F60001C4F20001884235D028
:1056F00040E042F60041C4F2010188420BD044F27E
:105700000001C4F20101884205D043F20041C4F215
:10571000010188420BD181680722C0F201021140C9
:1057200006293FF454ADB1F5803F3FF450AD016818
:1057300041F0010101604AE542F60041C4F2010175
:1057400088420BD044F20001C4F20101884205D026
:1057500043F20041C4F2010188420BD18168072263
:10576000C0F20102114006293FF43AADB1F5803F85
:105770003FF436AD016841F00101016030E50C20D5
:105780008F687F0706D58F68BF0703D48F6847F0FF
:1057900010078F600BB1042009E08B681B0706D54A
:1057A0008B689B0703D48B6843F020038B60D8F889
:1057B000003000BF8F68074208D0D8F80070FF1A89
:1057C0000C2FF7D38F680742F4D04AE0886800F0C6
:1057D0000300012802D10868C00729D1584650F8B3
:1057E000403F41F20117BB4344E0886800F00D00E0
:1057F000012813D1886840F0020088600320086007
:10580000D8F800008A68D2073FF4FEACD8F8002030
:10581000121A032AF6D38A68D207F3D0DBF84000C5
:1058200040F01000CBF84000584650F8442F02E5F5
:10583000886800F00D00012813D1886840F002004C
:10584000886003200860D8F8000000BF8B68DB0781
:10585000C4D0D8F800301B1A032BF7D38B68DB07B2
:10586000F4D0DBF8400040F01000CBF84000584680
:1058700050F8443F43F00103036000208BF83C00E4
:10588000B1F1A04F03D1206820F0805020600021AA
:105890000491019800EE102A04900498B8EE400A92
:1058A0000830B7EE0C1A049020EE010A0498BCEE02
:1058B000C00A80ED000A42F62050C2F2000042F613
:1058C0002C090160C2F20009012189F80010D8F802
:1058D000001040F2DC5240F2DD5300BFD8F80070F7
:1058E0007F1A97420ED8D8F800707F1A974209D8CD
:1058F000D8F800707F1A974204D8D8F800707F1A41
:105900009F42EBD30168062911D140F20000C2F298
:1059100000000621016040F20800C2F200000160B0
:1059200040F20400C2F200001321016009E20068A5
:10593000052811D140F20000C2F2000005210160EB
:1059400040F20800C2F20000016040F20400C2F21E
:10595000000016210160F4E13168B26FF06F8B68CE
:105960001B066FD5212A6DD1316851E8021F3268BC
:1059700021F0800142E80213DBB1316851E8021FD7
:10598000326821F0800142E8021393B1316851E896
:10599000021F326821F0800142E802134BB13168E6
:1059A00051E8021F326821F0800142E80213002B07
:1059B000DAD1F16EF1B191F82120022A11D10A68F1
:1059C000D1E90F37156825F00E051560156825F02B
:1059D000010515600122BA405A604FF480720A84B2
:1059E00008E004228A63002281F82020F16E896B8E
:1059F000202975D0316851E8001F326821F0C001BC
:105A000042E80013DBB1316851E8001F326821F031
:105A1000C00142E8001393B1316851E8001F3268B9
:105A200021F0C00142E800134BB1316851E8001F7A
:105A3000326821F0C00142E80013002BDAD12021A6
:105A4000B16731688968490640F1D080222840F06A
:105A5000CD8000BF306850E8020F316820F0400070
:105A600041E80202DAB1306850E8020F316820F0F4
:105A7000400041E8020292B1306850E8020F3168FC
:105A800020F0400041E802024AB1306850E8020FBD
:105A9000316820F0400041E80202002ADAD1306F7C
:105AA00060B390F82110022911D10168D0E90F23C9
:105AB0000F6827F00E070F600F6827F001070F60CF
:105AC0000121994051604FF48071018416E0042156
:105AD0008163002180F82010306F806B20280DD169
