:020000040800F2
:10000000F8740020A1020008AD140008791400085B
:10001000A9140008E9070008253C000800000000BA
:10002000000000000000000000000000B5140008FF
:10003000ED07000800000000B114000801030010E3
:10004000BB020008BB020008BB020008BB0200089C
:10005000BB020008BB020008BB020008C903001075
:10006000BB020008BB020008BB020008BB0200087C
:10007000BB020008BB020008BB020008110300100D
:10008000BB020008BB020008BB020008BB0200085C
:10009000BB020008BB020008BB020008BB0200084C
:1000A000BB020008BB020008BB020008BB0200083C
:1000B000BB020008B9040010BB020008BB02000824
:1000C000BB020008BB020008BB020008BB0200081C
:1000D000BB020008D93B0008BB020008BB020008B5
:1000E000BB020008BB020008BB020008BB020008FC
:1000F000BB020008BB020008BB020008BB020008EC
:10010000000000000000000000000000BB0200082A
:10011000BB020008BB020008BB020008BB020008CB
:10012000BB020008BB020008BB020008BB020008BB
:10013000BB020008BB020008000000000000000035
:10014000BB020008BB020008BB0200080000000060
:10015000000000000000000000000000000000009F
:100160000000000000000000BB020008BB02000805
:10017000BB020008000000000000000000000000BA
:1001800000000000BB02000800F002F800F078F860
:1001900014A696E8000CB244B344DA4501D100F04D
:1001A0006FF8BAE80F000FA696E83000A5EB04053B
:1001B00004EB0607AAEB0704A7F101074FEA1515A0
:1001C0004FEA3414A4F10104AC4201D300F058F812
:1001D00013F0010F18BFFB1A43F0010300F001F800
:1001E000DBE71847EC6E00002C6F00000A4410F8A3
:1001F000014B14F00F0508BF10F8015B240908BF7C
:1002000010F8014B6D1E05D010F8013B6D1E01F872
:10021000013BF9D1641E03D0641E01F8015BFBD1E0
:100220009142E4D370470000103A24BF78C878C1E7
:10023000FAD8520724BF30C830C144BF04680C60EC
:1002400070470000704700000023002400250026AE
:10025000103A28BF78C1FBD8520728BF30C148BF29
:100260000B607047692900F0AD80732900F0BD81F3
:10027000002070471FB505F05EFE1FBD10B510BD14
:1002800000F0B7F91146FFF7F5FF03F0E3FC00F0CB
:10029000D5F903B4FFF7F2FF03BC00F0DDF900006D
:1002A0000948804709480047FEE7FEE7FEE7FEE70A
:1002B000FEE7FEE7FEE7FEE7FEE7FEE70448054946
:1002C000054A064B70470000B91400088901000870
:1002D000F86E0020F8740020F8700020F8700020FC
:1002E0000FB41CB5074B06AA7B44694600900598DD
:1002F00000F051F90020694600F060F91CBC5DF87F
:1003000014FB0000D10200002DE9F0410E46044626
:10031000002020622046E168884730B3252805D0B8
:10032000D4E901219047206A401CF2E7E1682046A9
:1003300000278847050018D0A5F14100192802D8E8
:1003400020354FF400673246294620462760FFF7E4
:1003500089FF40B1012804D0F61D26F007060836B3
:10036000D8E7361DD6E72846DAE7206ABDE8F081EF
:1003700070B50C460546012A05D02878800600D5C0
:10038000EA69002302E0012305E05B1C934202D2EC
:10039000E05C0028F9D1A869E618C01AA861286AAB
:1003A000184428622846AFF3008004E0D5E9012113
:1003B00014F8010B9047B442F8D32846AFF30080FD
:1003C00070BD00002DE9F041064600241068752933
:1003D000314616A510D0AFF30080002802DA404263
:1003E00013A507E031688A0701D512A502E0490785
:1003F00004D511A5012401E0AFF3008000210A22F9
:1004000006F1240709E0B0FBF2FCB0FBF2F302FBBB
:100410001C00303078541846491C0028F3D123467C
:100420002A463046BDE8F04100F056B80000000012
:100430002D0000002B0000002000000040EA010316
:1004400010B59B070FD1042A0DD310C808C9121F7D
:100450009C42F8D020BA19BA884201D9012010BDB7
:100460004FF0FF3010BD1AB1D30703D0521C07E084
:10047000002010BD10F8013B11F8014B1B1B07D1E8
:1004800010F8013B11F8014B1B1B01D1921EF1D159
:10049000184610BD10B5431C02E010F8011B71B1E5
:1004A0008107FAD14FF0013202C88C1A8C4314EA4A
:1004B000C211F9D0C01A0A0603D0C01E10BDC01A5E
:1004C00010BD0A0401D0801E10BD0902FCD0401EE0
:1004D00010BD7047704770472DE9F0470D469946AB
:1004E0009246044600F124080168880604D5E069B4
:1004F00021F01001216000E00120A84201DD471B2E
:1005000000E00027A1697A1902EB0900081AA0612E
:100510002078C00602D42046AFF30080002608E011
:10052000D4E901211AF806009047206A401C761C85
:1005300020624E45F4DB2078C0060AD52046AFF392
:10054000008006E0D4E9012130209047206A401C59
:100550002062381EA7F10107F4DC07E0D4E901218D
:1005600018F805009047206A401C2062281EA5F15B
:100570000105F3DC2046AFF300802078000602D5A9
:100580000220BDE8F0870120FBE7000001694A1C5A
:1005900002610878704700B58FB0CDE901310021C4
:1005A000059105497944CDE9031011466846FFF7E6
:1005B000ABFE0FB000BD0000E5FFFFFF0A6802F8C8
:1005C000010B0A60704710B5436913B1AFF30080A7
:1005D00001E0FFF7CDFE012010BD127800F12401EB
:1005E0000A7000224A700122EDE711684FF0FF32D5
:1005F000E9E7754600F02CF8AE460500694653461B
:1006000020F00700854618B020B5FFF757FEBDE87B
:1006100020404FF000064FF000074FF000084FF069
:10062000000BAC46ACE8C009ACE8C009ACE8C009B6
:10063000ACE8C00921F007018D46704710B50446AB
:10064000AFF300802046BDE81040FFF722BE000057
:10065000004870471800002001491820ABBEFEE793
:10066000260002007047032A40F2308010F0030C8D
:1006700000F0158011F8013BBCF1020F624498BFF5
:1006800011F801CB00F8013B38BF11F8013BA2F192
:10069000040298BF00F801CB38BF00F8013B11F00D
:1006A000030300F02580083AC0F0088051F8043BAD
:1006B000083A51F804CBA0E80810F5E7121D5CBF1A
:1006C00051F8043B40F8043BAFF30080D20724BF4D
:1006D00011F8013B11F801CB48BF11F8012B24BFE1
:1006E00000F8013B00F801CB48BF00F8012B704730
:1006F00010B5203AC0F00B80B1E81850A0E81850AF
:10070000B1E81850A0E81850203ABFF4F5AF5FEAFE
:10071000027C24BFB1E81850A0E8185044BF18C9A3
:1007200018C0BDE810405FEA827C24BF51F8043B4A
:1007300040F8043B08BF7047D20728BF31F8023B9E
:1007400048BF11F8012B28BF20F8023B48BF00F832
:10075000012B70474FF000020429C0F0128010F006
:10076000030C00F01B80CCF1040CBCF1020F18BF8D
:1007700000F8012BA8BF20F8022BA1EB0C0100F020
:100780000DB85FEAC17C24BF00F8012B00F8012BF3
:1007900048BF00F8012B70474FF0000200B5134628
:1007A00094469646203922BFA0E80C50A0E80C5091
:1007B000B1F12001BFF4F7AF090728BFA0E80C5042
:1007C00048BF0CC05DF804EB890028BF40F8042B3B
:1007D00008BF704748BF20F8022B11F0804F18BFA8
:1007E00000F8012B70470000FEE700007047000092
:1007F00070B542F21005C4F20205296848F6AB1044
:10080000090640F22311CCF6EF50C4F2675104D52B
:1008100045F80C1C45F80C0C2A6842F62852C2F226
:1008200000020023D3612A684FF60044C0F6010499
:1008300042F002022A606C602A6842F040022A609C
:100840002A6822F002022A602A6842F080022A60A6
:100850002A68120604D545F80C1C45F80C0C2868CB
:1008600046F69066C2F200063268204600F01CFA96
:100870007268201D002300F017FAB26804F1080026
:10088000002300F011FAF26804F10C00002300F0DC
:100890000BFA326904F11000002300F005FA286811
:1008A00040F08000286070BD10B542F2CC5EC2F20C
:1008B000000EDEF81400DEF8001040F2083C0828B4
:1008C000C5F2000C01D108221CE040F20870ACF522
:1008D0000272C5F20000914208BF6046B1F1A04F1C
:1008E00008BF60460268D20608D0006810F4404F86
:1008F00007D0DEF8400040F020003BE0C868C007A9
:10090000F7D10C2240F2001341F48070C5F20003CD
:1009100098421ABF40F20870C5F2000060460068B5
:10092000C00607D040F2004341F48060C5F20003E6
:10093000984202D101F10C0007E0ACF502730CF50E
:100940008270994208BFACF53F7046F6EC63C2F284
:100950000003D0F800C018680C68144210D11C685D
:10096000241A652CF8D30C681442F5D1DEF8400047
:1009700040F00400CEF8400000208EF83C0010BD8E
:10098000DEF840000CF4005340F40070CEF8400054
:10099000C86800F44060C0181CD10868000719D569
:1009A0008B68DEF840005B0708D420F480704EF8B6
:1009B000400FDEF80000C00406D50BE040F0200038
:1009C000CEF840000EF1440EDEF8000040F00100C9
:1009D000CEF800005FEA4C4058BF0A6010BD00002E
:1009E000B0B542F2CC51C2F20001086882685207E9
:1009F00000F19F8091F83C20012A00F09A808268E3
:100A000002F00302012A02D10268D20725D18268CE
:100A10003F23C8F200031A420BD0086C40F01000CC
:100A20000864486C40F001004864002081F83C00F4
:100A3000B0BD826842F00102826046F6EC62C2F20A
:100A4000000213680468E40707D11468E41A032C51
:100A5000F8D30468E407F5D1DFE70A6C40F60173C8
:100A600040F208349A43C5F2000402F5807240F265
:100A7000001C0A6440F48075C5F2000C22466545EE
:100A80001CBF40F20872C5F200021268D20607D0FD
:100A900040F2004340F48062C5F200039A4249D11B
:100AA0000A6C22F480120A64C268920104D50A6CAE
:100AB000012363F30D320A640A6C4FF0000ED20476
:100AC0004FF0000244BF4A6C22F006024A6481F8EB
:100AD0003CE01C210160214665451CBF40F20871C5
:100AE000C5F200010968C9061FD0214665451CBF33
:100AF00040F20871C5F20001096801F01F010529E3
:100B000013D065451CBF40F20874C5F2000421688B
:100B100001F01F01092908D040F2004240F4806131
:100B2000C5F20002914218BFB0BD816841F00401D6
:100B30008160B0BD0A6CA4F5027342F48012984241
:100B40000A6402D0D4F80421AFE74FF60452CFF67E
:100B5000FF72A258A9E7000042F2CC5CC2F2000C7E
:100B60009CF83C00012808BF704780B50120DCF8E4
:100B700000108CF83C00886810F00C0F58D0C86842
:100B80009CF819209CF8183082F0010283F00103D0
:100B90001A43B2FA82F200F00070520902EA50637E
:100BA000012B1AD10868400613D449F20442C0F25E
:100BB0000902043A66D0086840065CBF08685FEA2C
:100BC000406006D4086840065CBF08685FEA406081
:100BD000EFD540200422086000E00C22886840071E
:100BE00006D58868800703D4886840F010008860C4
:100BF0000BB1042209E08868000706D588688007E1
:100C000003D4886840F02000886046F6EC6EC2F29B
:100C1000000EDEF8000000BF8B68134208D0DEF83B
:100C200000301B1A0C2BF7D38B681342F4D029E049
:100C3000886800F00300012802D10868C00706D1C7
:100C4000604650F8401F41F20112914323E088684A
:100C500000F00D00012815D1886846F6EC6240F0DE
:100C60000200886003200860C2F20002106800BF22
:100C70008B68DB07E4D013681B1A032BF8D38B684F
:100C8000DB07F5D0DCF8400040F01000CCF8400065
:100C9000604650F8441F41F00101016000208CF8CB
:100CA0003C00BDE88040704742F6285CC2F2000C70
:100CB0009CF81810012908BF7047B0B542F20C0328
:100CC000012146F6EC6EC4F202038CF81810C2F251
:100CD000000EDEF800101C68E40710D119688906C0
:100CE00044BF202119601968C9065CBF19685FEA12
:100CF00041713DD51868C00626D400202BE04CF287
:100D00005034DEF800506D1AA54200F289801D684B
:100D1000ED07E3D0DEF800506D1AA54200F28080A6
:100D20001D68ED07DAD0DEF800506D1AA54277D8BD
:100D30001D68ED07D2D0DEF800506D1AA5426FD8BD
:100D40001D68ED07DDD1C9E7DCF81C0040F00200AA
:100D5000CCF81C0010201968490707D5DCF81C10D6
:100D600040F0040041F00101CCF81C10186057E07D
:100D70000021CCF81C10596841F001015960028033
:100D8000DEF800101C68E40710D11968890644BF1A
:100D9000202119601968C9065CBF19685FEA4171B2
:100DA00044D51868C00624D4002029E04CF2503401
:100DB000DEF800506D1AA5422ED81D68ED07E4D06C
:100DC000DEF800506D1AA54226D81D68ED07DCD06C
:100DD000DEF800506D1AA5421ED81D68ED07D4D06C
:100DE000DEF800506D1AA54216D81D68ED07DFD158
:100DF000CBE7DCF81C0040F00200CCF81C0010200F
:100E00001968490707D5DCF81C1040F0040041F0D0
:100E10000101CCF81C101860586820F001005860DF
:100E200000208CF81800BDE8B04070475968120CDB
:100E300021F0010159600021CCF81C10596841F0E3
:100E4000010159604280DEF800001968C9070CD121
:100E50001868800644BF202018601868C0065CBF70
:100E600018685FEA40709CD4D6E74CF25031DEF847
:100E70000020121A8A42CFD81A68D207E8D0DEF8CA
:100E80000020121A8A42C7D81A68D207E0D0DEF8CA
:100E90000020121A8A42BFD81A68D207D8D0DEF8CA
:100EA0000020121A8A42B7D81A68D207DFD1CFE7DA
:100EB0002DE9F04F83B00D68002D00F0C58000F1E2
:100EC000200241F2000C009200F13847C4F6000CF9
:100ED00005224FEAB726604508BF0422042E38BF1A
:100EE0004FEAB722002600274FF00108019209E0DF
:100EF0000D68043735FA08F208F1010806F1020618
:100F000000F0A280A8F1010A012202FA0AFE15EA05
:100F10000E09EDD0D1F804B003220BF003056C1ECE
:100F2000B240012C6FEA020C10D88268CC6802EA49
:100F30000C02B440224382604268CBF3001422EAE0
:100F40000E0204FA0AF42243426003E0032D01D1A9
:100F500003251EE0C2688C6802EA0C02B4402243FA
:100F6000022DC26015D16FF0030202EA5A0B009AFB
:100F700007F01C0452F80BE00F230D69A3402EEA82
:100F80000303A5402B4342F80B30D1F804B00BF01B
:100F90000305026805FA06F302EA0C021A431BF481
:100FA000403F0260A4D041F21803C4F202031A6861
:100FB00040F2004C42F001021A601A68C4F2010CBF
:100FC00002F001020292029A2AF003024FF6084E42
:100FD0006244CFF6FF7E52F80E3007F00C050F2466
:100FE000AC40A343019C04FA05F52B4342F80E30B4
:100FF000DCF800204B6842EA0905DC0358BF22EA0E
:101000000905CCF80050DCF804209C0342EA0905ED
:1010100058BF22EA0905CCF80450DCF80820DC02AD
:1010200042EA090540F20C4458BF22EA0905CCF80F
:101030000850C4F2010422689B0242EA090558BF25
:1010400022EA0905256053E703B0BDE8F08F0000F0
:10105000B0B586B0026844F60003C4F20003002174
:101060009A42CDE90411CDE90211019160D043F615
:101070000001C4F201018A4240F0818041F2140172
:10108000C4F202014A68002442F480424A604A687D
:10109000054602F480420092009A0A684FF09040A0
:1010A00042F400320A60096801F4003100910099AD
:1010B0004FF4C061019102210291032104910721A3
:1010C000059101A90394FFF7F3FE42F260605821F5
:1010D000C2F20000C4F2020180224FF0200CC0E9ED
:1010E0000014C0E90242C0E90444C0E906C40A6829
:1010F0000A2363F30D1241F858291022C0E90F1298
:101100004FF4807184630184286745624EF60C5069
:10111000CEF2000000684EF22540CEF200000470CE
:101120004EF20410CEF20000C0F800C006B0B0BD10
:1011300041F21400C4F20200826842F4802282600C
:10114000826802F480220092009A026842F48022AF
:101150000260006800F48020009000984FF48060E6
:1011600001900220CDE902010320049007200590A0
:1011700040F20040C4F6000001A9FFF799FE06B056
:10118000B0BD000042F22470C2F20000C16F2029FD
:1011900040F0188190F87410012908BF7047F0B52D
:1011A00001214FF0000C80F87410C0F860C0016895
:1011B0004968090200F1CE8042F2CC114FF48062FE
:1011C000C2F20001A0F8582022224165C0F880C078
:1011D000C267026F002A44D041F6410343F2CD7446
:1011E000C0F60003C0F60004C2E90A3492F82030C9
:1011F00041F2BD65C0F600050026012B156356635C
:1012000000F0D78092F82130D0F800C04FF0010EE6
:10121000012B82F820E040F0C980022382F82130BF
:1012200000239363D2E90037D2E90F251E680CF141
:10123000240426F001061E600EFA05F656604FF4EF
:1012400080625A602246102F04BF0A4621469A60E7
:10125000D960196841F00E011960196841F0010167
:101260001960002180F87410016851E8001F0268BD
:1012700041F4807142E80013E3B1016851E8001FB6
:10128000026841F4807142E800139BB1016851E8A3
:10129000001F026841F4807142E8001353B10168F5
:1012A00051E8001F026841F4807142E80013002BEE
:1012B000DAD100BF016851E8021F026841F0010164
:1012C00042E80213D3B3016851E8021F026841F0FB
:1012D000010142E802138BB3016851E8021F026862
:1012E00041F0010142E8021343B3016851E8021FD3
:1012F000026841F0010142E80213002BDAD11DE03F
:10130000016851E8021F026841F0400142E80213FF
:10131000002B55D0016851E8021F026841F04001DE
:1013200042E80213002B4BD0016851E8021F02680B
:1013300041F0400142E80213002B41D0016851E81E
:10134000021F026841F0400142E80213002BD7D18E
:1013500036E000BF016851E8001F036841F080617A
:1013600043E80012002A3FF427AF016851E8001F4C
:10137000026841F0806142E80013002B3FF41CAF8B
:10138000016851E8001F026841F0806142E80013E3
:10139000002B3FF411AF016851E8001F026841F0D3
:1013A000806142E80013002BD4D105E7002182F8C8
:1013B00020101021C0F88010202180F87460C167CF
:1013C000BDE8F04070470000F0B581B00446806F82
:1013D000202804D10D46002918BF002A01D101B0F0
:1013E000F0BD94F874000128F9D00020C4F8800002
:1013F0002120A06746F6EC60C2F200000668A4F85F
:101400005020A4F85220A068B0F5805F01D1206977
:1014100080B32F460025002084F8740008E000BF48
:1014200017F8011B0185B4F852000138A4F85200E6
:10143000B4F8520088B12046802132464FF47A73C6
:1014400002F0FCFA0028CAD12068002FE8D135F854
:10145000021B00276FF35F21E4E72046402132465C
:101460004FF47A7302F0EAFA002804BF2020A06744
:1014700001B0F0BD0027CEE746F6EC60C2F20000F6
:10148000016800BF0268521A012AF9D80268521A8C
:10149000012AF5D80268521A012AF1D80268521AB4
:1014A000012A88BF0168EDE7FEE70000FEE70000C3
:1014B00070470000704700004EF68850CEF20000E2
:1014C000016841F4700101607047000040F2FF7C48
:1014D0000268C4F2000C604512DD40F60003C4F25D
:1014E0000003984215D043F20043C4F2010398422E
:1014F0000FD042F60043C4F20103984209D00CE039
:10150000B0F1804F05D040F20043C4F2000398428E
:1015100003D14B6822F070021A4343F2FF33C4F246
:10152000010398420BDC604518DCB0F1804F2AD0F3
:1015300040F20043C4F20003984224D027E044F272
:10154000FF33C4F20103984211DC43F20043C4F2BA
:101550000103984217D044F2000310E040F6000364
:10156000C4F2000398420ED042F6004307E044F66E
:101570000003C4F20103984205D044F20043C4F2D0
:101580000103984203D1CB6822F440721A4380B51C
:101590004B6922F0800E8A6843EA0E03D1F800C03E
:1015A0000360C262A0F18042A2F596324FEAB222F5
:1015B000072AC0F828C0BDE8804007D8012303FAF5
:1015C00002F212F0E50F1CBF0969016301214161BC
:1015D00070470000416ACA070CD18A0715D44A0730
:1015E0001ED40A0727D4CA0630D48A0639D44A063C
:1015F00042D457E00268D0F828C0536823F400337F
:1016000043EA0C0353608A07E9D50268D0F82CC07E
:10161000536823F4803343EA0C0353604A07E0D550
:101620000268D0F830C0536823F4802343EA0C03E7
:1016300053600A07D7D50268D0F834C0536823F442
:10164000004343EA0C035360CA06CED50268D0F8C3
:1016500038C0936823F4805343EA0C0393608A06EE
:10166000C5D50268D0F83CC0936823F4005343EA20
:101670000C0393604A0615D5D0F800C0036CDCF863
:101680000420B3F5801F22F4801242EA0302CCF852
:10169000042007D1DCF80420436C22F4C0021A4372
:1016A000CCF80420090658BF70470168806C4A686E
:1016B00022F400221043486070470000406A02682C
:1016C000836FD0F87CC0916809062DD5212B2BD1D2
:1016D0000021A0F8521000BF016851E8001F026805
:1016E00021F0C00142E80013DBB1016851E8001F9E
:1016F000026821F0C00142E8001393B1016851E88B
:10170000001F026821F0C00142E800134BB10168DC
:1017100051E8001F026821F0C00142E80013002BCD
:10172000DAD12021816702689168490640F17E8004
:10173000BCF1220F7AD10021A0F85A10016851E8BB
:10174000001F026821F4907142E80013BBB30168E6
:1017500051E8001F026821F4907142E8001373B34E
:10176000016851E8001F026821F4907142E80013FB
:101770002BB3016851E8001F026821F4907142E820
:101780000013002BDAD11AE0016851E8021F026849
:1017900021F0010142E80213DBB1016851E8021FA8
:1017A000026821F0010142E8021393B1016851E897
:1017B000021F026821F0010142E802134BB10168E7
:1017C00051E8021F026821F0010142E80213002BD8
:1017D000DAD1016E012924D1016851E8001F0268A5
:1017E00021F0100142E80013DBB1016851E8001F4D
:1017F000026821F0100142E8001393B1016851E83A
:10180000001F026821F0100142E800134BB101688B
:1018100051E8001F026821F0100142E80013002B7C
:10182000DAD12021C167002101664166D0F880101D
:1018300041F01001C0F88010704700000000000067
:101840002DE9F04F81B02DED088BB4B08169406A6D
:10185000202900F09E800021A0F85A10016851E86C
:10186000001F026821F4807142E80013E3B10168AF
:1018700051E8001F026821F4807142E800139BB117
:10188000016851E8001F026821F4807142E80013EA
:1018900053B1016851E8001F026821F4807142E8E9
:1018A0000013002BDAD100BF016851E8021F026863
:1018B00021F0010142E80213BBB3016851E8021FA5
:1018C000026821F0010142E8021373B3016851E894
:1018D000021F026821F0010142E802132BB30168E4
:1018E00051E8021F026821F0010142E80213002BB7
:1018F000DAD11AE0016851E8021F026821F04001C4
:1019000042E80213DBB1016851E8021F026821F0CE
:10191000400142E8021393B1016851E8021F0268D6
:1019200021F0400142E802134BB1016851E8021F67
:10193000026821F0400142E80213002BDAD1202195
:10194000C167016E012924D1016851E8001F0268B6
:1019500021F0100142E80013DBB1016851E8001FDB
:10196000026821F0100142E8001393B1016851E8C8
:10197000001F026821F0100142E800134BB101681A
:1019800051E8001F026821F0100142E80013002B0B
:10199000DAD1016E012901F00487006F40F27C0565
:1019A0000068C2F20005406840F210040390286805
:1019B0000399C2F2000488420FD140F28006C2F2BD
:1019C000000630680130306030680B2805D3FFF71F
:1019D000D9FB002030600390606003982860206885
:1019E00038B10398B0F5806F03D10020206001F07A
:1019F000D8BE61680020B0EB912F04BF6068C0F5CD
:101A000080600590206840B160680021B1EB902FA4
:101A10000BD160680399401A0AE00598C0F5806010
:101A200004904FF48060606007E00398C0F5806028
:101A30000490039860600020206040F27800C2F2B9
:101A400000000078002800F0E184DDF814A004987C
:101A500005990844824581F0A48642F2CC1546F6E9
:101A6000BC6646F6C06446F6B86C46F6D86B46F6D9
:101A700090699FED0D8A9FED0D9A9FED0DAB46F697
:101A8000C863C2F20005C2F200060027C2F20004D9
:101A9000C2F2000CC2F2000BC2F20009C2F2000353
:101AA0000FF214085CE000BFCDCCCC3D000000007C
:101AB0009A9999999999B93F6D61765F6D73675F4E
:101AC0006F6E00007365745F70726F746F636F6C1C
:101AD000000000006D61765F6D73675F6F66660082
:101AE000637273665F6D73675F6F6E0063727366B8
:101AF0005F6D73675F6F6666000000007365745FFB
:101B0000756172745F737065656400006765745F0A
:101B100073746174757300007365745F75617274BA
:101B20005F737065656420617267756D656E7420A2
:101B3000202020202074656C656D65747279207595
:101B40006172742073706565640D0000481C30601C
:101B5000049805990AF1010A0844824581F021861A
:101B600050466FF39F20285C31682028EED051B199
:101B7000A0F12E010B2918D8DCF800105854481C8D
:101B8000CCF80000E4E70D2812D046F6B467C2F2A4
:101B900000073968224646F6A464C2F20004605485
:101BA000481C144638600027D2E70D2840F09C807E
:101BB00046F6B460C2F2000046F6A4610760AFF2D8
:101BC000FC00C2F2000106222760CCF800703760EA
:101BD000FEF734FC002800F08D8046F6A4614046F4
:101BE000C2F200010A22FEF729FC002800F0C180A1
:101BF00046F6A461AFF22410C2F200010A22FEF7F9
:101C00001DFC002800F0068146F6A461AFF23010FA
:101C1000C2F200010B22FEF711FC002800F07081D7
:101C200046F6A461AFF23C10C2F200010B22FEF7AF
:101C300005FC002800F0EB8146F6A461AFF24410E9
:101C4000C2F200010622FEF7F9FB002800F03682FE
:101C500046F6A461AFF24C10C2F200010A22FEF770
:101C6000EDFB002800F0428246F6A460C2F20000BC
:101C7000006846F26851C7F26C01884240F0A483C4
:101C800046F61670C0F6000003F078FF46F6F770CF
:101C9000C0F6000003F072FF47F21C05C0F6000515
:101CA000284603F06BFF46F6F360C0F6000003F031
:101CB00065FF46F62E70C0F6000003F05FFF284671
:101CC00003F05CFF46F6CE60C0F6000003F056FF5E
:101CD00046F69A70C0F6000003F050FF284603F065
:101CE0004DFFAFF2CC106DE321680BF80100481CEA
:101CF00020602DE747F26909C0F6000948465946B9
:101D000006222546FEF79AFB002800F0D380DBF878
:101D1000000047F26321C6F27361884200F04181FE
:101D200047F2C100C0F6000059460322FEF786FBC9
:101D300046F690690028C2F200092C4640F0448320
:101D4000022089F80400FEF753FD0DF120084046FB
:101D50003221FEF721FD46F6F07147F21E0247F2EE
:101D6000C1034046C0F60001C0F60002C0F6000301
:101D700033E147F28E00C0F6000059460622FEF716
:101D80005DFB002800F03F8147F2B600C0F600007E
:101D900059460622FEF752FB002800F0888147F2E0
:101DA0005B00C0F6000059460622FEF747FB0028FC
:101DB00000F0918147F2A200C0F6000059460622C9
:101DC000FEF73CFB002800F0018247F23E00C0F61F
:101DD000000059460622FEF731FB002800F012826F
:101DE00047F25200C0F6000059460622FEF726FBD5
:101DF000002800F07A8247F23000C0F60000594611
:101E00000622FEF71BFB002840F0DE82012089F845
:101E10000B00D1E247F28E00C0F6000059460622C0
:101E2000FEF70CFB002800F0468147F2B600C0F632
:101E3000000059460622FEF701FB002800F04F8102
:101E400047F25B00C0F6000059460622FEF7F6FA9C
:101E5000002800F0BF8147F2A200C0F600005946FA
:101E60000622FEF7EBFA002800F0D08147F23E0090
:101E7000C0F6000059460622FEF7E0FA002800F0FE
:101E8000388247F25200C0F6000059460622FEF79B
:101E9000D5FA002800F07D8247F23000C0F600003D
:101EA00059460622FEF7CAFA002840F08D8289F8CA
:101EB0000B7081E246F69065C2F200052F71FEF7C5
:101EC00097FC0DF1200840463221FEF765FC46F6EE
:101ED000F07147F21E024046C0F60001C0F6000253
:101EE0004B46FEF7FDF946F6C460C2F20000D0F89A
:101EF00000904046FEF7CEFA82B24846A94678E006
:101F000047F27100C0F6000059460322FEF796FA28
:101F1000002800F0E78047F29900C0F6000059461B
:101F20000322FEF78BFA002800F0578147F28A005F
:101F3000C0F6000059460322FEF780FA002800F0A0
:101F4000688147F26C00C0F6000059460322FEF794
:101F500075FA002800F0D08147F2C500C0F60000F5
:101F600059460322FEF76AFA002800F0158247F26C
:101F70005B00C0F6000059460322FEF75FFA002816
:101F800000F0118247F24600C0F6000059460322D5
:101F9000FEF754FA002840F01782012089F8120059
:101FA0000AE246F69069C2F20009012089F80400AD
:101FB000FEF71EFC0DF1200840463221FEF7ECFB37
:101FC00046F6F07147F21E0247F264034046C0F63F
:101FD0000001C0F60002C0F60003FEF781F946F6E4
:101FE000C460C2F2000005684046FEF753FA82B2B0
:101FF000284646F6C0644146C2F20004AFF2485893
:10200000FFF7E2F9E0E1012089F80500EBE047F293
:102010007100C0F6000059460322FEF70FFA0028AF
:1020200000F0DF8047F29900C0F600005946032215
:10203000FEF704FA002800F0F08047F28A00C0F6AC
:10204000000059460322FEF7F9F9002800F05881F4
:1020500047F26C00C0F6000059460322FEF7EEF985
:10206000002800F09D8147F2C500C0F600005946E7
:102070000322FEF7E3F9002800F0998147F25B00A4
:10208000C0F6000059460322FEF7D8F9002800F0F8
:10209000918147F24600C0F6000059460322FEF740
:1020A000CDF9002840F0908189F8127084E1012078
:1020B00089F8060097E089F8057094E046F6C86252
:1020C000C2F2000210782D2803D010782B2840F09F
:1020D000A7800125A5E0012089F8070083E089F8A1
:1020E000067080E0012089F80C007CE00DF12008EA
:1020F000D9F8005040463221FEF74EFB46F6E97112
:1021000047F27C024046C0F60001C0F600022B46B2
:10211000FEF7E6F846F6C460C2F2000005684046E5
:10212000FEF7B8F982B228464146FFF74DF999F813
:102130000400002800F0E78099F8040046F6C06427
:102140000128C2F20004AFF2906840F01B8147F210
:102150006400C0F6000003F021FD99F80C1047F26E
:102160007100C0F6000003F0E7FC99F80D1047F28B
:102170009900C0F6000003F0DFFC99F80E1047F25A
:102180008A00C0F6000003F0D7FC99F80F1047F260
:102190006C00C0F6000003F0CFFC99F8101047F275
:1021A000C500C0F6000003F0C7FC99F8111047F213
:1021B0005B00C0F6000003F0BFFC99F8121047F274
:1021C0004600C0F6000003F0B7FCFDE0012089F8EE
:1021D000080008E089F8077005E0012089F80D0083
:1021E00001E089F80C70FEF703FB46F6C460C2F20A
:1021F0000000006846F6C961C0F600010422FFF73E
:10220000E3F8E1E0012089F80900D5E089F80870D9
:10221000D2E0012089F80E00CEE089F80D70CBE005
:1022200000254FF00008B0EE49BAB0EE480A002091
:102230001DE0505D303801EE100AB8EEC11A20EEF4
:10224000011A10EE100A31EE0BBA03F003FE53EC44
:102250001A2B03F001FD03F0CDFC46F6C862C2F272
:10226000000200EE100A01200135112D21D0515D30
:1022700069B1515D2E29F6D0C007DAD1505D08EB67
:10228000880100EB4100A0F130080020ECE700EEEF
:10229000108AB8EEC00A10783BEE000AB1EE401A80
:1022A0002D2808BFB0EE410ABCEEC00A10EE100A9D
:1022B00000E0002046F69065C2F200052860FEF7B7
:1022C00097FA46F6C460C2F20000006846F6B461B0
:1022D000C0F600011422FFF777F8A94646F6C0645D
:1022E000C2F20004AFF630086EE0012089F80A005F
:1022F00062E089F809705FE0012089F80F005BE077
:1023000089F80E7058E047F26900C0F6000003F04B
:1023100045FC99F8051047F28E00C0F6000003F066
:102320000BFC99F8061047F2B600C0F6000003F067
:1023300003FC99F8071047F25B00C0F6000003F0B9
:10234000FBFB99F8081047F2A200C0F6000003F06A
:10235000F3FB99F8091047F23E00C0F6000003F0C5
:10236000EBFB99F80A1047F25200C0F6000003F0A8
:10237000E3FB99F80B1047F23000C0F6000003F0C1
:10238000DBFBABE747F2C100C0F6000003F006FC40
:102390001AE089F80A700FE0012089F810000BE0BC
:1023A00089F80F7008E0012089F8110004E089F82D
:1023B000107001E089F81170FEF71AFA46F6C9604C
:1023C000C0F6000003F0DAFB46F6A46046F6C863E8
:1023D00046F6B86C42F2CC15C2F20000C2F200031D
:1023E000C2F2000CC2F20005C0F80B70C0E9007721
:1023F0008760C3E900779F60C3F80B70CBE9007773
:10240000CBF80870CBF80B70FFF7A2BB46F69068CC
:10241000C2F2000898F80410DDF814B004980229FC
:102420001ED1059942F2CC185844C2F20008B0F50A
:10243000806F08EB010501F2F88042F6485642F63B
:102440004C50C2F20006C2F20000049C31680268DF
:10245000914281F2FF8000683168401A01F0FFB8B4
:1024600005990844834581F09C8122A842F2CC1C46
:1024700042F6C04342F6340E42F2C81545F65C7986
:102480000130C2F2000CC2F20003C2F2000E4FF0A3
:10249000000AC2F20005C0F60009019007E00498A6
:1024A00005990BF1010B0844834581F07A8198F876
:1024B000040000283ED098F804000128EFD15846C7
:1024C0006FF39F201CF80000296800296AD0296852
:1024D000A0F13F0212F13E0F02D8012900F0F6846C
:1024E00029683F2900F2F28429684A1C2A6042F2D6
:1024F0008812C2F20002505428680528CFD342F255
:102500008810C2F200004078296802308842C6D1A3
:1025100042F28816C2F200067078431E00F06B8407
:10252000811E032906F1020280F06784002100F079
:1025300085BC00BF58466FF39F201CF80060DC7814
:102540004FF000090F2C83F80090029600F22382CE
:10255000DFE814F01000100024013E019000870114
:102560009B016101CE010C01AF016B00A3002F00A4
:102570002F005501FE2E00F0D58146F66857FD2E3E
:10258000C2F2000740F00B82187B022400F0FE002C
:10259000FD2118734FF6FF70DC70AEF80210AEF834
:1025A0000000FCE1EA283FF492AFC8283FF48FAF67
:1025B00075E79EF801009EF80410B0424FF0020942
:1025C00008BF4FF001090E2C08BF4FF00209C807E1
:1025D00083F800908EF8156140F03181186946F655
:1025E00068570028C2F2000700F0F087026B002A4B
:1025F00000F073849EF80B00BEF8091041EA004118
:102600001846904742F6C043C2F2000393F8009088
:10261000002840F0398642F6340EB9F1020FC2F2BA
:10262000000E40F0788400F0D1BF19791D46481C97
:102630001871BEF8003071440E7386EA030181EA16
:102640000111CCB2090241EA1321230983EAC40330
:102650009EF80360C2B25940B242AEF8001011BFFA
:102660000B240C24EC7006462B4642F2C815C2F22D
:1026700000051CE3BEF800008EF8056086EA000144
:1026800081EA0111CAB2090241EA1020110981EA66
:10269000C2014840AEF8000076E19EF80B00BEF89B
:1026A000091046F2943546F6685741EA0040D722B1
:1026B0000021C0F600054FF0FF36C2F2000700BF50
:1026C000914210D28B1801335C0804EB440755F893
:1026D0002770874246F66857C2F2000794BF21462A
:1026E00006EB5302ECD101EB410155F82120824267
:1026F00040F0268105EB8100BEF800200379817946
:1027000083EA020080EA0010C0B2030243EA122208
:10271000030983EAC0005040029D42F6C043AEF870
:102720000000C0B20E24C2F20003854208BF0D248F
:102730001A79DC708A428EF8145180F01C810EEBFD
:1027400002000C30891AFEF705F842F6C04342F643
:10275000340E42F2CC1C46F69068C2F20003C2F27C
:10276000000EC2F2000CC2F2000804E1704630F81C
:10277000091FBEF8002041EA0621018086EA020016
:1027800080EA0010C1B2000240EA12200A0982EA7F
:10279000C1014840AEF800000A24FBE0BEF800008A
:1027A0008EF8036086EA000181EA0111CAB20902CB
:1027B00041EA1020110981EAC2011A7B4840D10781
:1027C00083F804A0AEF8000040F0DC800324E1E0D0
:1027D000022E8EF8046080F0D980BEF80000042438
:1027E00086EA000181EA0111CAB2090241EA102019
:1027F000110981EAC2014840AEF80000CAE0587BE6
:10280000AEEB0001013881F823610106587300F036
:102810009A810F24BFE0BEF800008EF8086086EAB7
:10282000000181EA0111CAB2090241EA102011092E
:1028300081EAC2014840AEF800000824AAE00F2453
:102840000D2046F66857DC70B9F1020F5873C2F2DA
:1028500000070EBF4FF002094FF0000983F8009007
:102860009DE0BEF800008EF8066086EA000181EA6D
:102870000111CAB2090241EA1020110981EAC2011C
:102880004840AEF80000062484E0BEF800008EF850
:10289000076086EA000181EA0111CAB2090241EA31
:1028A0001020110981EAC2014840AEF80000072457
:1028B00070E0704630F8091F8278018032438270E0
:1028C000BEF8002086EA020080EA0010C1B20002D1
:1028D00040EA12200A099EF8036082EAC1014840DA
:1028E000002EAEF8000000F0DF810B24DC70DEE18A
:1028F000BEF800008EF80BA086EA000181EA011103
:10290000CAB2090241EA1020110981EAC2011A7B08
:102910004840D107AEF80960AEF8000040F00781EA
:10292000092437E0187B022440F00100FE211873CF
:102930004FF6FF70DC70AEF80210AEF800002AE02F
:10294000BEF8000042F6C04380EA0011C9B20A0294
:1029500042EA10200A0982EAC10148400299AEF811
:102960000000C0B20E24C2F20003814208BF0D2451
:10297000DC708EF8141142F2C8154FF00009C2F253
:1029800000050CE0AEF80490052403E098780124DB
:1029900001309870DC7046F66857C2F200079EF866
:1029A000036046F6505A19795A79C2F2000A9878AB
:1029B00042F6C043C2F200038AF80410511C42F6EA
:1029C000C0421B7BC2F2000212898AF80C3042F628
:1029D000C0438AF803408AF80510AAF80820AAF82C
:1029E0000A00C2F20003B9F1020F4FF0000AFE70B4
:1029F00083F802A003D1BEF81401388003E009F087
:102A0000FE00022815D140F201105880029845F6C8
:102A10005C79FD28C0F6000983F800A07FF43FAD83
:102A20000220D8704FF6FF708EF803A0AEF80000B9
:102A300035E5B9F1000F45F65C79C0F600093FF4C1
:102A40002EAD46F66851C2F20001C87AB1F80910FD
:102A500041EA004020F07F40492843DC013820282B
:102A60003FF61DADDFE810F022002100210021001B
:102A7000210021002100210021002100210021004E
:102A8000210021002100210021002100210021003E
:102A900021002100210021002100600121002100EE
:102AA00021002801210021004401F8E498F80500E4
:102AB00000283FF4F4AC46F66854C2F20004A07853
:102AC000FE2840F06D82A07940F28401C2F200013C
:102AD0008870B4F80700FE22A1F8030001200A70F4
:102AE0004E7074E14A2800F03B818D2800F054813B
:102AF000EB287FF4D4AC98F80B0000283FF4CFAC5F
:102B000046F66854C2F20004A078FE2840F04083E4
:102B1000A07940F28401C2F200018870B4F8070085
:102B2000FE220A704E70A1F80300EB204FE19EF8E0
:102B3000036046F66857002EC2F2000700F0EE81EF
:102B40000B24DC702DE71969002900F037855869DE
:102B50000DF1200800904EF26760C6F609200A9039
:102B60004AF68560CBF667300B904FF27230C3F6B1
:102B70006E400C904FF23A50CAF24F500D9045F211
:102B80007F20C5F20E100E9046F68C00C9F6053077
:102B90000F904DF6AB10C1F6837010904CF61950A3
:102BA000C5F6E030CDE908AA11908A4610314046BA
:102BB0002022F14602F07AFD99F8030009F10201A2
:102BC00000F10A02404602F071FD09F58A714046A3
:102BD000022202F06BFD09F58B714046072202F0DC
:102BE00065FD089F3720A0EBD70000F03F04802050
:102BF0008DF88800019822AE4721A519FDF7AAFD9E
:102C0000099938BAC5F8050008BAC5F8010004F1F9
:102C1000090240463146009E02F048FD9DF828001A
:102C20009DF829109DF82B208DF81C108DF81D00A3
:102C30009DF82F009DF82E109DF82A308DF81A204F
:102C40008DF81E008DF81F1009F21D110DF11A00EC
:102C500006228DF81B30FDF7F1FB002800F01983E8
:102C600042F6C043C2F200031869026B002A00F06A
:102C7000398342F63404C2F20004E07AB4F8091051
:102C800041EA00411846904742F6C04342F2C81557
:102C9000C2F20003A6460028C2F2000540F08E846E
:102CA0004FF0030900F08CBC0C24DC70002646F6C3
:102CB0006857C2F2000774E698F8070000283FF44E
:102CC000EEAB46F66854C2F20004A078FE2840F04D
:102CD0002981A07940F28401C2F200018870B4F821
:102CE0000700FE220A704E70A1F803001E206EE05D
:102CF00098F8080000283FF4D2AB46F66854C2F2B8
:102D00000004A078FE2840F08981A07940F2840177
:102D1000C2F200018870B4F80700FE220A704E70FB
:102D2000A1F80300212052E098F8060000283FF4A3
:102D3000B6AB46F66854C2F20004A078FE2840F014
:102D4000AB81A07940F28401C2F200018870B4F82E
:102D50000700FE220A704E70A1F803001A2036E028
:102D600098F8090000283FF49AAB46F66854C2F27E
:102D70000004A078FE2840F0CD81A07940F28401C3
:102D8000C2F200018870B4F80700FE220A704E708B
:102D9000A1F803004A201AE098F80A0000283FF43E
:102DA0007EAB46F66854C2F20004A078FE2840F0DC
:102DB0002D82A07940F28401C2F200018870B4F83B
:102DC0000700FE220A704E70A1F803008D205FFA02
:102DD00086F88D1D487104F10C0128464246FDF726
:102DE00042FC228855FA86F042F2C815C2F200056C
:102DF000130A082179E3002135E023F003050021BF
:102E000012F8047B043D81EA070112F8034C59F8DB
:102E1000211012F8027C81EA040159F8211012F8FD
:102E2000014C81EA070159F8211081EA040159F89F
:102E30002110E5D142F2C815C2F2000513F00303D8
:102E400011D01778012B81EA070159F821100AD017
:102E50005778022B81EA070159F8211003D09278A4
:102E6000514059F821103044407842F6C043814225
:102E7000C2F200037FF413AB42F28810C2F20000EA
:102E8000807802381F2821D8DFE810F024002000C5
:102E90002000200020003E024402470220002000C3
:102EA0002000200020002000200020002000200022
:102EB0004A022000200020002000200020002000E6
:102EC000200020003B02200020004102C5F800A0A5
:102ED000FFF7E5BA98F80E0024E2B9F1020F1AD113
:102EE00001243846714640F22312DC70FDF700FCE5
:102EF00042F6C04342F6340E46F6906842F2CC1CCD
:102F0000C2F20003C2F2000E4FF00209C2F2000842
:102F1000C2F2000C43E54FF0030955E30C24DC70CA
:102F200000263EE5F1B20229C0F0438246F6685120
:102F3000C2F2000151FA86F1C97A002940F03982C3
:102F4000711ECAB2022A29D346F66852C2F20002A2
:102F500052FA81F2D27A002A40F02A82B11ECAB215
:102F6000022A1BD346F66852C2F2000252FA81F2DC
:102F7000D27A002A40F01C82F11ECAB2022A0DD376
:102F800046F66852C2F2000252FA81F2D27A002A60
:102F900040F00E82043EF1B20129C7D8012608E2B2
:102FA000F1B20229C0F0188246F66851C2F200015F
:102FB00051FA86F1C97A002940F00E82711ECAB218
:102FC000022A29D346F66852C2F2000252FA81F26E
:102FD000D27A002A40F0FF81B11ECAB2022A1BD366
:102FE00046F66852C2F2000252FA81F2D27A002A00
:102FF00040F0F181F11ECAB2022A0DD346F66852A2
:10300000C2F2000252FA81F2D27A002A40F0E38141
:10301000043EF1B20129C7D80126DDE1F1B202294F
:10302000C0F0ED8146F66851C2F2000151FA86F116
:10303000C97A002940F0E381711ECAB2022A29D35D
:1030400046F66852C2F2000252FA81F2D27A002A9F
:1030500040F0D481B11ECAB2022A1BD346F6685290
:10306000C2F2000252FA81F2D27A002A40F0C681FE
:10307000F11ECAB2022A0DD346F66852C2F200020D
:1030800052FA81F2D27A002A40F0B881043EF1B2BD
:103090000129C7D80126B2E1F1B20229C0F0C281EC
:1030A00046F66851C2F2000151FA86F1C97A002948
:1030B00040F0B881711ECAB2022A29D346F668527E
:1030C000C2F2000252FA81F2D27A002A40F0A981BB
:1030D000B11ECAB2022A1BD346F66852C2F20002DF
:1030E00052FA81F2D27A002A40F09B81F11ECAB2D4
:1030F000022A0DD346F66852C2F2000252FA81F259
:10310000D27A002A40F08D81043EF1B20129C7D85D
:10311000012687E1F1B20229C0F0978146F6685195
:10312000C2F2000151FA86F1C97A002940F08D817E
:10313000711ECAB2022A29D346F66852C2F20002B0
:1031400052FA81F2D27A002A40F07E81B11ECAB2D0
:10315000022A1BD346F66852C2F2000252FA81F2EA
:10316000D27A002A40F07081F11ECAB2022A0DD331
:1031700046F66852C2F2000252FA81F2D27A002A6E
:1031800040F06281043EF1B20129C7D801265CE11A
:10319000F1B20229C0F06C8146F66851C2F200011A
:1031A00051FA86F1C97A002940F06281711ECAB2D3
:1031B000022A29D346F66852C2F2000252FA81F27C
:1031C000D27A002A40F05381B11ECAB2022A1BD320
:1031D00046F66852C2F2000252FA81F2D27A002A0E
:1031E00040F04581F11ECAB2022A0DD346F668525C
:1031F000C2F2000252FA81F2D27A002A40F03781FC
:10320000043EF1B20129C7D8012631E1F1B2022909
:10321000C0F0418146F66851C2F2000151FA86F1D0
:10322000C97A002940F03781711ECAB2022A29D317
:1032300046F66852C2F2000252FA81F2D27A002AAD
:1032400040F02881B11ECAB2022A1BD346F668524A
:10325000C2F2000252FA81F2D27A002A40F01A81B8
:10326000F11ECAB2022A0DD346F66852C2F200021B
:1032700052FA81F2D27A002A40F00C81043EF1B277
:103280000129C7D8012606E142F6340EC2F2000E2B
:103290009CE1002E3FF4E4AC42F63402C2F200029C
:1032A000318892F81641B2F81B81D2F817E1002953
:1032B00056D0D079137A002202E0013291424DD0EB
:1032C00002EBC20706EB070C9CF80370B842F4D17E
:1032D0009CF80470BB42F0D19CF80270BC42ECD167
:1032E00090B23FE042F6340E46F6685742F2C815F7
:1032F0004FF00309C2F2000EC2F20007C2F200054D
:1033000062E198F811000DE098F80C000AE098F8D6
:10331000120007E098F8100004E098F80D0001E0B2
:1033200098F80F0000283FF4D1AD42F28810C2F2A5
:1033300000004178023102F057FC42F6C04342F6E9
:10334000340E42F2CC1C46F69068C2F20003C2F280
:10335000000EC2F2000CC2F20008B7E50A4604E013
:1033600000200022884240F0F4800F293FF678AC1C
:1033700048F68050C0F25B001EEB0005DAE90270EF
:103380001FFA88FC4CF10003EF1B73EB0000FFF405
:1033900067AC42F63400C2F20000B0F8070002EB5E
:1033A000C2033344A3F80300481C9C703080DFE064
:1033B0000E4640F2840146F66854C2F20001C2F2A1
:1033C000000408702779D4F805004E708F70C1F89A
:1033D00003001E2070E00E4640F2840146F6685459
:1033E000C2F20001C2F200040870D4F80500277987
:1033F000C1F8030001204E708F705DE00E4640F270
:10340000840146F66854C2F20001C2F2000408705A
:103410002779D4F805004E708F70C1F80300212081
:103420004AE00E4640F2840146F66854C2F20001BA
:10343000C2F2000408702779D4F805004E708F702E
:10344000C1F803001A2037E00E4640F2840146F628
:103450006854C2F20001C2F2000408702779D4F85F
:1034600005004E708F70C1F803004A2024E00E461C
:1034700040F2840146F66854C2F20001C2F2000430
:1034800008702779D4F805004E708F70C1F80300DA
:10349000EB2011E00E4640F2840146F66854C2F279
:1034A0000001C2F2000408702779D4F805004E70BC
:1034B0008F70C1F803008D205FFA86F801F10A05CC
:1034C000A1F8070081F809A004F10C012846424642
:1034D000FDF7C9F82288F80755FA86F009D142F2BB
:1034E000C815130A0C21C2F20005027043700020B7
:1034F00015E0D4F816110280D4F81A21D4F81E3140
:10350000C0F8021094F8221142F2C815C0F8062043
:10351000C0F80A3081730D200C21C2F2000541442D
:10352000014440F28400C2F2000002F05DFB46F666
:10353000906842F2CC1C42F6340E42F6C043C2F20E
:103540000008C2F2000CC2F2000EC2F20003FEF745
:10355000A6BF02EBC2003044B0F80910D0F8050055
:103560001FFA88F3B0EB0E0071EB0300BFF478ABE9
:1035700002EBC20042F63402C2F20002B2F81B11A2
:103580003044A0F80910D2F8171142F6C043C0F831
:103590000510DAE902121FFA88F0B1EB0E0172EBA6
:1035A000000138BFCAE902E042F6340E42F2C81503
:1035B000C2F2000EC2F20003C2F200054FF0010990
:1035C00046F66857C2F2000783F800900124384697
:1035D000714640F223124FF0000ADC70FDF788F8C4
:1035E00042F6C04342F6340E46F6906842F2CC1CD6
:1035F000C2F20003C2F2000EB9F1010FC2F20008DC
:10360000C2F2000C7FF4CBA918899EF8061000289E
:1036100000F101004FF001044FF00109597108BF9A
:10362000A3F80AA01881FFF7BAB942F6485742F644
:103630004C5AC2F20007C2F2000A059C3868DAF858
:103640000010C4F5806688421EDADAF80000396896
:10365000401A1FE031680068401A00F50050A0428F
:10366000C0F2A5803068316840F28412C0F5005085
:10367000C2F20002A04202EB010020DD29462246F0
:10368000FCF7F1FF35682FE03868DAF80010081A07
:1036900000F50050B042C0F28F803868396840F2BF
:1036A0008419C0F50050C2F20009B04209EB0100D4
:1036B0001DDD29463246FCF7D6FF3C682FE0316815
:1036C000C1F500522946FCF7CEFF3068281A00F5F4
:1036D00000513068A4F500552A1840F28410C2F257
:1036E0000000FCF7C0FF34682819306059E03968E1
:1036F000C1F500522946FCF7B6FF38684EF2004289
:10370000281A00F500513868CFF6FF72141B2218F2
:1037100040F28410C2F20000FCF7A5FF3E68A01939
:103720003860049805993A68DAF8003008449A42FB
:10373000A0F5806504DADAF800003968401A05E07F
:103740003868DAF80010081A00F50050A84238DB93
:1037500038683968C0F50050A84209EB010008DD5F
:1037600042F2CC11C2F200012A46FCF77CFF3C6811
:1037700015E03968C1F500524146FCF774FF38681E
:10378000A5F50054A8EB000000F500513868221898
:1037900040F28410C2F20000FCF765FF3D6860193A
:1037A000386034B0BDEC088B01B0BDE8F08F01206B
:1037B00080F3138800F038FA012080F3138800F0BA
:1037C00033FA012080F3138800F02EFA406A006E6D
:1037D00070470000B0B5014605688068D1E9033242
:1037E0004C691043D1F81CE02A68204349F20C646C
:1037F000A243104340EA0E002860686841F2040CBE
:1038000020F440501843686088690A6AAB68104326
:1038100023F430621043A86044F6FF30C4F2000085
:10382000C4F2020C85424FF0100315DD44F600404F
:10383000C4F2000085421FD045F20000C4F200002F
:1038400085421DD043F60000C4F20100854226D116
:10385000DCF82C3075A01EE044F20040C4F20000F9
:10386000854211D044F60000C4F20000854216D112
:10387000DCF82C00830C0AE0DCF82C00030D06E0D9
:10388000DCF82C00830D02E0DCF82C00030C46F27F
:103890007C30C0F6000003F0030250F82230BEF581
:1038A000004F41F2002EC0F27A0E15D1082B4FF0D6
:1038B000010000F29E80DFE803F005257F9C4D9C0F
:1038C0009C9C7D0040F20C00C2F200000068DCF815
:1038D0000020C2F302221EE0082B4FF0010000F28C
:1038E0008880DFE803F005237A864F868686780095
:1038F00040F20C00C2F200000068DCF80020C2F3C5
:1039000002221CE040F20C00C2F200000068DCF869
:103910000020C2F3C22246F28C33C0F600039A5C48
:1039200020FA02FEBEF1000F46D15FE040F20C002B
:10393000C2F200000068DCF80020C2F3C22246F2A6
:103940008C33C0F600039A5C20FA02FEBEF1000F31
:1039500043D14BE0DCF8003003F00C0008282BD1F9
:1039600046F25C32C3F38340C0F60002105CDCF820
:1039700028C0DA0341D440F60012C0F23D0200FB39
:1039800002FECFE7DCF8003003F00C00082824D159
:1039900046F25C32C3F38340C0F60002105CDCF8F0
:1039A00028C0DA0335D440F60012C0F23D0200FB15
:1039B00002FECBE74FF4004E4868420802EB4E028D
:1039C000B2FBF0F04FF6F07210EA020310D0C0F331
:1039D0004200184309E04FF4004E48680EEB5002D5
:1039E000B2FBF0F080B2102802D3E860002000E0C3
:1039F00001200022C1E91922B0BD46F26C330CF05F
:103A00000F02C0F600039A5CBEFBF2F202FB00FE5E
:103A100088E746F26C330CF00F02C0F600039A5CA4
:103A2000BEFBF2F202FB00FE90E700BF01000000C7
:103A300004000000080000000200000010B5D0F8EB
:103A400000C0DCF81CE00EEA010E8E4517D046F6E9
:103A5000EC6EC2F2000E00BFDEF80040A41A9C42D9
:103A600010D8DCF80040640744BFDCF81C405FEA73
:103A7000045455D4DCF81C400C408C42ECD100209E
:103A800010BD00BF016851E8001F026821F4D07129
:103A900042E80013BBB3016851E8001F026821F43B
:103AA000D07142E8001373B3016851E8001F026847
:103AB00021F4D07142E800132BB3016851E8001FD4
:103AC000026821F4D07142E80013002BDAD11AE029
:103AD000016851E8021F026821F0010142E8021367
:103AE000DBB1016851E8021F026821F0010142E8E0
:103AF000021393B1016851E8021F026821F001012D
:103B000042E802134BB1016851E8021F026821F03C
:103B1000010142E80213002BDAD17C21782252E025
:103B20004FF40061CCF82010016851E8001F0268D2
:103B300021F4D07142E80013BBB3016851E8001FC3
:103B4000026821F4D07142E8001373B3016851E8B0
:103B5000001F026821F4D07142E800132BB3016802
:103B600051E8001F026821F4D07142E80013002BD5
:103B7000DAD11AE0016851E8021F026821F0010160
:103B800042E80213DBB1016851E8021F026821F02C
:103B9000010142E8021393B1016851E8021F026873
:103BA00021F0010142E802134BB1016851E8021F04
:103BB000026821F0010142E80213002BDAD1202132
:103BC000816780217C22202383504350002180F88C
:103BD0007410032010BD000082B042F22470C2F2C3
:103BE00000000068C1690191818C00910168C906DB
:103BF00015D51021016242F62D00C2F200000078B6
:103C000068B140F21000C2F200000121016040F2F0
:103C10001040C4F20100016841F00201016002B0ED
:103C200070470000FEE700004EF60C50BFF34F8FC8
:103C3000CEF200000168042201F4E061C0F2FA5201
:103C400011430160BFF34F8F00BF00BF00BF00BF33
:103C5000FAE7000088B04EF60C56CEF2000640F2AD
:103C6000000456F8041CC1F200044EF2001842F29F
:103C7000000520464FF4C472CEF20008C4F20205DB
:103C8000FCF736FD46F8044C28684FF6FF0140F07B
:103C900010002860306840F20C0C084040F20031FF
:103CA000C0F2FA5108433060C2F2000CDCF8001098
:103CB00044F6D350C1F26200A1FB00124FF0FF3175
:103CC00001EB92130022B2EB136F24D14EF60C5687
:103CD00048F8EC3CF023CEF20006F375072348F8D1
:103CE000E82C48F8F03C3368C3F3022383F007075D
:103CF000042F28BF0427033B38BF1346B9400922CD
:103D000022EA010199400901F17546F6F061C2F21B
:103D1000000101220A7041F21404C4F20204616835
:103D200046F6EC6741F0010161606168C2F200078C
:103D300001F0010102910299A16841F08051A16056
:103D4000A16801F080510291029954F8101C01F011
:103D50000C01042940F00B8154F8141C54F8101C79
:103D600001F00C01082940F0EA8254F8101C01F41B
:103D70007411B1F5E81F02D0EFF3108172B6296813
:103D800011F0060F09D12968022262F302012960AD
:103D9000296801F0070102290AD154F8101C21F00A
:103DA000F00144F8101C54F8141C890100F1F5824C
:103DB000EFF3108072B6E069102120F00300E0619B
:103DC000E069002620F44020E061A069A04661F38C
:103DD0000810A0610696206802AD40F40020206023
:103DE00020684EF2074A00F40020079007982068E8
:103DF00040F2084940F48000206020684FF0030B37
:103E000000F48000079007982068294640F40030AD
:103E100020602068CEF2000A00F400300790079876
:103E20002068C4F2010940F480202060206840F23C
:103E3000004400F4802007900798C4F600044FF473
:103E40000050A06202900120CDE903062046CDF883
:103E500014B0FDF72DF84FF46040CDE9020B04F5E6
:103E6000806029460496FDF723F849F6C110CDE994
:103E7000020B4FF0904029460496FDF719F84DF6D5
:103E8000F030CDE9020B20464C464EF2001929468F
:103E90000496CEF20009FDF70BF854F8080C42F234
:103EA0004C6340F0020044F8080C54F8040CC2F2D1
:103EB000000340F0020044F8040CB0208AF800002F
:103EC0008020C9F80000D8F8000040F00100C8F8D0
:103ED0000000D8F8000000F00100029002984EF6B1
:103EE0000C50CEF2000000684FF400408AF80860E1
:103EF000C9F8000040F20040C4F2000000F5E040C4
:103F00001860187938BB5E71CDE90566D8F80800ED
:103F100002A940F00050C8F80800D8F8080000F0E6
:103F2000005007900798D8F8000040F40030C8F817
:103F30000000D8F8000000F4003007900798102027
:103F4000CDE9020B4FF090400496FCF7B1FF42F22E
:103F50004C63C2F200030220012118711E61197125
:103F60005979012941D1EFF3108072B64CE054F831
:103F7000101C01F00C01082904D154F8101CC903CD
:103F80003FF5EAAE54F8141C41F4803144F8141C97
:103F9000A16921F00F01A161396854F8142C920332
:103FA0003FF5DCAE3A68521A642A3FF6E5AE54F8A3
:103FB000142C92033FF5D2AE3A68521A642A3FF6A7
:103FC000DBAE54F8142C92033FF5C8AE3A68521A8F
:103FD000642A3FF6D1AE54F8142C92033FF5BEAEDE
:103FE0003A68521A642AD8D9C6E61871186840F699
:103FF000FE72016891430160016821F0C001016017
:10400000012018710020587142F21C65A4F57B71E3
:10401000C2F2000540220020C5E9001205F10801A6
:1040200042F603034FF4004649C1C5E90500C5E95E
:104030000700686295F82910C90663D4D8F80410FF
:1040400041F00101C8F80410D8F8041001F0010192
:1040500002910299CDE90500D8F8001041F4003131
:10406000C8F80010D8F8001001F400310791079942
:10407000022102910321CDE9031002A94FF09040E3
:10408000FCF716FF95F82900002804BF002085F8EA
:1040900028000020029095E80F0006680296029E14
:1040A00026F0700631430291029921F082011143FA
:1040B00002910299AA6921F44021114302910299C7
:1040C0009A0A62F38D21029102992A6921F4004132
:1040D0001143029102996A6921F44031114302911E
:1040E0000299EA6921F00C011143029102992A6AAE
:1040F00021F400711143029102990160012085F8B9
:10410000290002E0EFF3108072B6A4F5747042F259
:10411000A464C2F2000400210422202384E80B00DE
:10412000C4E90321616294F83200052804D094F8B0
:104130003200022840F07482EFF3108072B642F22F
:10414000D86A40F20043C2F2000A0420C4F200031D
:1041500000214FF6FF72CAE900308020CAE902123E
:10416000CAF81010CAF818009AF83D00002818463E
:104170001DD18AF83C10D8F8080040F00200C8F8B9
:104180000800D8F8080000F00200029002984EF6ED
:104190000C50CEF2000000684EF20740CEF2000054
:1041A00081754FF00050C9F80000DAF800000AF1FC
:1041B0000404882502262146CFF6FE758AF83D6064
:1041C000FDF784F901208AF848008AF83E008AF851
:1041D0003F008AF840008AF841008AF842008AF8D5
:1041E00043008AF844008AF845008AF846008AF8B5
:1041F00047008AF83D009AF83C10012903D1EFF3FB
:10420000108072B60BE08AF83D60DAF800108A6818
:104210002A408A608AF83D0000208AF83C009AF81B
:104220003D000226002804BF00208AF83C008AF8DE
:104230003D60DAF800002146FDF748F901208AF8D0
:1042400048008AF83E008AF83F008AF840008AF861
:1042500041008AF842008AF843008AF844008AF84C
:1042600045008AF846008AF847008AF83D009AF827
:104270003C1043F2004C42F6FF340129C4F2010C19
:10428000C4F201041AD1EFF3108072B69AF83C0020
:10429000012837D1EFF3108072B69AF83C0001285C
:1042A00040F07E82EFF3108072B69AF83C0001284D
:1042B00040F08087EFF3108072B61DE18AF83D6010
:1042C000DAF8001005F57F438A681A4042F054027C
:1042D0008A600A6A0B6A22F00A0223F001030B6269
:1042E0008B6923F0F0038B610A62CA6822F04002F6
:1042F000CA60CA6822F48042CA608AF83D00002081
:104300008AF83C00DAF80000016AA04221F00101BD
:1043100001628269016A7ADCB0F1804F00F0858029
:1043200040F20043C4F2000398427ED040F60003FE
:10433000C4F20003984208BF22F0030277E0602134
:10434000C4F2422100220A603A6854F8143C9B01EE
:1043500040F1B8813B689B1A022B3FF60DAD54F833
:10436000143C9B0140F1AE813B689B1A022B3FF647
:1043700003AD54F8143C9B0140F1A4813B689B1AA7
:10438000022B3FF6F9AC54F8143C9B0140F19A81A2
:104390003B689B1A022BD8D9EEE454F8101C022279
:1043A00062F3010144F8101C396841F2883254F874
:1043B000103C03F00C03082B00F0B8813B685B1A3B
:1043C00093423FF6F5AC54F8103C03F00C03082B75
:1043D00000F0AC813B685B1A93423FF6E9AC54F8BD
:1043E000103C03F00C03082B00F0A0813B685B1A23
:1043F00093423FF6DDAC54F8103C03F00C03082B5D
:1044000000F094813B685B1A9342D0D9D0E442F625
:104410000043C4F20103984207D044F20003C4F2FF
:104420000103984201D0604501D122F0030242F01D
:10443000010222F0F00221F00A0182610162816929
:1044400021F00C0181618169816100218AF83C10B1
:10445000016A21F0100101628169026A21F473414D
:1044600042F0200201F5007122F0800281610262B7
:10447000816921F4406181618169816102218AF849
:104480003D1042688168604508D042F60043C4F29E
:104490000103984208BF22F4700201E022F4700286
:1044A00022F07002A04242600FDCB0F1804F1AD0BF
:1044B00040F20042C4F20002904214D040F60002E2
:1044C000C4F2000290420ED010E042F60042C4F264
:1044D0000102904207D044F20002C4F2010290426D
:1044E00001D0604502D121F08001816001208AF86D
:1044F0003D0000208AF83C0042F2CC59C2F200098B
:10450000002101224FF0A040C9E90A21C9F81C206E
:10451000042289F8201089F83010C9E90001C9E99E
:104520000211C9E90412A9F81810C9F8341007914A
:10453000D9F84000C00640F20800C5F2000000F1C2
:104540006F81D9F8401000294FF0000140F06281DE
:10455000C9F84410C9E9121189F83C10D8F80020B4
:1045600042F08052C8F80020D8F8002002F08052B3
:104570000292029A0268D20000F14C81016801F0B7
:104580000301012905D14FF0A0410968C90741F095
:104590004E80D9F84010C90600F13B81D9F840108F
:1045A00041F2021291430231C9F8401001684DF600
:1045B000836221F0405101600168C4F21B3241F076
:1045C0008051016040F20C01C2F200010968A1FBB8
:1045D0000212910C01EB8101490007910799002912
:1045E00000F017810799013907910799002900F018
:1045F00010810799013907910799002900F0098175
:104600000799013907910799002900F0028107995C
:1046100001390791079900294FF00001E2D1F9E033
:10462000D8F8040040F00100C8F80400D8F80400ED
:1046300000F001000290029894F83200002804BFB4
:10464000002084F831000020CDE90500D8F80010E2
:1046500041F40031C8F80010D8F8001043F61108F2
:1046600001F40031079107992C2102910321CDE932
:10467000031002A94FF09040CEF20008FCF718FC9E
:10468000D4F804C04CF02001602940F08C802168EF
:1046900004F1200ED4E90323D4E906659EE8004A1C
:1046A000D4F82CA0086800EA0800104318433043EF
:1046B000284340EA090040EA0B0040EACE4040EAC5
:1046C0000A6292E054F8102C22F4741202F5E812F7
:1046D00044F8102C01220A60396854F8142C920115
:1046E0003FF54DAB3A68521A022A3FF645AB54F8F3
:1046F000142C92013FF543AB3A68521A022A3FF656
:104700003BAB54F8142C92013FF539AB3A68521A7E
:10471000022A3FF631AB54F8142C92013FF52FAB2F
:104720003A68521A022AD8D9FFF726BB296801F045
:10473000070103290AD32968022262F302012960D2
:10474000296801F0070102297FF432AB54F8101CEC
:10475000042262F30A2144F8101C54F8101C21F4BE
:10476000605144F8101C54F8103C03F00C01082967
:1047700041F20021C0F27A0140F02A8546F25C360F
:10478000C3F38342C0F60006B25CA669DB0300F106
:10479000158540F60011C0F23D01514300F018BDEF
:1047A000DAF8000054E6D4E902B021680190D4E9B7
:1047B000065042460090D4E90486D4E908EA086825
:1047C000019B104040EA0B00184340EA08003043C8
:1047D000009B28431843D4E90A9240EA0E0040EABD
:1047E0000A0040EAC94040EA026242EA0C0008605E
:1047F00094F8320041F214084EF200190028C4F275
:104800000208CEF200097FF49AAC012084F832004D
:1048100095E400210268D2004FD5026892004CD482
:10482000D9F8402002F01002891856D101684907D2
:1048300053D4D9F8401021F481710231C9F84010E5
:10484000016801F00301012904D14FF0A04109687A
:10485000C9070FD1D0F8001101F00301012903D1DC
:10486000D0F8F810C90705D1D0F8001321F4403171
:10487000C0F80013016811F00C0F04D1416844F234
:1048800002029143416041684CF20702CFF6F07298
:10489000114001F580514160816A012221F00F0130
:1048A00081620021C9F84410D9F8401062F3010177
:1048B000C9F840104FF0A0411CE0D9F8401041F079
:1048C000100121F00201C9F84010D9F8441041F05C
:1048D0000101C9F84410D9F84010D9F8401041F04E
:1048E000100121F00201C9F84010EFF3108172B6F7
:1048F000D9F8001001F130424FEA3226052E30D8A7
:104900000FF20C0200F1F80302EB86051A46AF46DF
:1049100000F012B800F008B800F023B800F021B899
:1049200000F005B800F006B84FF0A04204E000F532
:104930009F6201E000F57E7299F83C60012E10D074
:104940008E6876075CBF96685FEA467640F1F8832A
:10495000D9F8400040F02000C9F84000002089F854
:104960003C00EFF3108072B699F83C00002101285A
:10497000029159D00121D9F8000089F83C108168D2
:10498000490748D4016B032262F38A1101638168ED
:1049900011F00C0F2DD14169062262F34B214161C8
:1049A000C168016E01F0F841B1F1406F03D1016EB1
:1049B00021F000410166416E01F0F841B1F1406F14
:1049C00003D1416E21F000414166816E01F0F84152
:1049D000B1F1406F03D1816E21F000418166C16E5B
:1049E00001F0F841B1F1406F03D1C16E21F00041F7
:1049F000C166816801F00301012902D10168C9077C
:104A000005D1D0F8B01021F00801C0F8B010002096
:104A100089F83C000BE0D9F8400040F02000C9F8CC
:104A20004000002089F83C00EFF3108072B640F29D
:104A30000040C4F2000042F2A87400F58840C2F2BF
:104A400000044FF4613200210823C4E90002C4E9E4
:104A5000041331224FF4003304F1200C8CE80E00D3
:104A60004FF480524FF40053C4E90211C4E9061117
:104A7000C4E90E23A26F2AB9204684F87410FCF70B
:104A8000E7FA20682421A167016821F00101016093
:104A90002046FEF79FFE002800F0A482EFF310806E
:104AA00072B646F69065C2F2000500204FF600414E
:104AB000C5E90000C5E902002861C0F601010A68E5
:104AC00044F23F2B2A604A68C0F20F0B6A608A6882
:104AD000AA60CA68EA60096929612968B1F5165FA8
:104AE00004D329680BF10102914212D94FF4E1314C
:104AF0002960012128716871A871E87128726872B3
:104B0000A872E97229736873A973E87329746974C8
:104B1000A874FBF765FFFBF7C7FED9F80000046C2B
:104B2000FCF71AF8B4F52F7F40F2780042F22474B3
:104B3000C2F20000C2F2000406D90121017046F65B
:104B4000C461C2F200010C6000780021002843F625
:104B500000000CBF2A684FF4E132C4F201000C23BC
:104B6000C4E900023022C4E90413C4E908124FF476
:104B700080524FF40053C4E90211C4E90611C4E99C
:104B80000E23A26F2AB9204684F87410FCF760FA4D
:104B900020682421A167016821F0010101602046FD
:104BA000FEF718FE002800F06682EFF3108072B660
:104BB000206842F260650168C2F2000541F0100110
:104BC00001602868016841F002010160FCF7DAFA2F
:104BD000286842F21C65016842F6FF3E21F004019C
:104BE0000160206842F2A4640168C2F2000421F06E
:104BF0002001016094F83200C2F200050528C4F2D9
:104C0000010E00F07E8194F83200012840F0798195
:104C100020681022016841F002010160016841F43E
:104C200080210160016841F400610160016841F484
:104C300040510160016841F001010160016862F3C7
:104C40001C610160396800BF3A68521A022A0BD809
:104C50003A68521A022A07D83A68521A022A03D826
:104C60003A68521A032AEFD30168026849004FF0EC
:104C7000180122F0F85258BF082142EA016202608E
:104C80003A6800BF3B689B1A022B0BD83B689B1A03
:104C9000022B07D83B689B1A022B03D83B689B1A50
:104CA000032BEFD3026852004FF0040258BF6FF09D
:104CB00003020368114423F0F85242EA01620260E1
:104CC0003A6800BF3B689B1A022B0BD83B689B1AC3
:104CD000022B07D83B689B1A022B03D83B689B1A10
:104CE000032BEFD3026852004FF0020258BF6FF05F
:104CF00001020368114423F0F85242EA01620260A3
:104D00003A6800BF3B689B1A022B0BD83B689B1A82
:104D1000022B07D83B689B1A022B03D83B689B1ACF
:104D2000032BEFD3026852004FF0010258BF4FF03F
:104D3000FF320368114423F0F85242EA0162026034
:104D40003A6800BF3B689B1A022B0BD83B689B1A42
:104D5000022B07D83B689B1A022B03D83B689B1A8F
:104D6000032BEFD30268520006D50268013122F00E
:104D7000F85242EA016202600268012363F30D32D5
:104D800002600268102363F3D74202603A6800BFF2
:104D90003B689B1A022B0BD83B689B1A022B07D847
:104DA0003B689B1A022B03D83B689B1A032BEFD35B
:104DB0000268036852004FF0180223F4780358BFCA
:104DC000082243EAC24303603B6800BF3E68F61A0C
:104DD000022E0BD83E68F61A022E07D83E68F61A45
:104DE000022E03D83E68F61A032EEFD303685B0049
:104DF0004FF0040358BF6FF0030306681A4426F40B
:104E0000780343EAC24303603B6800BF3E68F61A7A
:104E1000022E0BD83E68F61A022E07D83E68F61A04
:104E2000022E03D83E68F61A032EEFD303685B0008
:104E30004FF0020358BF6FF0010306681A4426F4CE
:104E4000780343EAC24303603B6800BF3E68F61A3A
:104E5000022E0BD83E68F61A022E07D83E68F61AC4
:104E6000022E03D83E68F61A032EEFD303685B00C8
:104E70004FF0010358BF4FF0FF3306681A4426F481
:104E8000780343EAC24303603E68D3043D68AD1B28
:104E9000022D0BD83D68AD1B022D07D83D68AD1B18
:104EA000022D03D83D68AD1B032DEFD306687600B5
:104EB00007D50368013223F47806D30446EAC246D4
:104EC0000660066842F21C6526F400660660066805
:104ED000C2F2000526F001060660066826F002060A
:104EE00006604FF48026C4E90962E162026822F498
:104EF00078021A430260026822F0F85242EA016125
:104F0000016094F8320042F24C620528C2F20002BD
:104F10000BD094F83200012807D12068016841F0D5
:104F200001010160042084F8320038683968091AE8
:104F3000B1F57A7F0ED83968091AB1F57A7F09D8A8
:104F40003968091AB1F57A7F04D83968091AB1F5B8
:104F50007A7FEBD942F63000C2F2000000210160F6
:104F600046F6E860C2F2000001605079012801D1E4
:104F7000146813E0022010711468206840F00100EA
:104F80002060206800F03C003C2803D1606840F0BD
:104F9000010060600120107100205071002002901B
:104FA000029402984FF4BA7108300290029801609E
:104FB00095F82900C00600F19E8195F82900012886
:104FC00040F0998128684FF6E471CBF6FE710144F8
:104FD0004FEAB101052980F093800FF2B86252F8D0
:104FE000211097E0606A28B142F2A870C2F2000076
:104FF000FCF7F0FA2068416821F490414160816833
:1050000021F022018160816841F00801816001681E
:1050100041F0010101600021C4F880103D68016881
:1050200009070FD542F2A876C2F2000630464FF4C7
:1050300000112A466FF07E43FEF700FD00287FF442
:105040002DAD3068006840070DD542F2A870C2F25D
:1050500000004FF480012A466FF07E43FEF7EEFC1D
:1050600000287FF41BAD2020A067E06700202066A9
:1050700084F8740015E5606A28B142F22470C2F227
:105080000000FCF7A7FA2068416821F490414160D4
:10509000816821F02A018160016841F0010101600D
:1050A0000021C4F880103D68016809070FD542F25D
:1050B0002476C2F2000630464FF400112A466FF003
:1050C0007E43FEF7BBFC00287FF46FAD30680068BC
:1050D00040070DD542F22470C2F200004FF4800167
:1050E0002A466FF07E43FEF7A9FC00287FF45DADF1
:1050F0002020A067E0670020206684F8740057E550
:1051000040F20841C4F20101A1F5767202219042F9
:1051100008BF01216E6A16F0300F00F0E58040F202
:10512000284CF306C4F2010C6FEA01034FEA8175C3
:1051300030D4002D00F09480DCF800201A402EE0DE
:105140004FF4E066994208BF4FF44076B1F1A04FAA
:1051500008BF4FF44076835923F4604383518B6832
:1051600003F00303012B02D10968C9070CD1916830
:1051700001F00301012902D11168C90704D1815945
:1051800040F61F7291438151002089F83C00029043
:10519000FFF7F0BB002D6BD0DCF800200A43CCF801
:1051A0000020B20673D4002D00F08580DCF80420C6
:1051B000134071E0DAF80000FFF760B906F00F0362
:1051C00046F26C36C0F60006F35CB1FBF3F15143D6
:1051D00054F8102C0FF2AC43C2F303129A5C4FF058
:1051E000FF3621FA02F546F6F061C2F200010A78B4
:1051F000A5FB0003002A104606EB93164FF00003B0
:1052000018BF0920B3EB166FCCF800507EF4D3AD75
:105210004EF60C5548F8EC6CF026CEF20005EE7513
:1052200048F8E83C0723002A48F8F03C3EF4C3ADB8
:105230002A684FF0FF36C2F3022282F00703042BE4
:1052400028BF042306FA03F3033A20EA030038BF19
:10525000002290400001E87501200870FEF7ABBD08
:1052600040F2084EC4F2010EDEF800201A4006E0BB
:1052700040F2084EC4F2010EDEF800200A43CEF8D8
:10528000002042F6FF3EC4F2010EB2068BD5CDB12E
:10529000DCF8042042EA010340F2084242F21C65B5
:1052A000C4F20102C2F20005CCF8043002F11C0382
:1052B0000CF10C0214E040F20846C4F201067268D8
:1052C0001A4005E040F20846C4F2010672680A433B
:1052D00042F21C65C2F200057260331F06F10C0237
:1052E0001E680E431E601160016841F001010160FB
:1052F000022085F829009AF83E109AF84400012906
:1053000008BF012800F0E1809AF83F109AF84500A4
:10531000012908BF012800F0FD8099F83C00012810
:1053200027D00121D9F8000089F83C10826802F0EA
:105330000302012A03D10268D20740F05681C9F85E
:105340004010816821F080418160816841F0004116
:10535000816039688268B2F1FF3F64DD484650F8E9
:10536000401F21F0030141F001010160002089F894
:105370003C0049F2DF35C0F2040500BFFBF730FB0B
:10538000FBF792FAD9F80000006C584538BF834605
:10539000013DF3D1FBF7E0FBD9F80000B0F1A04FDD
:1053A00005D1D8F8000020F08050C8F80000002097
:1053B00002900294029900EE10BA9FEDBB1A0831D8
:1053C000B8EE400A029120EE010A0299BCEEC00A32
:1053D00081ED000A42F62051C2F20001086042F657
:1053E0002C00C2F20000012202703A6840F2DC5345
:1053F00040F2DD563D68AD1A9D420BD83D68AD1AAE
:105400009D4207D83D68AD1A9D4203D83D68AD1A4C
:10541000B542EFD30A68062A39D1132106223BE0B0
:105420008268002A9AD53A68521A0B2A03D38268F6
:10543000B2F1FF3F22DD8268B2F1FF3F8EDC3A68B5
:10544000521A0B2A02D38268002A17D48268B2F15A
:10545000FF3F3FF783AF3A68521A0B2A02D38268A4
:10546000002A0BD48268B2F1FF3F3FF777AF3A686A
:10547000521A0B2AD4D38268002AD1D5D9F8400019
:1054800040F0100020F00200C9F840006EE7096803
:10549000052910D11621052240F20003C2F20003B3
:1054A0001A6040F20803C2F200031A6040F20402DC
:1054B000C2F2000211600021017042F62D00C2F21A
:1054C00000000121017000BFFEE702208AF83E00C3
:1054D0008AF84400DAF80000C168704541F0020122
:1054E000C160016A21F001010162016A41F001011C
:1054F000016234DCB0F1804F43D040F20041C4F28D
:10550000000188423DD040F60001C4F2000188420B
:1055100037D042E002208AF83F008AF84500DAF8E6
:105520000000C168704541F00401C160016A21F0CA
:1055300010010162016A41F01001016232DCB0F138
:10554000804F41D040F20041C4F2000188423BD07C
:1055500040F60001C4F20001884235D040E042F636
:105560000041C4F2010188420BD044F20001C4F2B0
:105570000101884205D043F20041C4F20101884292
:105580000BD181680722C0F20102114006293FF4C5
:10559000BBAEB1F5803F3FF4B7AE016841F0010109
:1055A0000160B1E642F60041C4F2010188420BD02D
:1055B00044F20001C4F20101884205D043F20041E7
:1055C000C4F2010188420BD181680722C0F20102B6
:1055D000114006293FF4A1AEB1F5803F3FF49DAEE6
:1055E000016841F00101016097E6826802F00D0256
:1055F000012A12D1826842F0020282600322026014
:105600003A6800BF8368DB073FF499AE3B689B1A9A
:10561000032BF7D38368DB07F4D0D9F8400040F0C0
:105620001000C9F84000484650F8441F9BE6016846
:1056300001F00D01012913D10168032241F002019B
:1056400001604FF0A0410A6039680268D2073EF459
:10565000A0AF3A68521A032AF7D30268D207F4D0EF
:10566000D9F8401041F01001C9F84010D9F84410A1
:1056700041F00101C9F84410D9F840100121FFF7A9
:10568000C9B800BF000000000000000001020304D0
:10569000060708090000200000004000000000206C
:1056A00000000040000000806666A63F2DE9F04F34
:1056B000CFB0064600680F4600EBC2011546814296
:1056C000316002D2716801317160C0F3C50906F121
:1056D0002808CDE9018603E02D1B274400F029822C
:1056E000C9F14004A54238BF2C4608EB09003946F1
:1056F0002246FAF7B8FFA144B9F1400FECD1CDE949
:10570000044796F8327096F82A000C9796F837708E
:105710008DF83D0096F834000E9796F836700B9091
:105720000C980D978DF845000D9896F830A08DF8DF
:10573000490096F840008DF847A0DDF838A00E909B
:105740000B9896F829108DF84B0096F846008DF8C6
:105750003E100D900E9896F83B108DF8570096F875
:1057600052008DF84C100E900D9896F845108DF85B
:10577000590096F850008DF85A100D9096F8571071
:1057800096F85D008DF868100A900E98B1688DF853
:10579000650096F85C000E91F16809900D980D91E6
:1057A000316906950C91716996F82B500B910A9905
:1057B00096F82E3096F82C408DF87210B16996F854
:1057C00028E096F82F2096F82DC096F833808DF8B3
:1057D0003C5096F835508DF8413096F838308DF8B9
:1057E000434096F83E400A9109998DF83FE096F8BB
:1057F0003A908DF8402096F839208DF842C096F8FE
:105800003F7096F83DC096F83CE096F831B08DF8C0
:10581000448096F843808DF84A5096F847508DF8AA
:105820004F3096F84A308DF8514096F848408DF840
:105830007310F1698DF848A096F841A08DF84D904D
:1058400096F844908DF84E2096F84B208DF85070C5
:1058500096F849708DF852C096F84FC08DF853E015
:1058600096F84EE08DF846B096F842B08DF8548028
:1058700096F84D808DF8585096F851508DF85D305F
:1058800096F854308DF85F4096F85A400991316A85
:105890008DF856A096F853A08DF85B9096F8569028
:1058A0008DF85C2096F855208DF85E7096F85B7048
:1058B0008DF860C096F859C08DF861E096F858E010
:1058C0008DF8670096F861008DF855B096F84CB0E9
:1058D0008DF8628096F85F808DF8665096F8635078
:1058E0008DF86B3096F866308DF86D4096F8644010
:1058F0000891716A8DF864A003908DF869908DF815
:105900006A208DF86C708DF86EC08DF86FE08DF8A0
:1059100063B096F85EB096F862A096F8600096F8CC
:10592000672096F865708DF870808DF87450079137
:1059300003998DF879308DF87B400F9BDDE9195480
:10594000DDF86C804FF0000C4FF0280E8DF871B030
:105950008DF875A08DF876108DF877008DF8782089
:105960008DF87A700FA800EB0C0200EB0E0A50685D
:10597000DAF810104FEAF01787EAB04705EB000B92
:1059800087EAD0005AF8047C4FEA71453B44976897
:1059900085EAF14585EA912504EB0709D46B2B4490
:1059A0001D184FEA74434FEAF71083EAF44380EA84
:1059B000B74083EA942380EAD7005B44D768184451
:1059C0004FEA754383EAF5434FEAF71683EA9523D6
:1059D00086EAB7464B4486EAD7063344C2E91050FC
:1059E000CAF820304FEA704383EAF04383EA9020FC
:1059F000136908EB070630444FEAF31686EAB3460C
:105A000086EAD3060CF1100C30440EF1100EBCF1F6
:105A1000C00FA8460D46D064A4D10DF12C0CDDE9D1
:105A20000779DDE909089CE8701046F6B45A0423AA
:105A3000C0F6000A83464FEAB81080EAF82080EAF0
:105A4000786E08EA0B00384429EA080741463844D2
:105A50000AEB03070DF13C0857F8047C08EB03023E
:105A6000704452F8042C384400EB020E0EEB040094
:105A700034464FEAB01200EA010682EAF0224E44B0
:105A80002BEA000782EA70623E445AF803703244FF
:105A900058F803603A4485EA040702EB060905EA70
:105AA000040607EA0C0777404FEABC0686EA7C3614
:105AB00086EABC56374407EB0E0684EA0C073740EB
:105AC00004EA0C027A404FEAB60787EA763787EA9B
:105AD000B6573A44083309EB0508654602EB090C52
