:020000040800F2
:100000001007002091020008A109000899090008C2
:100010009D090008B1030008A10E000800000000BF
:10002000000000000000000000000000A909000816
:100030006D04000800000000A5090008AD090008D3
:10004000AB020008AB020008AB020008AB020008DC
:10005000AB020008AB020008AB020008AB020008CC
:10006000AB020008AB020008AB020008AB020008BC
:10007000AB020008AB020008B5030008AB020008A1
:10008000AB020008AB020008AB020008AB0200089C
:10009000AB020008AB020008AB020008AB0200088C
:1000A000AB020008AB020008AB020008AB0200087C
:1000B000AB02000801030010AB020008AB0200080D
:1000C000AB020008AB020008AB020008AB0200085C
:1000D000AB020008AB020008AB020008D904001014
:1000E000AB020008AB020008AB020008AB0200083C
:1000F000AB020008AB020008AB020008AB0200082C
:10010000000000000000000000000000AB0200083A
:10011000AB020008AB020008AB020008AB0200080B
:10012000AB020008AB020008AB020008AB020008FB
:10013000AB020008AB020008000000000000000055
:10014000AB020008AB020008AB0200080000000090
:10015000000000000000000000000000000000009F
:100160000000000000000000AB020008AB02000825
:10017000AB020008000000000000000000000000CA
:1001800000000000AB02000800F002F800F070F878
:1001900014A696E8000CB244B344DA4501D100F04D
:1001A00067F8BAE80F000FA696E83000A5EB040543
:1001B00004EB0607AAEB0704A7F101074FEA1515A0
:1001C0004FEA3414A4F10104AC4201D300F050F81A
:1001D00013F0010F18BFFB1A43F0010300F001F800
:1001E000DBE71847E8340000283500000A4410F81F
:1001F000014B14F00F0508BF10F8015B240908BF7C
:1002000010F8014B6D1E05D010F8013B6D1E01F872
:10021000013BF9D1641E03D0641E01F8015BFBD1E0
:100220009142E4D370470000103A24BF78C878C1E7
:10023000FAD8520724BF30C830C144BF04680C60EC
:1002400070470000704700000023002400250026AE
:10025000103A28BF78C1FBD8520728BF30C148BF29
:100260000B6070471FB503F0FFF91FBD10B510BD3F
:1002700000F031F81146FFF7F5FF00F015FE00F031
:100280004FF803B4FFF7F2FF03BC00F057F800008B
:100290000948804709480047FEE7FEE7FEE7FEE71A
:1002A000FEE7FEE7FEE7FEE7FEE7FEE70448054956
:1002B000054A064B70470000BD0900088901000887
:1002C00008030020100700200A030020100300206C
:1002D000704770477047754600F02CF8AE46050031
:1002E0006946534620F00700854618B020B5FFF751
:1002F000DDFFBDE820404FF000064FF000074FF053
:1003000000084FF0000BAC46ACE8C009ACE8C009EF
:10031000ACE8C009ACE8C00921F007018D46704780
:1003200010B50446AFF300802046BDE81040FFF74B
:10033000A8BF0000004870471000002001491820A5
:10034000ABBEFEE726000200704710B5203AC0F0B1
:100350000B80B1E81850A0E81850B1E81850A0E898
:100360001850203ABFF4F5AF5FEA027C24BFB1E831
:100370001850A0E8185044BF18C918C0BDE8104074
:100380005FEA827C24BF51F8043B40F8043B08BF7D
:100390007047D20728BF31F8023B48BF11F8012B44
:1003A00028BF20F8023B48BF00F8012B704700002F
:1003B000FEE70000B0B540F29C1CC2F2000CDCE984
:1003C0000FE3DCF80020DEF80010042410689C40E5
:1003D0000C4218BF10F0040520D102249C400C42AE
:1003E00018BF10F002052DD1D940090715D510F01E
:1003F000080008BFB0BD106820F00E00106001209A
:1004000000FA03F1CEF80410CCF83800DCF8301014
:100410004FF48070ACF8200069B9B0BD1068800658
:1004200003D4106820F004001060CEF80440DCF81B
:100430002C100029F1D040F29C10C2F20000BDE85F
:10044000B04008471068800606D4106820F00A0003
:10045000106001208CF82100CEF80440DCF8281050
:10046000002000298CF82000E5D1D6E77047000075
:10047000A0B390F82910C90630D4B0B586B041F2C7
:100480001401C4F202014A68202342F001024A60CA
:100490004A68C4F2010302F001020192019A026863
:1004A00000259A42CDE90455CDE90255019517D0B2
:1004B0001C23C4F201039A4237D10446086808227B
:1004C00040F4003008600868032500F40030009014
:1004D000009802200190002004231EE001207047B4
:1004E0000446086840F400300860086801A900F478
:1004F000003000900098802001900320CDE9020593
:100500004FF0904000F0D8F84FF480500190022056
:10051000CDE90205082010220C2301A9CD508850F6
:100520004FF0904000F0C8F8204690F829100029BC
:1005300004BF002180F828100021019190E82E00CE
:100540000C680194019C24F0700422430192019AEA
:1005500022F082021A430192019A836922F4402216
:100560001A430192019AAB0A63F38D220192019A18
:10057000036922F400421A430192019A436922F46A
:1005800040321A430192019AC36922F00C021A43C5
:100590000192019A036A22F400721A430192019AAD
:1005A0000A60012180F82910002006B0B0BD0000CB
:1005B000002875D090F82910C90671D490F8291038
:1005C000012918BF7047B0B505684FF6E471CBF646
:1005D000FE7129444FEAB10140F2084E0529C4F2E8
:1005E000010E03D22FA252F8212005E0AEF576715C
:1005F00002228D4208BF0122436A13F0300F46D019
:10060000D9066FEA020C06D4910714D0DEF8201048
:1006100001EA0C0104E0910712D0DEF8201011432A
:10062000CEF82010990612D491071ED0DEF82410BF
:1006300001EA0C0110E0DEF8001001EA0C0102E012
:10064000DEF800101143CEF800109906ECD59107A2
:1006500010D0DEF824101143CEF8241040F23441BB
:100660000EF11C03C4F201010DE0DEF8041001EAF2
:100670000C0102E0DEF804101143CEF80410AEF1D4
:1006800004030EF10C011C6814431C600A60296805
:1006900041F001012960022180F82910BDE8B04035
:1006A000704700BF00002000000040000000002054
:1006B00000000040000000802DE9F04F83B00D687D
:1006C000002D00F0C58000F1200241F2000C0092E4
:1006D00000F13847C4F6000C05224FEAB726604502
:1006E00008BF0422042E38BF4FEAB7220026002795
:1006F0004FF00108019209E00D68043735FA08F25D
:1007000008F1010806F1020600F0A280A8F1010A32
:10071000012202FA0AFE15EA0E09EDD0D1F804B062
:1007200003220BF003056C1EB240012C6FEA020C91
:1007300010D88268CC6802EA0C02B440224382607E
:100740004268CBF3001422EA0E0204FA0AF42243B0
:10075000426003E0032D01D103251EE0C2688C68CE
:1007600002EA0C02B4402243022DC26015D16FF0A0
:10077000030202EA5A0B009A07F01C0452F80BE03D
:100780000F230D69A3402EEA0303A5402B4342F833
:100790000B30D1F804B00BF00305026805FA06F33C
:1007A00002EA0C021A431BF4403F0260A4D041F25B
:1007B0001803C4F202031A6840F2004C42F001022E
:1007C0001A601A68C4F2010C02F001020292029A45
:1007D0002AF003024FF6084E6244CFF6FF7E52F82D
:1007E0000E3007F00C050F24AC40A343019C04FA23
:1007F00005F52B4342F80E30DCF800204B6842EA46
:100800000905DC0358BF22EA0905CCF80050DCF8E2
:1008100004209C0342EA090558BF22EA0905CCF8E6
:100820000450DCF80820DC0242EA090540F20C44DE
:1008300058BF22EA0905CCF80850C4F20104226826
:100840009B0242EA090558BF22EA0905256053E7E1
:1008500003B0BDE8F08F0000002800F09C8040F25B
:100860006021C2F2000191F87420012A08BF70478C
:100870002DE9F04340F2740CC2F2000C4FF0000E70
:100880002122C1F84CC0A1F85000A1F85200C1F8D3
:1008900080E08A67CA6E0B68002A50D040F659443F
:1008A000C0F60004946292F8204040F6D925C0F6C4
:1008B0000005012CC2E90C5E2DD092F821404FF0CA
:1008C0000109012C82F8209022D1022482F82140D3
:1008D00000249463D2E90046D2F82C80D76B2568B7
:1008E000102E25F001052560126C03F1280509FA88
:1008F00002F27A606060604604BF28466546A060E8
:10090000E5602068B8F1000F0ED040F00E0011E055
:10091000002082F820001020C1F88000002081F81B
:1009200074002020886734E040F00A0020602068CE
:1009300020F004002060206840F00100206040208A
:10094000186281F874E000BF086850E8020F0A6876
:1009500040F0800042E80203DBB1086850E8020F73
:100960000A6840F0800042E8020393B1086850E84A
:10097000020F0A6840F0800042E802034BB10868A9
:1009800050E8020F0A6840F0800042E80203002BA2
:10099000DAD1BDE8F0437047FEE70000FEE7000053
:1009A000FEE70000704700007047000040F2F820AA
:1009B000C2F2000001680131016070474EF68850B4
:1009C000CEF20000016841F4700101607047000040
:1009D00040F2FF7C0268C4F2000C604512DD40F674
:1009E0000003C4F20003984215D043F20043C4F25E
:1009F000010398420FD042F60043C4F2010398422B
:100A000009D00CE0B0F1804F05D040F20043C4F2B1
:100A10000003984203D14B6822F070021A4343F25C
:100A2000FF33C4F2010398420BDC604518DCB0F1DF
:100A3000804F2AD040F20043C4F20003984224D0F1
:100A400027E044F2FF33C4F20103984211DC43F281
:100A50000043C4F20103984217D044F2000310E0AF
:100A600040F60003C4F2000398420ED042F6004361
:100A700007E044F60003C4F20103984205D044F2B3
:100A80000043C4F20103984203D1CB6822F44072C0
:100A90001A4380B54B6922F0800E8A6843EA0E0340
:100AA000D1F800C00360C262A0F18042A2F5963284
:100AB0004FEAB222072AC0F828C0BDE8804007D814
:100AC000012303FA02F212F0E50F1CBF096901636A
:100AD0000121416170470000406A0268836FD0F8CD
:100AE0007CC0916809062DD5212B2BD10021A0F8BF
:100AF000521000BF016851E8001F026821F0C001D8
:100B000042E80013DBB1016851E8001F026821F0E0
:100B1000C00142E8001393B1016851E8001F026868
:100B200021F0C00142E800134BB1016851E8001FF9
:100B3000026821F0C00142E80013002BDAD1202125
:100B4000816702689168490640F17E80BCF1220FFE
:100B50007AD10021A0F85A10016851E8001F0268FC
:100B600021F4907142E80013BBB3016851E8001F03
:100B7000026821F4907142E8001373B3016851E8F0
:100B8000001F026821F4907142E800132BB3016842
:100B900051E8001F026821F4907142E80013002B15
:100BA000DAD11AE0016851E8021F026821F0010160
:100BB00042E80213DBB1016851E8021F026821F02C
:100BC000010142E8021393B1016851E8021F026873
:100BD00021F0010142E802134BB1016851E8021F04
:100BE000026821F0010142E80213002BDAD1016E04
:100BF000012924D1016851E8001F026821F0100189
:100C000042E80013DBB1016851E8001F026821F0DF
:100C1000100142E8001393B1016851E8001F026817
:100C200021F0100142E800134BB1016851E8001FA8
:100C3000026821F0100142E80013002BDAD12021D4
:100C4000C167002101664166D0F8801041F01001B3
:100C5000C0F88010704700008169202951D0406A97
:100C60000021A0F8521000BF016851E8021F02687D
:100C700021F0800142E8021383B3016851E8021FAA
:100C8000026821F0800142E802133BB3016851E899
:100C9000021F026821F0800142E80213F3B10168EB
:100CA00051E8021F026821F0800142E80213002B84
:100CB000DAD113E0016851E8001F026841F04001F9
:100CC00042E80013002B08BF7047016851E8001F7D
:100CD000026841F0400142E8001393B1016851E815
:100CE000001F026841F0400142E800134BB1016867
:100CF00051E8001F026841F0400142E80013002B58
:100D0000D8D1704780B5D0F800E0DEF81CC00CEAFE
:100D100001038B4218D040F2F82CC2F2000C00BF45
:100D2000DCF800309B1AB3F1007F0FD2DEF8003000
:100D30005B0744BFDEF81C305FEA035354D4DEF88F
:100D40001C300B408B42EBD1002080BD016851E884
:100D5000001F026821F4D07142E80013BBB30168A0
:100D600051E8001F026821F4D07142E8001373B308
:100D7000016851E8001F026821F4D07142E80013B5
:100D80002BB3016851E8001F026821F4D07142E8DA
:100D90000013002BDAD11AE0016851E8021F026843
:100DA00021F0010142E80213DBB1016851E8021FA2
:100DB000026821F0010142E8021393B1016851E891
:100DC000021F026821F0010142E802134BB10168E1
:100DD00051E8021F026821F0010142E80213002BD2
:100DE000DAD17C21782252E04FF40061CEF8201055
:100DF000016851E8001F026821F4D07142E8001335
:100E0000BBB3016851E8001F026821F4D07142E8C9
:100E1000001373B3016851E8001F026821F4D07118
:100E200042E800132BB3016851E8001F026821F467
:100E3000D07142E80013002BDAD11AE0016851E8C2
:100E4000021F026821F0010142E80213DBB10168D0
:100E500051E8021F026821F0010142E8021393B138
:100E6000016851E8021F026821F0010142E8021303
:100E70004BB1016851E8021F026821F0010142E80C
:100E80000213002BDAD12021816780217C222023CC
:100E900083504350002180F87410032080BD00006F
:100EA000FEE70000000000008AB04EF60C56CEF2BD
:100EB000000640F2000456F8041CC1F2000442F29D
:100EC000000520464FF4C472C4F20205FFF73DFA54
:100ED00046F8044C28684FF6FF0140F010002860E7
:100EE0003068084040F20031C0F2FA5108433060E7
:100EF00040F20C00C2F20000016844F6D350C1F287
:100F00006200A1FB00124FF0FF3101EB92130022AF
:100F1000B2EB136F24D14EF21004CEF200044EF661
:100F20000C566360F023CEF20006F3750723A2602F
:100F300023603368C3F3022383F00707042F28BF1D
:100F40000427B940033B6FEA010138BF13469940BB
:100F50000901F17540F2FC21C2F2000101220A7080
:100F600041F20406C4F20206716940F2F82741F02A
:100F7000010171617169C2F2000701F00101049180
:100F80000499B16941F08051B161B16901F08051BA
:100F900004910499316801F00C01042940F0368174
:100FA00056F8041C316801F00C01082940F07B81DF
:100FB000316801F47411B1F5E81F02D0EFF310812C
:100FC00072B6296841F2002411F0060FC0F27A04CB
:100FD00009D12968022262F302012960296801F01F
:100FE0000701022908D1316821F0F001316056F87B
:100FF000041C890100F18581EFF3108072B6F06A5C
:10100000102120F00300F062F06A002420F4402058
:10101000F062B06A40F2004761F30810B0620894D1
:101020003069C4F6000740F40020306130694FF4A5
:10103000005B00F4002009900998306904AD40F489
:1010400080003061306940F21C0900F48000099092
:10105000099830694FF0010A40F40030306130697E
:10106000294600F40030099009983069C4F201095A
:1010700040F480203061306907F5806600F48020FC
:10108000099009984FF4C040C7F81804C7F828B071
:1010900004903046CDE905A40794FFF70DFB4FF40B
:1010A000004004904FF0030830462946CDE90584FE
:1010B000FFF702FB48F60150CDE904084FF09040DD
:1010C00029460694FFF7F8FA4DF6F730CDE9040803
:1010D000384629460694FFF7EFFA41F204063846EF
:1010E0002946CDE904BAC4F20206CDE90644FFF769
:1010F000E3FA306942F6030240F0010030613069E2
:1011000000F00100049004984EF60C50CEF200005E
:101110000068C0F30220C11E38BF2146073818BF3F
:10112000012088404EF20E410001CEF2000108700D
:101130004EF210014FF48040CEF20001C1F8F000F1
:1011400040F22810C2F200004021C0E900914FF4A3
:101150000041C0E90242C0E90414C0E90644C0E904
:101160000848FFF785F910B1EFF3108072B644F626
:101170000809C4F2000942F6F83040F288114844E8
:10118000C2F2000108600879F8B900204871CDE981
:101190000700B16941F00051B161B16901F000513E
:1011A00009910999316941F400313161316901F4E2
:1011B000003109910999302104910321CDE90510ED
:1011C00004A94FF09040FFF777FA40F2881202200E
:1011D000C2F20002002110711161012111715279D6
:1011E00040F2F827012AC2F200074BD1EFF310803A
:1011F00072B640F28810C2F200004079012840F037
:10120000B4803A46EFF3108072B6C6E0316801F060
:101210000C01082903D13168C9033FF5C1AE56F866
:10122000041C41F4803146F8041CB16A21F00F011E
:10123000B162396856F8042C92033FF5B3AE3A68B0
:10124000521A642A3FF6BAAE56F8042C92033FF5C0
:10125000A9AE3A68521A642A3FF6B0AE56F8042C8A
:1012600092033FF59FAE3A68521A642A3FF6A6AE43
:1012700056F8042C92033FF595AE3A68521A642A48
:10128000D8D99BE640F28815C2F20005287128687B
:1012900040F6FE7302689A430260026822F0C002C0
:1012A0000260297166E06021C4F2422100220A60D6
:1012B0003A6856F8043C9B0140F1B2813B689B1AA6
:1012C000022B3FF67BAE56F8043C9B0140F1A8810F
:1012D0003B689B1A022B3FF671AE56F8043C9B010B
:1012E00040F19E813B689B1A022B3FF667AE56F891
:1012F000043C9B0140F194813B689B1A022BD8D996
:101300005CE63168022262F301013160396841F222
:101310008832336803F00C03082B00F0B2813B687D
:101320005B1A93423FF668AE336803F00C03082B58
:1013300000F0A7813B685B1A93423FF65DAE3368CD
:1013400003F00C03082B00F09C813B685B1A93426E
:101350003FF652AE336803F00C03082B00F0918186
:101360003B685B1A9342D4D946E640F28810C2F239
:101370000000006840F288130221C2F200031971D4
:1013800001683A466FF35B410160016821F4400156
:10139000016001201871002058711C20C4F2010066
:1013A00040F2E0181C30C2F200084021C8E90001F8
:1013B00008200021C8E90301C8E90711C8F8241072
:1013C00098F83200052804D098F83200022840F03E
:1013D000DD801746EFF3108072B643F6000A40F244
:1013E0006028C4F2010AC2F200084FF461400026EE
:1013F000C8E900A030200822C8E908604FF48050F6
:101400004FF40051C8E90266C8E90462C8E90666FB
:10141000C8E90E01D8F8780040B14FF0000E002462
:101420004FF0000C00230021504652E041F204012D
:1014300088F87460C4F20201486940F48040486151
:10144000486900F4804004900498086940F4003032
:101450000861086904A900F40030049004984FF46E
:10146000007004900220CDE90506032007900720B4
:1014700008904FF09040FFF71FF940F29C15442070
:10148000C2F20005C4F202008022102185E8430068
:10149000C5E90326C5E90566EE610168092262F324
:1014A0000D1101600C200AF54841C5E90F10AE632B
:1014B0004FF480702884D8F80000D8E90214D8E9E5
:1014C0000432D8E906ECD8F82060C8F86C50C5F8AA
:1014D00024802425C8F878500568194325F00105B3
:1014E00005601143026849F20C639A43114341EAD3
:1014F0000C010160416846EA0E0221F4405121438B
:101500004160816821F430611143816044F6FF310C
:10151000C4F2000188424FF010021DDD44F6004184
:10152000C4F2000141F200248842C0F27A0400F0C3
:10153000DA8045F20001C4F20001884200F0DB804D
:10154000504541F2040AC4F2020A40F0EB80DAF896
:101550002C200FF64851E1E044F20041C4F20001B2
:1015600041F200248842C0F27A0400F0CC8044F6B4
:101570000001C4F2000141F2040A8842C4F2020AE6
:1015800040F0D080DAF82C108A0CC3E0706940F08B
:1015900001007061706900F001000490049898F8EF
:1015A0003200002804BF002088F831000020CDE977
:1015B0000700316941F400313161316901F40031D2
:1015C000099109990C2104910321CDE9051004A981
:1015D0004FF09040FFF770F8D8F804C04CF02001AD
:1015E000602940F0F480D8F80010D8E90323D8E946
:1015F0000665D8E9084AD8E90A7E086843F6110B5F
:10160000CEF2000B00EA0B0010431843304328438E
:10161000204340EA0A0040EAC74040EA0E62FCE08C
:10162000326822F4741202F5E812326001220A6074
:10163000396856F8042C92013FF5C3AC3A68521A47
:10164000022A3FF6BBAC56F8042C92013FF5B9AC28
:101650003A68521A022A3FF6B1AC56F8042C9201AD
:101660003FF5AFAC3A68521A022A3FF6A7AC56F8DB
:10167000042C92013FF5A5AC3A68521A022AD8D937
:101680009CE4296801F0070103290AD32968022292
:1016900062F302012960296801F0070102297FF441
:1016A000ABAC3168042262F30A213160316821F465
:1016B00060513160326802F00C010829214641F086
:1016C000668443F28463C2F38341C0F60003595C2D
:1016D000B36AD20301F1518440F60012C0F23D0218
:1016E000514301F054BC41F2040AC4F2020ADAF890
:1016F0002C100A0D0EE041F2040AC4F2020ADAF8D4
:101700002C108A0D06E041F2040AC4F2020ADAF84B
:101710002C100A0C43F2A461C0F6000102F003028F
:1017200051F82220BCF5004F18D1082A00F2EC80B5
:101730002146DFE812F009002800B600E900820027
:10174000E900E900E900B40040F20C01C2F2000136
:101750000968DAF80020C2F302221DE0082A00F22C
:10176000D3802146DFE802F00521AED082D0D0D070
:10177000AC0040F20C01C2F200010968DAF8002066
:10178000C2F302221AE040F20C01C2F20001096821
:10179000DAF80020C2F3C22243F2C463C0F60003A9
:1017A0009A5CD14000297CD196E040F20C01C2F253
:1017B00000010968DAF80020C2F3C22243F2C463D0
:1017C000C0F600039A5CD14000297BD184E0D8E9BF
:1017D00002A0D8F800100390D8F81000D8E90576D8
:1017E0000290D8E90754D8F824E0086843F61102BB
:1017F000CEF200021040039B40EA0A001843029B0D
:10180000D8E90A2B1843384330432843204340EAA1
:101810000E0040EAC24040EA0B6242EA0C00086057
:1018200098F8320040F2F8270028C2F200077FF44F
:10183000D4AD012088F83200CFE5DAF8002002F0BC
:101840000C01082921462CD143F28463C2F3834161
:10185000C0F60003595CDAF82830D20301F10D8498
:1018600040F60012C0F23D0251439BE7DAF8002037
:1018700002F00C010829214624D143F28463C2F30B
:101880008341C0F60003595CDAF82830D20301F135
:10189000008440F60012C0F23D02514394E74FF439
:1018A0000041D8F80420530803EB4101B1FBF2F1E9
:1018B0004FF6F0720A4027D0C1F3420111430AE00B
:1018C0004FF40041D8F8042001EB5201B1FBF2F1D2
:1018D00089B2102918D3C160D8F824200021002A29
:1018E000C8F86410C8F8681066D0D30710D1930701
:1018F00017D453071ED4130725D4D3062CD493062C
:1019000033D453063AD44AE00020C8E919007EE0F7
:101910004368D8F8287023F400333B4343609307AF
:10192000E7D54368D8F82C7023F480333B434360F9
:101930005307E0D54368D8F8307023F480233B4345
:1019400043601307D9D54368D8F8347023F40043B3
:101950003B434360D306D2D58368D8F8387023F46C
:1019600080533B4383609306CBD58368D8F83C70A3
:1019700023F400533B438360530610D54368D8F8E3
:10198000407023F480133B43B7F5801F436006D1BA
:101990004368D8F8447023F4C0033B43436040F2EB
:1019A000F8271206C2F2000706D54268D8F8483078
:1019B00022F400221A434260426822F490424260BC
:1019C000826822F02A028260026842F0010202600C
:1019D000C8F880103D68016809070BD540F2602601
:1019E000C2F2000630464FF400112A46FFF78AF98A
:1019F00068B93068006840070DD540F26020C2F237
:101A000000004FF480012A46FFF77CF918B1EFF38C
:101A1000108072B609E02020C8F87800C8F87C0071
:101A20000020C8F8600088F87400DAF8180040F266
:101A3000004240F48020CAF81800DAF81800C4F612
:101A4000000200F4802004900498DAF810000721C6
:101A500040F48020CAF81000DAF810004EF20E456B
:101A600000F48020049004989068CEF2000540F4C1
:101A700040109060506820F480605060D06820F47E
:101A80004010D060506A61F30B2050621068022150
:101A900061F3155010604EF60C50CEF20000006855
:101AA0004EF2100200208021CEF200026876C2F8C9
:101AB000F41059F8082CD2074ED159F8082C49F2E5
:101AC0000C639A43043249F8082C59F8042C22F488
:101AD000405249F8042CD9F8002022F44072C9F889
:101AE0000020DAF82C20C2F38142032A00F085821C
:101AF000022A1FD0012A40F08882DAF8002002F082
:101B00000C02082A1DD1DAF80020D2035CBF40F68F
:101B10000014C0F23D04DAF82820DAF8003002F0B0
:101B20000F020132B4FBF2F2C3F38343023303FB2F
:101B300002F406E0DAF81C204FF4004303EA823492
:101B400054B145F2796304F5E132C1F23423A2FBCA
:101B500003239A0BC9F8042059F8042C40F21426E8
:101B600042F4803249F8042CD9F80020C2F2000671
:101B700042F48052C9F80020D9F800204FF6FF73D4
:101B800022F40052C9F8002059F8042C22F49042A3
:101B900049F8042CD9F8002022F02202C9F80020CC
:101BA000D9F8002042F00802C9F8002040F20049AC
:101BB000C4F200090422C6E90092C6E902033061BA
:101BC000B16196F83D000028484635D1002486F8DA
:101BD0003C40DAF8180004A940F00200CAF81800E6
:101BE000DAF8180000F0020004900498DAF8100007
:101BF00040F40030CAF81000DAF8100000F40030A9
:101C000004900498402004900220CDE90504CDE919
:101C100007404FF09040FEF74FFD4EF60C50CEF2CD
:101C2000000000684EF210014FF00050CEF20001AB
:101C3000EC73C1F8F0003068341D88270225214676
:101C4000CFF6FE7786F83D50FEF7C2FE012086F8FB
:101C5000480086F83E0086F83F0086F8400086F887
:101C6000410086F8420086F8430086F8440086F872
:101C7000450086F8460086F8470086F83D0096F84D
:101C80003C10012903D1EFF3108072B60AE086F808
:101C90003D5031688A683A408A6086F83D000020ED
:101CA00086F83C0096F83D000225002804BF00207D
:101CB00086F83C0086F83D5030682146FEF788FEE5
:101CC000012086F8480086F83E0086F83F0086F836
:101CD000400086F8410086F8420086F8430086F806
:101CE000440086F8450086F8460086F8470086F8E6
:101CF0003D0096F83C1043F2004442F6FF380129BB
:101D0000C4F20104C4F201081AD1EFF3108072B6D4
:101D100096F83C00012836D1EFF3108072B696F8A1
:101D20003C00012840F06F81EFF3108072B696F806
:101D30003C00012840F09F81EFF3108072B6AAE0CA
:101D400086F83D50316807F57F438A681A4042F0B3
:101D500054028A600A6A0B6A22F00A0223F0010325
:101D60000B628B6923F0F0038B610A62CA6822F070
:101D70004002CA60CA6822F48042CA6086F83D0008
:101D8000002086F83C003068016A404521F00101DE
:101D900001628269016A0DDCB0F1804F18D04845BC
:101DA00016D040F60003C4F20003984208BF22F0A8
:101DB00003020FE042F60043C4F20103984207D049
:101DC00044F20003C4F20103984201D0A04201D1C1
:101DD00022F0030242F0010222F0F00221F00A0197
:101DE00082610162816921F00C01816181698161F7
:101DF000002186F83C10016A21F01001016281691E
:101E0000026A21F4734142F0200201F5007122F0D0
:101E1000800281610262816921F44061816181698E
:101E20008161022186F83D1042688168A04208D095
:101E300042F60043C4F20103984208BF22F4700244
:101E400001E022F4700222F07002404542600BDC97
:101E5000B0F1804F16D0484514D040F60002C4F2CD
:101E6000000290420ED010E042F60042C4F201029D
:101E7000904207D044F20002C4F20102904201D025
:101E8000A04202D121F080018160012086F83D004E
:101E9000002086F83C001C20C4F20100011D40F225
:101EA0005810C2F20000502200247F2380E8160060
:101EB00000F10C014FF4803798C1C0E90644C0E935
:101EC0000844FEF7D5FA10B1EFF3108072B640F275
:101ED000D802C2F2000201214FF0A040C2E90A1468
:101EE000D161042182F8204082F83040C2E9000428
:101EF000C2E90244C2E90441148354630994106C9A
:101F000040F2080940F2F827C006C5F20009C2F203
:101F1000000700F1BF80106C0024002840F0AE8064
:101F200040F2D800C2F200004464C0E9124480F8D4
:101F30003C40DAF8100040F08050CAF81000DAF89F
:101F4000100000F0805004900498D9F80000C00000
:101F500000F19480D9F8000000F00300012805D1B9
:101F60004FF0A0400068C00741F0598040F2D8020D
:101F7000C2F20002106CC00600F17F80106C41F2CA
:101F80000211884302301064D9F800004DF68361D5
:101F900020F04050C9F80000D9F80000C4F21B310D
:101FA00040F08050C9F8000040F20C00C2F200007E
:101FB00000680024A0FB0101880C00EB80004000B9
:101FC00009900998002859D0099801380990099872
:101FD000002852D0099801380990099800284CD05F
:101FE0000998013809900998002846D009980138C5
:101FF000099009980028E7D140E05AF8042C92078C
:102000003FF59FADA8E53068F5E6DAF8002002F06C
:102010000C02082A15D1DAF80020D2035CBF40F682
:102020000014C0F23D04DAF82820DAF8003002F09B
:102030000F020132B4FBF2F2C3F38343023303FB1A
:1020400002F4DAF8002043F2B463C2F30312C0F6DC
:1020500000039A5CDAF8003043F2C467C3F302234A
:10206000C0F60007FB5C24FA02F222FA03F4002C0B
:102070007FF467AD70E53068D3E60024D9F800003E
:1020800040F2D802C000C2F2000257D5D9F80000D1
:10209000800053D4106C00F01000001959D1D9F809
:1020A0000000400755D4106C40F2E01C20F4817011
:1020B00002301064D9F80000C2F2000C00F00300F6
:1020C000012804D14FF0A0400068C0070FD1D9F813
:1020D000000100F00300012803D1D9F8F800C0077F
:1020E00005D1D9F8000320F44030C9F80003D9F82D
:1020F000000010F00C0F06D1D9F8040044F20201E0
:102100008843C9F80400D9F804004CF20701CFF65F
:10211000F071084000F58050C9F80400D9F8280093
:10212000012120F00F00C9F8280000205064106C35
:1021300061F3010010644FF0A04018E0106C40F013
:10214000100020F002001064506C40F00100506458
:10215000106C106C40F2E01C40F0100020F0020007
:102160001064EFF3108072B61068C2F2000C00F138
:1021700030414FEA3122052A09F1F8042CD82146D2
:10218000DFE802F00F032A2A060D4FF0A04108E015
:1021900040F20871C5F20001A1F5027101E009F5F4
:1021A0007E7140F2D802C2F2000292F83C20012A6D
:1021B00012D0826852075CBF8A685FEA427240F1BF
:1021C000AC8640F2D801C2F20001086C40F0200059
:1021D0000864002081F83C0040F2D802EFF3108040
:1021E00072B6C2F2000292F83C000021012804916C
:1021F00063D00121106882F83C108168490755D4EA
:10220000016B032262F38A110163816811F00C0FE4
:102210002DD14169062262F34B214161C168016EF3
:1022200001F0F841B1F1406F03D1016E21F000419E
:102230000166416E01F0F841B1F1406F03D1416E8A
:1022400021F000414166816E01F0F841B1F1406F2B
:1022500003D1816E21F000418166C16E01F0F84129
:10226000B1F1406F03D1C16E21F00041C1668168B8
:1022700001F00301012902D10168C90705D1D0F895
:10228000B01021F00801C0F8B01040F2D8010020D1
:10229000C2F2000181F83C0012E000BF0100000022
:1022A000040000000800000002000000106C40F074
:1022B00020001064002082F83C00EFF3108072B61A
:1022C000386800BF3968091A64290BD83968091AB7
:1022D000642907D83968091A642903D83968091AA2
:1022E0006529EFD39CF83200052800F080819CF826
:1022F0003200012840F07B81DCF8000010220168E8
:1023000041F002010160016841F48021016001682F
:1023100041F400610160016841F4405101600168CD
:1023200041F001010160016862F31C6101603968DC
:102330003A68521A022A0BD83A68521A022A07D867
:102340003A68521A022A03D83A68521A032AEFD37B
:102350000168026849004FF0180122F0F85258BF96
:10236000082142EA016202603A6800BF3B689B1A9A
:10237000022B0BD83B689B1A022B07D83B689B1A91
:10238000022B03D83B689B1A032BEFD30268520041
:102390004FF0040258BF6FF003020368114423F0AA
:1023A000F85242EA016202603A6800BF3B689B1A39
:1023B000022B0BD83B689B1A022B07D83B689B1A51
:1023C000022B03D83B689B1A032BEFD30268520001
:1023D0004FF0020258BF6FF001020368114423F06E
:1023E000F85242EA016202603A6800BF3B689B1AF9
:1023F000022B0BD83B689B1A022B07D83B689B1A11
:10240000022B03D83B689B1A032BEFD302685200C0
:102410004FF0010258BF4FF0FF320368114423F020
:10242000F85242EA016202603A6800BF3B689B1AB8
:10243000022B0BD83B689B1A022B07D83B689B1AD0
:10244000022B03D83B689B1A032BEFD30268520080
:1024500006D50268013122F0F85242EA01620260B8
:102460000268012363F30D3202600268102363F3F4
:10247000D74202603A68A6463B689B1A022B0BD8EB
:102480003B689B1A022B07D83B689B1A022B03D888
:102490003B689B1A032BEFD30268036852004FF08E
:1024A000180223F4780358BF082243EAC2430360AA
:1024B0003B683C462768FF1A022F0BD82768FF1A93
:1024C000022F07D82768FF1A022F03D82768FF1AA0
:1024D000032FEFD303685B004FF0040358BF6FF086
:1024E000030307681A4427F4780343EAC2430360EE
:1024F000236800BF2768FF1A022F0BD82768FF1A2E
:10250000022F07D82768FF1A022F03D82768FF1A5F
:10251000032FEFD303685B004FF0020358BF6FF047
:10252000010307681A4427F4780343EAC2430360AF
:10253000236800BF2768FF1A022F0BD82768FF1AED
:10254000022F07D82768FF1A022F03D82768FF1A1F
:10255000032FEFD303685B004FF0010358BF4FF028
:10256000FF3307681A4427F4780343EAC243036041
:102570002568D30427687F1B022F0BD827687F1B91
:10258000022F07D827687F1B022F03D827687F1BDD
:10259000032FEFD307687F0007D50368013223F4C8
:1025A0007807D30447EAC24707600768744627F4F0
:1025B00000670760076827F001070760076827F0D2
:1025C000020707604FF48027CCE90972CCF82C1081
:1025D000026840F2F82722F478021A430260026887
:1025E000C2F2000722F0F85242EA016101609CF851
:1025F000320005280CD09CF83200012808D1DCF804
:102600000000016841F00101016004208CF83200F3
:10261000386841F2883141F2893200BF3B681B1AA9
:102620008B420BD83B681B1A8B4207D83B681B1A9E
:102630008B4203D83B681B1A9342EFD340F2F4203D
:10264000C2F200000021016040F2E820C2F2000066
:10265000016040F2F020C2F20000016040F28810F8
:10266000C2F200004079012805D140F28811C2F27F
:1026700000010D6817E040F288120221C2F2000248
:1026800011711568296841F001012960296801F07C
:102690003C013C2903D1696841F0010169600121D5
:1026A000117100215171002104910495049A40F2A6
:1026B000CD1308320492049A0128136017D040F217
:1026C00088120220C2F200021071286840F48030A3
:1026D0002860286800F47010B0F5701F03D1686896
:1026E00040F00200686001201071002050710491D8
:1026F00002950495049840F627111430049004982C
:10270000016040F22810C2F20000FDF751FF40F2D4
:102710005810C2F20000FDF74BFF96F83E1040F251
:10272000D80B0129C2F2000B96F8440008BF01281B
:1027300000F04D8296F83F1096F84500012908BF39
:10274000012800F068829BF83C10DBF800000129AA
:102750004FF0010E28D001218BF83C10816801F068
:102760000301012903D10168C90740F0F182012169
:10277000CBF84010816821F080418160816841F090
:102780000041816039688268B2F1FF3F40F3EA811D
:10279000594651F8402F22F0030242F001020A602C
:1027A0004FF0000E8BF83CE040F20871A042C5F2F9
:1027B00000014A4609F54079A1F53F7308BF494633
:1027C000B0F1A04F08BF49460194A04208BF131DB5
:1027D00044F23F24039300F10C03C0F20F04F246CD
:1027E0004FF0000C002621E047F020020BF14407D7
:1027F000CBF840203A6842F001023A6040F2F827F4
:10280000C2F200076A0458BFC0F80080026C0CF1E5
:10281000010CA24238BF1446B24288BF164649F2A4
:10282000DF32C0F20402944500F0588182685207FA
:1028300000F1C080BAF1010F02D14FF0010AB9E0F6
:1028400001228BF83C20826802F00302012A02D1A7
:102850000268D20729D182683F25C8F200052A42C2
:1028600012D0DBF840204FF0000E42F01002CBF8FF
:102870004020DBF844204FF0000A42F00102CBF880
:1028800044208BF83CE095E0826842F001028260CF
:102890003D6800BF0268D20707D13A68521B032A7D
:1028A000F8D30268D207F5D1DBE7DBF8402040F629
:1028B0000177BA4302F58072CBF8402040F2001253
:1028C00040F48075C5F2000295424A461CBF40F2B2
:1028D0000872C5F200021268D20608D040F2004722
:1028E00040F48062C5F20007BA4240F0DF80DBF8B6
:1028F000402022F48012CBF84020C268920106D515
:10290000DBF84020012767F30D32CBF84020DBF8DD
:102910004020D20446BFDBF8442022F006070027FF
:102920000022CBF844708BF83C201C22026040F25D
:102930000012C5F2000295424A461CBF40F20872DE
:10294000C5F20002126840F2F827D206C2F2000770
:1029500027D040F20012C5F2000295424A461CBF41
:1029600040F20872C5F20002126802F01F02052A46
:1029700017D040F20012C5F2000295424A461CBF31
:1029800040F20872C5F20002126802F01F02092A22
:1029900007D040F2004540F48062C5F20005AA422B
:1029A00003D1826842F0040282604FF0000E4FF0C3
:1029B000000A00BFDBF81420082A03D14FF00808F2
:1029C00011E000BF0A68D20608D00A6812F4404F2E
:1029D00007D0DBF8402042F0200238E0C268D2077E
:1029E000F7D14FF00C0840F2001540F48072C5F2A8
:1029F0000005AA424A461CBF40F20872C5F2000216
:102A000012681D46D20609D040F2004540F48062AB
:102A1000C5F20005AA421D4618BF039D2D68D7F8D0
:102A200000B000BF026812EA080F19D13A68A2EBA1
:102A30000B02652AF6D3026812EA080FF2D140F2BF
:102A4000D80BC2F2000BDBF8402042F004024FF03A
:102A5000000ECBF840208BF83CE04FF0000AD5E6A2
:102A600040F2D80BC2F2000BDBF8402005F400570F
:102A700042F40072CBF84020C26802F44062D219DE
:102A80007FF4BCAE026812077FF5B8AE8268DBF84F
:102A9000407052073FF5A8AE27F480725F4647F8B2
:102AA000402F3A68D2047FF5A5AEA7E6DBF84020B8
:102AB000019F42F48012B842CBF8402009D040F286
:102AC00008724FF60457C5F20002CFF6FF77D259CD
:102AD00014E70822C5F2000252680FE741F204052C
:102AE000BEF1010FC4F2020500F0798101218BF8DB
:102AF0003C10816811F00C0F00F01B81C1689BF83D
:102B000019209BF8183082F0010283F001031A4368
:102B1000B2FA82F201F00071520902EA5162012A0E
:102B200040F0E3800168490614D449F20441C0F240
:102B30000901043900F0448103685B065CBF036847
:102B40005FEA436306D403685B065CBF03685FEA21
:102B50004363EED5402101600421C7E08268002A6A
:102B60007FF516AE3A68521A652A03D38268B2F12D
:102B7000FF3F23DD8268B2F1FF3F3FF709AE3A68BD
:102B8000521A652A02D38268002A17D48268B2F1E9
:102B9000FF3F3FF7FDAD3A68521A652A02D38268BB
:102BA000002A0BD48268B2F1FF3F3FF7F1AD3A68DB
:102BB000521A652AD2D38268002ACFD5DBF840109A
:102BC00041F0100121F00201CBF84010E8E50220AD
:102BD00086F83E0086F844003068C168404541F000
:102BE0000201C160016A21F001010162016A41F044
:102BF0000101016233DCB0F1804F42D040F200416C
:102C0000C4F2000188423CD040F60001C4F2000149
:102C1000884236D041E0022086F83F0086F8450021
:102C20003068C168404541F00401C160016A21F08B
:102C300010010162016A41F01001016232DCB0F161
:102C4000804F41D040F20041C4F2000188423BD0A5
:102C500040F60001C4F20001884235D040E042F65F
:102C60000041C4F2010188420BD044F20001C4F2D9
:102C70000101884205D043F20041C4F201018842BB
:102C80000BD181680722C0F20102114006293FF4EE
:102C900051ADB1F5803F3FF44DAD016841F0010108
:102CA000016047E542F60041C4F2010188420BD0C1
:102CB00044F20001C4F20101884205D043F2004110
:102CC000C4F2010188420BD181680722C0F20102DF
:102CD000114006293FF437ADB1F5803F3FF433ADE5
:102CE000016841F0010101602DE50C2183685B075B
:102CF00006D583689B0703D4836843F01003836081
:102D00000AB1042109E08268120706D58268920799
:102D100003D4826842F0200282603A6883680B42E2
:102D200007D03B689B1A0C2BF8D383680B42F5D075
:102D300046E0816801F00301012902D10168C90759
:102D400027D1594651F8402F41F201139A4340E0F0
:102D5000816801F00D01012911D1816841F0020162
:102D600081600321016039688268D2073FF4FFACBB
:102D70003A68521A032AF7D38268D207F4D0DBF8F4
:102D8000401041F01001CBF84010594651F8442F43
:102D900003E5816801F00D01012911D1816841F03D
:102DA0000201816003210160396800BF8268D20797
:102DB000C7D03A68521A032AF8D38268D207F5D0EE
:102DC000DBF8401041F01001CBF84010594651F8A3
:102DD000442F42F001020A6000218BF83C10B0F150
:102DE000A04F03D1286920F080502861204600F0D0
:102DF0003CFA9FEDAF0B814653EC102B0F4600F0D1
:102E000047FA00F005FA4FF00008CDF81080029D57
:102E1000049504990831049104990860301B00F06E
:102E200024FA9FEDA50B53EC102B00F031FA4A4623
:102E30003B4600F045F900F0EBF9CDF81080049521
:102E40000499012214310491049940F2DC53086082
:102E500040F2EC2140F2E420C2F20001C2F2000094
:102E6000C1F80080027040F2F822C2F2000212683B
:102E700040F2DD5640F2F827C2F200073F68BF1A61
:102E80009F4217D840F2F827C2F200073F68BF1AE6
:102E90009F420FD840F2F827C2F200073F68BF1ADE
:102EA0009F4207D840F2F827C2F200073F68BF1AD6
:102EB000B742DFD30A68062A02D11321062204E0B2
:102EC0000968052910D11621052240F20003C2F23B
:102ED00000031A6040F20803C2F200031A6040F2D5
:102EE0000402C2F200021160002101704EF21001D2
:102EF000CEF20001086820F0020008604EF60C5186
:102F0000CEF20001486840F002004860486820F0B6
:102F10000400486030BF00BFFEE740F20872C5F20F
:102F2000000209F54073A04208BF1A46B0F1A04F55
:102F300008BF1A46136823F460431360836803F0E4
:102F40000303012B02D10068C0070CD1886800F090
:102F50000300012802D10868C00704D1106840F6B8
:102F60001F718843106040F2D8020020C2F20002B4
:102F700082F83C000490FFF73CB903F00F0243F2E3
:102F80009463C0F600039A5CB4FBF2F251433268DA
:102F900043F2B463C2F30312C0F600039A5C21FA51
:102FA00002F3A3FB00014FF0FF3000EB9112002170
:102FB00040F20C00B1EB126FC2F2000003607EF42D
:102FC0001EA840F2FC20C2F200004EF21005037869
:102FD000CEF200054EF60C576A60F022CEF20007E2
:102FE000FA75A9600721012B29607EF408A83968C9
:102FF0004FF0FF33C1F3022181F00702042A28BFFA
:103000000422033903FA02F238BF0021D24302FA44
:1030100001F10901F97501210170FDF7F0BFD9F83F
:10302000000000F00D00012817D1D9F8000003219D
:1030300040F00200C9F800004FF0A040016038687D
:10304000D9F80010C9073EF491AF3968091A03296D
:10305000F6D3D9F80010C907F2D040F2D801C2F275
:103060000001086C012440F010000864486C40F036
:1030700001004864086CFFF701B803F00F0243F247
:103080009463C0F600039A5CB4FBF2F25143FEF77E
:1030900089BB03F00F0243F29463C0F600039A5C0D
:1030A000B4FBF2F25143FEF78FBB00BF00BF00BF7D
:1030B000000000000000FC3F333333333333E33F81
:1030C00010B591EA030F48BF83F0004300F1E68199
:1030D000841A71EB030C05D2121943EB0C03001B8D
:1030E00061EB0C014FEA1154A4EB135CDFF81CE117
:1030F0001EEA430F18BF9EEA445F00F0748021EA85
:10310000045123EA0E0343F48013DCF1200E32D382
:1031100022FA0CFE10EB0E0023FA0CFE41EB0E011E
:10312000CCF1200E03FA0EFE10EB0E00CCF1200EB7
:1031300051F10001B1F5801F32D201EB045112FAB6
:103140000EF2BDE8104058BF7047401C38BF5FEA20
:10315000420218BF7047002814BF20F0010041F15F
:1031600000014FEA410313F5001F38BF7047A1F17A
:10317000C04100F085B9012A43EB0302ACF1200CF9
:10318000DCF11F0E32BF4FF0000E23FA0CF310EBF0
:10319000030041EB0451B4EB115FD0D0A1EB04511B
:1031A00001F58011490801EB04515FEA30000ED3AC
:1031B00050F1000038BF12FA0EFE08D1BDE81040F1
:1031C000C9E7401C38BF5FEA4202CAD1C3E7BDE885
:1031D00010404FEA410313F5001F38BF7047A1F1BB
:1031E000C04100F04DB99EEA445F08D011EA5E0F7D
:1031F000BDE8104004BF01F0004100207047BDE869
:10320000104070B500F0EEF864FBBE3E0000E0FF39
:103210004FEA1153A3F58063D3F11E03A8BFD3F186
:10322000200C08DB4FF0004242EAC12252EA505221
:1032300032FA03F0704709420BD4102BC4BF0020B0
:10324000704703F5787CBCF1FF3F05D04FF0FF30AD
:1032500070474FF00000704770B500F0C3F800BF32
:103260004992248000207047F0E7B0FA80F310FA0A
:1032700003F10AD0C3F11D0303F580634FEA035243
:103280004FEA415002EBD12170474FF000007047E8
:1032900070B5DFF848C11CEA111E1EBF1CEA1315E9
:1032A0009EEA0C0F95EA0C0F00F06F8081EA030490
:1032B0004EEAD47EAE4421EA4C1123EA4C1341F489
:1032C000801143F48013AEF17F7EA1FB024CA0FB82
:1032D0000365361955EB0C05A1FB034C4CF10003BB
:1032E000A0FB021C16EB0C06654153F100030942DA
:1032F00018BF46F0010613F4007F0BD14FEA0331EB
:103300004FEA053041EA155140EA165034036FF098
:1033100003020AE04FEAC3214FEAC52041EA5551B2
:1033200040EA5650F4026FF0020202EB2E4201EB2B
:10333000025585EACE710AD05FEA440C18BF24F02A
:10334000004450F1000041F1000120EAD47040F245
:10335000FE7C624500D270BDA84214BF4FF080448D
:103360004FF04044002E08BF0024BEF1806FA8BF7C
:10337000A1F1C041BDE8704080F2828001F1C041FE
:1033800001F000414FF0000070470CEA13159EEA6F
:103390000C0F18BF95EA0C0F06D081EA030E4FF010
:1033A00000000EF0004170BD00F01CF88900013EE5
:1033B00000F007B800F009B84FEA430C5FEA5C5C24
:1033C00008D081EA030100F05BB84FEA410C5FEAE4
:1033D0005C5CF6D102494FF0000070470000FF0727
:1033E0000000F87F0EF1020E2EF0030E5EF8046B63
:1033F000364205D4012A43EB030515F5001F12D808
:10340000012841EB010C1CF5001F0CD80ED14FEA2E
:10341000D17C0CEB4C0C0CF1020C15F5001F08BF15
:103420004CEBD37C04E04FF0080C01E04FEAD37C76
:103430000CEB4C0526FA05F606F00706B6F1040C6F
:1034400006D20EEB860CBDE870404CF0010C6047D4
:10345000DFE80CF0090B02024FF00041A1F500215A
:103460004FF0000070BD19461046012851EB0104D1
:1034700018BFD4F5001484BF002001F0004170BDD6
:103480000808A0F500114FEA3101704710B591EA24
:10349000030F48BF83F000433FF51AAE841A71EB67
:1034A000030C07D28CF0004C121943EB0C03001BE9
:1034B00061EB0C014FEA1154A4EB135CDFF8A4E1BB
:1034C0001EEA430F18BF9EEA445F00F0B48021EA71
:1034D000045123EA6E035242C3EB6E0338BF5B1EF6
:1034E000DCF1200E25D322FA0CFE10EB0E0043FA7D
:1034F0000CFE41EB0E01CCF1200E03FA0EFE10EB98
:103500000E00CCF1200E51F1000129D401EB045141
:1035100012FA0EF2BDE8104058BF7047401C1CBFA5
:10352000B2F1004F704700280CBF491C20F0010089
:10353000704712EB020E43EB030218BF4FF0010E6F
:103540004EEA4202ACF1200CDCF11E0E56D943FAD1
:103550000CFE10EB0E00CCF11E0E51F1FF31D5D553
:103560000EF1010E12FA0EFE404141EB010101EB9A
:10357000445C5FEA5C5C10D901EB045110EBDE7037
:1035800038BFBEF1004FBDE8104018BF704700289B
:103590000CBF491C20F00100704734D24FEAD42CF4
:1035A00024F4006411F500111BD0B1FA81F20B3A3A
:1035B000A41AA41ED2F12003914030FA03F3194358
:1035C000904001EBCC7101EB0451002CBDE81040A0
:1035D000A8BF704701F1C04101F000414FF0000069
:1035E0007047B0FA80F310FA03F102D1BDE8104041
:1035F0007047E41A173C4805C90AE2E701EB045199
:10360000BDE81040704749104FEA300001EB04510B
:10361000BDE8104002E04FF0000170474A0008BFCB
:103620000042F8D0B2F5001F28BF704701F00041FA
:103630004FF0000070479EEA445F07D011EA5E0F2A
:10364000BDE8104004BF002100207047BDE81040D5
:1036500070B5FFF7C7FE00BF40DFF63E104683F0AF
:10366000004170470000E0FFF1EE100A4FF6FF71D5
:10367000C0F2C03120EA010040F04070E1EE100AD3
:103680007047000002030405060708090A0B0C0D29
:103690000E0F10100102030405060708090A0B0C9F
:1036A0000D0E0F10000000000400000008000000D4
:1036B00002000000000000000000000001020304FE
:1036C0000607080900000000010203041037000883
:1036D0000000002010000000280200082037000829
:1036E0000000001088010000EC01000824370008E9
:1036F00000030010B802000028020008203700086C
:103700001000002000070000480200080000000030
:1037100006000000130000000600000000127A00FE
:1037200001FF018B10B540F21424C2F2000420689E
:103730000169890708D4016949070BD46FF00101B9
:1037400001610021416210BD002141626FF0020160
:10375000016110BD40F23840C4F20000006840F240
:103760007001C2F20001086040F2E420C2F20000E1
:10377000027808684AB1B0F5967F40F20030C2F294
:1037800000001CD901680131B2E0B0F5967F25D95F
:1037900040F2E820C2F2000001680022013101601D
:1037A00040F2F021C2F200010A6040F20001C2F2D0
:1037B000000100680968884200F28B8099E009687E
:1037C0001029C0F0968040F2EC21C2F200010B6893
:1037D0000268934238BF0A60002189E00868102817
:1037E00077D340F2E82040F20001C2F20000C2F2BA
:1037F00000010068096888426BD140F2F020C2F2F3
:103800000000016840F2080201310160C2F20002CA
:1038100001681268914240F20401C2F200014AD9E3
:1038200002680B689A4246D244F60000C4F20000D7
:10383000016841F00101016050E8001F41F02001E2
:1038400040E80012AAB150E8001F41F0200140E812
:10385000001272B150E8001F41F0200140E8001250
:103860003AB150E8001F41F0200140E80012002A60
:10387000E2D144F60800C4F2000050E8001F41F015
:10388000010140E80012A2B350E8001F41F001011D
:1038900040E800126AB350E8001F41F0010140E81F
:1038A000001232B350E8001F41F0010140E800125D
:1038B000002AE2D11DE000680968884219D140F26F
:1038C000F420C2F20000016819B1006880B200F073
:1038D0007FF840F2F420C2F200000021016040F2C3
:1038E000E820C2F20000016040F2F020C2F20000C5
:1038F000016020686FF00401016110BD44F61C00F6
:10390000C4F20000016840F2F42C8906C2F2000CF7
:1039100044BF50F81C2C5FEA82622BD4DCF80020F4
:10392000CAB940F2E82240F20003C2F20002C2F239
:10393000000312681B689A420DD10289DCF800303E
:1039400040F27401C2F20001CA54DCF800100131E7
:10395000CCF8001007E0016809075CBF01685FEA66
:10396000817116D5018950F81C1C21F0010140F825
:103970001C1C704702689207D0D4026852075CBFD3
:1039800002685FEA0272C9D4DCF80020002AD4D1B0
:10399000C4E701684907E6D540F27001C2F20001B0
:1039A00009681029DED340F2E82140F20002C2F299
:1039B0000001C2F20002096812689142D2D1018965
:1039C000DCF8002040F27403C2F200039954BCE713
:0C39D00040F6590CC0F6000C60470000E7
:040000050800018965
:00000001FF
