:020000040800F2
:10000000C006002091020008610800085908000895
:100010005D080008B1030008610D00080000000041
:100020000000000000000000000000006908000857
:100030006D04000800000000650800086D08000855
:10004000AB020008AB020008AB020008AB020008DC
:10005000AB020008AB020008AB020008AB020008CC
:10006000AB020008AB020008AB020008AB020008BC
:10007000AB020008AB020008B5030008AB020008A1
:10008000AB020008AB020008AB020008AB0200089C
:10009000AB020008AB020008AB020008AB0200088C
:1000A000AB020008AB020008AB020008AB0200087C
:1000B000AB02000801030010AB020008AB0200080D
:1000C000AB020008AB020008AB020008AB0200085C
:1000D000AB020008AB020008AB02000829060010C2
:1000E000AB020008AB020008AB020008AB0200083C
:1000F000AB020008AB020008AB020008AB0200082C
:10010000000000000000000000000000AB0200083A
:10011000AB020008AB020008AB020008AB0200080B
:10012000AB020008AB020008AB020008AB020008FB
:10013000AB020008AB020008000000000000000055
:10014000AB020008AB020008AB0200080000000090
:10015000000000000000000000000000000000009F
:100160000000000000000000AB020008AB02000825
:10017000AB020008000000000000000000000000CA
:1001800000000000AB02000800F002F800F070F878
:1001900014A696E8000CB244B344DA4501D100F04D
:1001A00067F8BAE80F000FA696E83000A5EB040543
:1001B00004EB0607AAEB0704A7F101074FEA1515A0
:1001C0004FEA3414A4F10104AC4201D300F050F81A
:1001D00013F0010F18BFFB1A43F0010300F001F800
:1001E000DBE71847042D0000442D00000A4410F8F6
:1001F000014B14F00F0508BF10F8015B240908BF7C
:1002000010F8014B6D1E05D010F8013B6D1E01F872
:10021000013BF9D1641E03D0641E01F8015BFBD1E0
:100220009142E4D370470000103A24BF78C878C1E7
:10023000FAD8520724BF30C830C144BF04680C60EC
:1002400070470000704700000023002400250026AE
:10025000103A28BF78C1FBD8520728BF30C148BF29
:100260000B6070471FB502F00DFE1FBD10B510BD2D
:1002700000F031F81146FFF7F5FF00F073FD00F0D4
:100280004FF803B4FFF7F2FF03BC00F057F800008B
:100290000948804709480047FEE7FEE7FEE7FEE71A
:1002A000FEE7FEE7FEE7FEE7FEE7FEE70448054956
:1002B000054A064B704700007D08000889010008C8
:1002C000B8020020C0060020BA020020C0020020B0
:1002D000704770477047754600F02CF8AE46050031
:1002E0006946534620F00700854618B020B5FFF751
:1002F000DDFFBDE820404FF000064FF000074FF053
:1003000000084FF0000BAC46ACE8C009ACE8C009EF
:10031000ACE8C009ACE8C00921F007018D46704780
:1003200010B50446AFF300802046BDE81040FFF74B
:10033000A8BF0000004870471000002001491820A5
:10034000ABBEFEE726000200704710B5203AC0F0B1
:100350000B80B1E81850A0E81850B1E81850A0E898
:100360001850203ABFF4F5AF5FEA027C24BFB1E831
:100370001850A0E8185044BF18C918C0BDE8104074
:100380005FEA827C24BF51F8043B40F8043B08BF7D
:100390007047D20728BF31F8023B48BF11F8012B44
:1003A00028BF20F8023B48BF00F8012B704700002F
:1003B000FEE70000B0B540F24C1CC2F2000CDCE9D4
:1003C0000FE3DCF80020DEF80010042410689C40E5
:1003D0000C4218BF10F0040520D102249C400C42AE
:1003E00018BF10F002052DD1D940090715D510F01E
:1003F000080008BFB0BD106820F00E00106001209A
:1004000000FA03F1CEF80410CCF83800DCF8301014
:100410004FF48070ACF8200069B9B0BD1068800658
:1004200003D4106820F004001060CEF80440DCF81B
:100430002C100029F1D040F24C10C2F20000BDE8AF
:10044000B04008471068800606D4106820F00A0003
:10045000106001208CF82100CEF80440DCF8281050
:10046000002000298CF82000E5D1D6E77047000075
:10047000A0B390F82910C90630D4B0B586B041F2C7
:100480001401C4F202014A68202342F001024A60CA
:100490004A68C4F2010302F001020192019A026863
:1004A00000259A42CDE90455CDE90255019517D0B2
:1004B0001C23C4F201039A4237D10446086808227B
:1004C00040F4003008600868032500F40030009014
:1004D000009802200190002004231EE001207047B4
:1004E0000446086840F400300860086801A900F478
:1004F000003000900098802001900320CDE9020593
:100500004FF0904000F0D8F84FF480500190022056
:10051000CDE90205082010220C2301A9CD508850F6
:100520004FF0904000F0C8F8204690F829100029BC
:1005300004BF002180F828100021019190E82E00CE
:100540000C680194019C24F0700422430192019AEA
:1005500022F082021A430192019A836922F4402216
:100560001A430192019AAB0A63F38D220192019A18
:10057000036922F400421A430192019A436922F46A
:1005800040321A430192019AC36922F00C021A43C5
:100590000192019A036A22F400721A430192019AAD
:1005A0000A60012180F82910002006B0B0BD0000CB
:1005B000002875D090F82910C90671D490F8291038
:1005C000012918BF7047B0B505684FF6E471CBF646
:1005D000FE7129444FEAB10140F2084E0529C4F2E8
:1005E000010E03D22FA252F8212005E0AEF576715C
:1005F00002228D4208BF0122436A13F0300F46D019
:10060000D9066FEA020C06D4910714D0DEF8201048
:1006100001EA0C0104E0910712D0DEF8201011432A
:10062000CEF82010990612D491071ED0DEF82410BF
:1006300001EA0C0110E0DEF8001001EA0C0102E012
:10064000DEF800101143CEF800109906ECD59107A2
:1006500010D0DEF824101143CEF8241040F23441BB
:100660000EF11C03C4F201010DE0DEF8041001EAF2
:100670000C0102E0DEF804101143CEF80410AEF1D4
:1006800004030EF10C011C6814431C600A60296805
:1006900041F001012960022180F82910BDE8B04035
:1006A000704700BF00002000000040000000002054
:1006B00000000040000000802DE9F04F83B00D687D
:1006C000002D00F0C58000F1200241F2000C0092E4
:1006D00000F13847C4F6000C05224FEAB726604502
:1006E00008BF0422042E38BF4FEAB7220026002795
:1006F0004FF00108019209E00D68043735FA08F25D
:1007000008F1010806F1020600F0A280A8F1010A32
:10071000012202FA0AFE15EA0E09EDD0D1F804B062
:1007200003220BF003056C1EB240012C6FEA020C91
:1007300010D88268CC6802EA0C02B440224382607E
:100740004268CBF3001422EA0E0204FA0AF42243B0
:10075000426003E0032D01D103251EE0C2688C68CE
:1007600002EA0C02B4402243022DC26015D16FF0A0
:10077000030202EA5A0B009A07F01C0452F80BE03D
:100780000F230D69A3402EEA0303A5402B4342F833
:100790000B30D1F804B00BF00305026805FA06F33C
:1007A00002EA0C021A431BF4403F0260A4D041F25B
:1007B0001803C4F202031A6840F2004C42F001022E
:1007C0001A601A68C4F2010C02F001020292029A45
:1007D0002AF003024FF6084E6244CFF6FF7E52F82D
:1007E0000E3007F00C050F24AC40A343019C04FA23
:1007F00005F52B4342F80E30DCF800204B6842EA46
:100800000905DC0358BF22EA0905CCF80050DCF8E2
:1008100004209C0342EA090558BF22EA0905CCF8E6
:100820000450DCF80820DC0242EA090540F20C44DE
:1008300058BF22EA0905CCF80850C4F20104226826
:100840009B0242EA090558BF22EA0905256053E7E1
:1008500003B0BDE8F08F0000FEE70000FEE70000F7
:10086000FEE70000704700007047000040F2A8203B
:10087000C2F2000001680131016070474EF68850F5
:10088000CEF20000016841F4700101607047000081
:1008900040F2FF7C0268C4F2000C604512DD40F6B5
:1008A0000003C4F20003984215D043F20043C4F29F
:1008B000010398420FD042F60043C4F2010398426C
:1008C00009D00CE0B0F1804F05D040F20043C4F2F3
:1008D0000003984203D14B6822F070021A4343F29E
:1008E000FF33C4F2010398420BDC604518DCB0F121
:1008F000804F2AD040F20043C4F20003984224D033
:1009000027E044F2FF33C4F20103984211DC43F2C2
:100910000043C4F20103984217D044F2000310E0F0
:1009200040F60003C4F2000398420ED042F60043A2
:1009300007E044F60003C4F20103984205D044F2F4
:100940000043C4F20103984203D1CB6822F4407201
:100950001A4380B54B6922F0800E8A6843EA0E0381
:10096000D1F800C00360C262A0F18042A2F59632C5
:100970004FEAB222072AC0F828C0BDE8804007D855
:10098000012303FA02F212F0E50F1CBF09690163AB
:100990000121416170470000406A0268836FD0F80E
:1009A0007CC0916809062DD5212B2BD10021A0F800
:1009B000521000BF016851E8001F026821F0C00119
:1009C00042E80013DBB1016851E8001F026821F022
:1009D000C00142E8001393B1016851E8001F0268AA
:1009E00021F0C00142E800134BB1016851E8001F3B
:1009F000026821F0C00142E80013002BDAD1202167
:100A0000816702689168490640F17E80BCF1220F3F
:100A10007AD10021A0F85A10016851E8001F02683D
:100A200021F4907142E80013BBB3016851E8001F44
:100A3000026821F4907142E8001373B3016851E831
:100A4000001F026821F4907142E800132BB3016883
:100A500051E8001F026821F4907142E80013002B56
:100A6000DAD11AE0016851E8021F026821F00101A1
:100A700042E80213DBB1016851E8021F026821F06D
:100A8000010142E8021393B1016851E8021F0268B4
:100A900021F0010142E802134BB1016851E8021F45
:100AA000026821F0010142E80213002BDAD1016E45
:100AB000012924D1016851E8001F026821F01001CA
:100AC00042E80013DBB1016851E8001F026821F021
:100AD000100142E8001393B1016851E8001F026859
:100AE00021F0100142E800134BB1016851E8001FEA
:100AF000026821F0100142E80013002BDAD1202116
:100B0000C167002101664166D0F8801041F01001F4
:100B1000C0F88010704700008169202951D0406AD8
:100B20000021A0F8521000BF016851E8021F0268BE
:100B300021F0800142E8021383B3016851E8021FEB
:100B4000026821F0800142E802133BB3016851E8DA
:100B5000021F026821F0800142E80213F3B101682C
:100B600051E8021F026821F0800142E80213002BC5
:100B7000DAD113E0016851E8001F026841F040013A
:100B800042E80013002B08BF7047016851E8001FBE
:100B9000026841F0400142E8001393B1016851E856
:100BA000001F026841F0400142E800134BB10168A8
:100BB00051E8001F026841F0400142E80013002B99
:100BC000D8D1704780B5D0F800E0DEF81CC00CEA40
:100BD00001038B4218D040F2A82CC2F2000C00BFD7
:100BE000DCF800309B1AB3F1007F0FD2DEF8003042
:100BF0005B0744BFDEF81C305FEA035354D4DEF8D1
:100C00001C300B408B42EBD1002080BD016851E8C5
:100C1000001F026821F4D07142E80013BBB30168E1
:100C200051E8001F026821F4D07142E8001373B349
:100C3000016851E8001F026821F4D07142E80013F6
:100C40002BB3016851E8001F026821F4D07142E81B
:100C50000013002BDAD11AE0016851E8021F026884
:100C600021F0010142E80213DBB1016851E8021FE3
:100C7000026821F0010142E8021393B1016851E8D2
:100C8000021F026821F0010142E802134BB1016822
:100C900051E8021F026821F0010142E80213002B13
:100CA000DAD17C21782252E04FF40061CEF8201096
:100CB000016851E8001F026821F4D07142E8001376
:100CC000BBB3016851E8001F026821F4D07142E80B
:100CD000001373B3016851E8001F026821F4D0715A
:100CE00042E800132BB3016851E8001F026821F4A9
:100CF000D07142E80013002BDAD11AE0016851E804
:100D0000021F026821F0010142E80213DBB1016811
:100D100051E8021F026821F0010142E8021393B179
:100D2000016851E8021F026821F0010142E8021344
:100D30004BB1016851E8021F026821F0010142E84D
:100D40000213002BDAD12021816780217C2220230D
:100D500083504350002180F87410032080BD0000B0
:100D6000FEE700008AB04EF60C55CEF2000540F2C8
:100D7000000455F8041CC1F2000442F200062046AB
:100D80004FF4C472C4F20206FFF7DFFA45F8044CD0
:100D900030684FF6FF0140F01000306028680840CE
:100DA00040F20031C0F2FA510843286040F20C00D2
:100DB000C2F20000016844F6D350C1F26200A1FB08
:100DC00000124FF0FF3101EB92130022B2EB136FD0
:100DD00024D14EF21007CEF200074EF60C557B6080
:100DE000F023CEF20005EB750723BA603B602B6859
:100DF000C3F3022383F00707042F28BF0427B94059
:100E0000033B6FEA010138BF134699400901E975B8
:100E100040F2AC21C2F2000101220A7041F2040545
:100E2000C4F20205696940F2A82741F00101696135
:100E30006969C2F2000701F0010104910499A969EE
:100E400041F08051A961A96901F080510491049990
:100E5000296801F00C01042940F02F8155F8041C89
:100E6000296801F00C01082940F07081296801F41B
:100E70007411B1F5E81F02D0EFF3108172B631683A
:100E800041F2002411F0060FC0F27A0409D1316852
:100E9000022262F302013160316801F00701022988
:100EA00008D1296821F0F001296055F8041C890156
:100EB00000F17A81EFF3108072B6E86A102120F019
:100EC0000300E862E86A002420F44020E862A86A8F
:100ED00040F2004761F30810A86208942869C4F63C
:100EE000000740F40020286128694FF4005B00F4FB
:100EF000002009900998286907F5806640F4800071
:100F0000286128690DF1100A00F480000990099801
:100F100028694FF0010840F40030286128695146E3
:100F200000F4003009900998286940F48020286175
:100F3000286900F48020099009984FF4C040C7F850
:100F40001804C7F828B004903046CDE9058407940A
:100F5000FFF7B2FB4FF4004004904FF00309304616
:100F60005146CDE90594FFF7A7FB48F60150CDE9BE
:100F700004094FF0904051460694FFF79DFB4DF653
:100F8000F730CDE90409384651460694FFF794FB43
:100F900038465146CDE904B8CDE90644FFF78CFB4D
:100FA000286942F6030240F00100286128691C25E7
:100FB00000F00100049004984EF60C50CEF20000B0
:100FC0000068C4F20105C0F30220C11E38BF2146EB
:100FD000073818BF012088404EF20E410001CEF2C2
:100FE000000108704EF210014FF48040CEF2000173
:100FF000C1F8F00040F2D800C2F200004021C0E980
:1010000000514FF40041C0E90242C0E90414C0E9B4
:101010000644C0E90849FFF72BFA10B1EFF310803E
:1010200072B644F6080BC4F2000B42F6F83040F2F8
:1010300038145844C2F200042060207941F20409B7
:10104000C4F2020928BB00206071CDE90700D9F87D
:10105000181041F00051C9F81810D9F8181001F013
:10106000005109910999D9F8101041F40031C9F8DB
:101070001010D9F8101001F40031099109993021AC
:1010800004910321CDE9051004A94FF09040FFF72A
:1010900013FB02200021207121610121217162795D
:1010A000012A46D1EFF3108072B66079012840F032
:1010B000AF80EFF3108072B6B9E0296801F00C013F
:1010C000082903D12968C9033FF5C8AE55F8041CA7
:1010D00041F4803145F8041CA96A21F00F01A9628E
:1010E000396855F8042C92033FF5BAAE3A68521AA3
:1010F000642A3FF6C1AE55F8042C92033FF5B0AE1A
:101100003A68521A642A3FF6B7AE55F8042C920397
:101110003FF5A6AE3A68521A642A3FF6ADAE55F8CE
:10112000042C92033FF59CAE3A68521A642AD8D92F
:10113000A2E62071206840F6FE7302689A430260BE
:10114000026822F0C0020260217162E06021C4F2F4
:10115000422100220A603A6855F8043C9B0140F1A4
:10116000B1813B689B1A022B3FF686AE55F8043CD2
:101170009B0140F1A7813B689B1A022B3FF67CAE96
:1011800055F8043C9B0140F19D813B689B1A022B62
:101190003FF672AE55F8043C9B0140F193813B68E9
:1011A0009B1A022BD8D967E62968022262F3010153
:1011B0002960396841F288322B6803F00C03082B50
:1011C00000F0B1813B685B1A93423FF673AE2B6827
:1011D00003F00C03082B00F0A6813B685B1A9342D6
:1011E0003FF668AE2B6803F00C03082B00F09B81E0
:1011F0003B685B1A93423FF65DAE2B6803F00C032D
:10120000082B00F090813B685B1A9342D4D951E6D9
:1012100020680221217101686FF35B410160016860
:1012200021F440010160012020710020607140F232
:10123000901405F11C00C2F200044021C4E9000131
:1012400008200021C4E90301C4E90711616294F890
:101250003200052804D094F83200022840F0E280E1
:10126000EFF3108072B643F6000840F2102AC4F281
:101270000108C2F2000A4FF461400026CAE900806A
:1012800030200822CAE908604FF480504FF4005122
:10129000CAE90266CAE90462CAE90666CAE90E0139
:1012A000DAF8780040B14FF0000E00244FF0000C47
:1012B00000230021404654E08AF87460D9F81400F5
:1012C00004A940F48040C9F81400D9F8140000F4CF
:1012D000804004900498D9F8100040F40030C9F818
:1012E0001000D9F8100000F40030049004984FF476
:1012F000007004900220CDE9050603200790072026
:1013000008904FF09040FFF7D7F940F24C15442079
:10131000C2F20005C4F202008022102185E84300D9
:10132000C5E90326C5E90566EE610168092262F395
:101330000D1101600C2008F54841C5E90F10AE639E
:101340004FF480702884DAF80000DAE90214DAE950
:101350000432DAE906ECDAF82060CAF86C50C5F815
:1013600024A02425CAF878500568194325F0010502
:1013700005601143026849F20C639A43114341EA44
:101380000C010160416846EA0E0221F440512143FC
:101390004160816821F430611143816044F6FF317E
:1013A000C4F2000188424FF010021DDD44F60041F6
:1013B000C4F2000140F2A8278842C2F2000700F000
:1013C000E48045F20001C4F20001884200F0E180AF
:1013D00041F200244045C0F27A0440F0ED80D9F893
:1013E0002C200FF64C51E3E044F20041C4F200011E
:1013F00040F2A8278842C2F2000700F0CE8044F6EF
:101400000001C4F2000141F200248842C0F27A04D3
:1014100040F0D280D9F82C108A0C42F6C061C0F698
:101420000001C5E0D9F8140040F00100C9F814002B
:10143000D9F8140000F001000490049894F83200E8
:10144000002804BF002084F831000020CDE9070007
:10145000D9F8101041F40031C9F81010D9F8101063
:1014600001F40031099109990C2104910321CDE97E
:10147000051004A94FF09040FFF71EF9676847F088
:101480002001602940F0ED802168D4E90323D4E9EC
:101490000665D4E908C8D4E90AEAD1F8009043F611
:1014A0001100CEF2000000EA090010431843304357
:1014B000284340EA0C0040EA080040EACE4040EAF7
:1014C0000A62F5E02A6822F4741202F5E8122A6032
:1014D00001220A60396855F8042C92013FF5CFAC1F
:1014E0003A68521A022A3FF6C7AC55F8042C92010A
:1014F0003FF5C5AC3A68521A022A3FF6BDAC55F822
:10150000042C92013FF5BBAC3A68521A022A3FF60E
:10151000B3AC55F8042C92013FF5B1AC3A68521ABD
:10152000022AD8D9A8E4316801F0070103290AD3B7
:101530003168022262F302013160316801F0070173
:1015400002297FF4B7AC2968042262F30A212960DA
:10155000296821F4605129602A6802F00C010829E9
:10156000214641F0008442F6A063C2F38341C0F6F5
:101570000003595CAB6AD20301F1EB8340F6001221
:10158000C0F23D02514301F0EEBBD9F82C100A0D18
:1015900006E0D9F82C108A0D02E0D9F82C100A0CBC
:1015A00042F6C06141F20024C0F60001C0F27A04A4
:1015B00002F0030251F82220BCF5004F18D1082A8E
:1015C00000F2ED802146DFE812F009002800B700A4
:1015D000EA008300EA00EA00EA00B50040F20C01EC
:1015E000C2F200010968D9F80020C2F302221DE00E
:1015F000082A00F2D4802146DFE802F00521AFD1AD
:1016000083D1D1D1AD0040F20C01C2F200010968D2
:10161000D9F80020C2F302221AE040F20C01C2F213
:1016200000010968D9F80020C2F3C22242F6E06343
:10163000C0F600039A5CD14000297DD197E040F2CA
:101640000C01C2F200010968D9F80020C2F3C222DD
:1016500042F6E063C0F600039A5CD14000297CD1D9
:1016600085E0206921680390D4E90560D4E9029AF5
:101670000290D4E907CED4F82480086843F611021A
:10168000CEF20002104040EA0900039D40EA0A0041
:101690002843029D3043284340EA0C00D4E90A2342
:1016A00040EA0E0040EA080040EAC24040EA036215
:1016B00042EA0700086094F8320041F20409002869
:1016C000C4F202097FF4CFAD012084F83200CAE5EC
:1016D000D9F8002002F00C01082921462CD142F64D
:1016E000A063C2F38341C0F60003595CD9F82830E7
:1016F000D20301F1AD8340F60012C0F23D02514326
:101700009AE7D9F8002002F00C010829214624D1DB
:1017100042F6A063C2F38341C0F60003595CD9F8D6
:101720002830D20301F1A08340F60012C0F23D023E
:10173000514393E74FF40041DAF80420530803EBD8
:101740004101B1FBF2F14FF6F0720A4027D0C1F32C
:10175000420111430AE04FF40041DAF8042001EBA2
:101760005201B1FBF2F189B2102918D3C160DAF845
:1017700024200021002ACAF86410CAF8681066D034
:10178000D30714D193071BD4530722D4130729D4AA
:10179000D30630D4930637D453063ED44EE040F2FD
:1017A00000470020C4F60007CAE919007EE043683C
:1017B000DAF8286023F40033334343609307E3D51A
:1017C0004368DAF82C6023F48033334343605307D3
:1017D000DCD54368DAF8306023F480233343436078
:1017E0001307D5D54368DAF8346023F40043334354
:1017F0004360D306CED58368DAF8386023F480538B
:10180000334383609306C7D58368DAF83C6023F4DA
:10181000005333438360530610D54368DAF84060C1
:1018200023F480133343B6F5801F436006D1436829
:10183000DAF8446023F4C00333434360120606D54C
:101840004268DAF8483022F400221A4342604268C3
:1018500022F490424260826822F02A02826002688A
:1018600042F001020260CAF880103D68016840F24F
:1018700000470907C4F600070BD540F21026C2F254
:10188000000630464FF400112A46FFF79BF968B96D
:101890003068006840070DD540F21020C2F2000009
:1018A0004FF480012A46FFF78DF918B1EFF310804D
:1018B00072B609E02020CAF87800CAF87C0000203F
:1018C000CAF860008AF87400D9F81800072140F4BB
:1018D0008020C9F81800D9F818004EF2100200F460
:1018E000802004900498D9F81000CEF2000240F451
:1018F0008020C9F81000D9F8100040F2381A00F41E
:10190000802004900498B868C2F2000A40F44010A5
:10191000B860786820F480607860F86820F440103F
:10192000F860786A61F30B2078623868022161F30D
:10193000155038604EF60C50CEF2000000684EF2A2
:101940000E410020CEF2000148768021C2F8F4104A
:101950005BF8082CD2074ED15BF8082C49F20C63D7
:101960009A4304324BF8082C5BF8042C22F44052C2
:101970004BF8042CDBF8002022F44072CBF8002056
:10198000D9F82C20C2F38142032A00F09482022A63
:101990001FD0012A40F09782D9F8002002F00C02F3
:1019A000082A1DD1D9F80020D2035CBF40F60014EC
:1019B000C0F23D04D9F82820D9F8003002F00F0217
:1019C0000132B4FBF2F2C3F38343023303FB02F4AC
:1019D00006E0D9F81C204FF4004303EA823454B1E6
:1019E00045F2796304F5E132C1F23423A2FB03230B
:1019F0009A0BCBF804205BF8042C40F2C41642F496
:101A000080324BF8042CDBF8002040F2004742F40F
:101A10008052CBF80020DBF80020C2F2000622F44E
:101A20000052CBF800205BF8042CC4F2000722F42B
:101A300090424BF8042CDBF800204FF6FF7322F0A5
:101A40002202CBF80020DBF8002042F00802CBF89D
:101A500000200422C6E90072C6E902033061B161C8
:101A600096F83D000028384639D1002486F83C40DD
:101A7000D9F8180004A940F00200C9F81800D9F8F4
:101A8000180000F0020004900498D9F8100040F407
:101A90000030C9F81000D9F8100000F400300490AC
:101AA0000498402004900220CDE90504CDE90740C8
:101AB0004FF09040FEF700FE4EF60C50CEF20000C4
:101AC00000684EF20E40CEF200004EF21001C473D8
:101AD0004FF00050CEF20001C1F8F0003068341D24
:101AE00040F2880802252146CFF6FE7886F83D5060
:101AF000FEF7CEFE012086F8480086F83E0086F804
:101B00003F0086F8400086F8410086F8420086F8DB
:101B1000430086F8440086F8450086F8460086F8BB
:101B2000470086F83D0096F83C10012903D1EFF3F9
:101B3000108072B60BE086F83D5031688A6802EA80
:101B400008028A6086F83D00002086F83C0096F87E
:101B50003D000225002804BF002086F83C0086F8DE
:101B60003D5030682146FEF793FE012086F848007C
:101B700086F83E0086F83F0086F8400086F841006F
:101B800086F8420086F8430086F8440086F845004F
:101B900086F8460086F8470086F83D0096F83C1027
:101BA00043F2004742F6FF3B0129C4F20107C4F2A9
:101BB000010B1ED1EFF3108072B696F83C0040F294
:101BC00090180128C2F200083AD1EFF3108072B6E3
:101BD00096F83C00012840F07481EFF3108072B653
:101BE00096F83C00012840F0A481EFF3108072B613
:101BF000B6E086F83D50316808F57F438A6840F2C8
:101C000090181A4042F054028A600A6A0B6A22F065
:101C10000A0223F001030B628B69C2F2000823F071
:101C2000F0038B610A62CA6822F04002CA60CA6887
:101C300022F48042CA6086F83D00002086F83C000D
:101C40003068016A584521F0010101628269016A28
:101C500011DCB0F1804F1CD040F20043C4F200030D
:101C6000984216D040F60003C4F20003984208BF21
:101C700022F003020FE042F60043C4F2010398424F
:101C800007D044F20003C4F20103984201D0B842E5
:101C900001D122F0030242F0010222F0F00221F011
:101CA0000A0182610162816921F00C01816181690F
:101CB0008161002186F83C10016A21F01001016267
:101CC0008169026A21F4734142F0200201F500713A
:101CD00022F0800281610262816921F440618161A8
:101CE00081698161022186F83D1042688168B842AD
:101CF00008D042F60043C4F20103984208BF22F420
:101D0000700201E022F4700222F070025845426035
:101D10000FDCB0F1804F1AD040F20042C4F2000252
:101D2000904214D040F60002C4F2000290420ED05D
:101D300010E042F60042C4F20102904207D044F2A1
:101D40000002C4F20102904201D0B84202D121F057
:101D500080018160012086F83D00002086F83C006B
:101D60001C20C4F20100011D40F20810C2F2000064
:101D700000257F234FF48034502280E82600C0E9FC
:101D80000335C0E90545C0E907554562FEF770FB1C
:101D900010B1EFF3108072B640F28802C2F2000276
:101DA00001214FF0A040C2E90A15D161042182F857
:101DB000205082F83050C2E90005C2E90255C2E95C
:101DC0000451158355630995106C082740F2A82427
:101DD000C006C5F20007C2F2000400F1B780106C23
:101DE0000025002840F0A88040F28800C2F20000E0
:101DF0004564C0E9125580F83C50D9F8100040F015
:101E00008050C9F81000D9F8100000F080500490FC
:101E100004983868C00000F18F80386800F0030033
:101E2000012805D14FF0A0400068C00740F0E787C7
:101E300040F28802C2F20002106CC0067BD4106C23
:101E400041F2021188430230106438684DF6836114
:101E500020F0405038603868C4F21B3140F08050A8
:101E6000386040F20C00C2F2000000680025A0FBC0
:101E70000101880C00EB80004000099009980028BF
:101E80005AD000BF0998013809900998002852D00B
:101E9000099801380990099800284CD00998013810
:101EA00009900998002846D00998013809900998A6
:101EB0000028E7D140E059F8042C92073FF590AD97
:101EC00099E53068F8E6D9F8002002F00C02082AFB
:101ED00015D1D9F80020D2035CBF40F60014C0F23F
:101EE0003D04D9F82820D9F8003002F00F02013261
:101EF000B4FBF2F2C3F38343023303FB02F4D9F8D9
:101F0000002042F6D063C2F30312C0F600039A5CCD
:101F1000D9F8003042F6E066C3F30223C0F60006AB
:101F2000F35C24FA02F222FA03F4002C7FF458AD99
:101F300061E53068D6E60025386840F28802C000C6
:101F4000C2F2000249D53868800046D4106C00F017
:101F5000100040194CD13868400749D4106C20F467
:101F6000817002301064386800F00300012804D149
:101F70004FF0A0400068C0070FD1D7F8000100F073
:101F80000300012803D1D7F8F800C00705D1D7F81E
:101F9000000320F44030C7F80003386810F00C0F3D
:101FA00004D1786844F202018843786078684CF282
:101FB0000701CFF6F071084000F580507860B86AEC
:101FC000012120F00F00B86200205064106C61F312
:101FD000010010644FF0A04014E0106C40F01000BD
:101FE00020F002001064506C40F001005064106C4E
:101FF000106C40F0100020F002001064EFF310802D
:1020000072B6106800F130414FEA3122052A07F11B
:10201000F8092CD84946DFE802F00F032A2A060DFA
:102020004FF0A04108E040F20871C5F20001A1F5AF
:10203000027101E007F57E7140F28802C2F20002EF
:1020400092F83C20012A12D0826852075CBF8A684D
:102050005FEA427240F14D8640F28801C2F200010F
:10206000086C40F020000864002081F83C0040F239
:102070008802EFF3108072B6C2F2000292F83C00C0
:1020800000210128049162D00121106882F83C10DF
:102090008168490754D4016B032262F38A110163FA
:1020A000816811F00C0F2DD14169062262F34B219A
:1020B0004161C168016E01F0F841B1F1406F03D197
:1020C000016E21F000410166416E01F0F841B1F16D
:1020D000406F03D1416E21F000414166816E01F0F5
:1020E000F841B1F1406F03D1816E21F0004181666A
:1020F000C16E01F0F841B1F1406F03D1C16E21F022
:102100000041C166816801F00301012902D1016823
:10211000C90705D1D0F8B01021F00801C0F8B010FF
:1021200040F288010020C2F2000181F83C0011E079
:102130000100000004000000080000000200000090
:10214000106C40F020001064002082F83C00EFF397
:10215000108072B6206800BF2168091A64290BD864
:102160002168091A642907D82168091A642903D843
:102170002168091A6529EFD398F83200052800F084
:102180008F8198F83200012840F08A81D8F8000049
:102190001022016841F002010160016841F48021D0
:1021A0000160016841F400610160016841F440513F
:1021B0000160016841F001010160016862F31C6186
:1021C000016021682268521A022A0BD82268521A2A
:1021D000022A07D82268521A022A03D82268521A01
:1021E000032AEFD30168026849004FF0180122F07A
:1021F000F85258BF082142EA01620260226800BF1B
:1022000023689B1A022B0BD823689B1A022B07D832
:1022100023689B1A022B03D823689B1A032BEFD346
:10222000026852004FF0040258BF6FF003020368C7
:10223000114423F0F85242EA01620260226800BFB2
:1022400023689B1A022B0BD823689B1A022B07D8F2
:1022500023689B1A022B03D823689B1A032BEFD306
:10226000026852004FF0020258BF6FF0010203688B
:10227000114423F0F85242EA01620260226800BF72
:1022800023689B1A022B0BD823689B1A022B07D8B2
:1022900023689B1A022B03D823689B1A032BEFD3C6
:1022A000026852004FF0010258BF4FF0FF3203683E
:1022B000114423F0F85242EA01620260226800BF32
:1022C00023689B1A022B0BD823689B1A022B07D872
:1022D00023689B1A022B03D823689B1A032BEFD386
:1022E0000268520006D50268013122F0F85242EA33
:1022F000016202600268012363F30D32026002682A
:10230000102363F3D7420260226800BF23689B1A40
:10231000022B0BD823689B1A022B07D823689B1A21
:10232000022B03D823689B1A032BEFD302680368A0
:1023300052004FF0180223F4780358BF082243EAF2
:10234000C2430360236800BF2568ED1A022D0BD835
:102350002568ED1A022D07D82568ED1A022D03D83D
:102360002568ED1A032DEFD303685B004FF00403DB
:1023700058BF6FF0030305681A4425F4780343EA55
:10238000C2430360236800BF2568ED1A022D0BD8F5
:102390002568ED1A022D07D82568ED1A022D03D8FD
:1023A0002568ED1A032DEFD303685B004FF002039D
:1023B00058BF6FF0010305681A4425F4780343EA17
:1023C000C2430360236800BF2568ED1A022D0BD8B5
:1023D0002568ED1A022D07D82568ED1A022D03D8BD
:1023E0002568ED1A032DEFD303685B004FF001035E
:1023F00058BF4FF0FF3305681A4425F4780343EAC9
:10240000C24303602568D30440F2A827C2F2000744
:102410003C68641B022C40F2A824C2F2000417D8C6
:102420003C68641B022C40F2A824C2F200040FD8BE
:102430003C68641B022C40F2A824C2F2000407D8B6
:102440003C68641B032C40F2A824C2F20004DBD3D6
:1024500005686D0007D50368013223F47805D304BD
:1024600045EAC2450560056825F400650560056814
:1024700025F001050560056825F0020505604FF4AB
:102480008025C8E90952C8F82C10026822F47802A5
:102490001A430260026822F0F85242EA01610160C8
:1024A00098F8320005280CD098F83200012808D19D
:1024B000D8F80000016841F001010160042088F8AB
:1024C0003200206841F2883141F2893223681B1AB8
:1024D0008B420BD823681B1A8B4207D823681B1A20
:1024E0008B4203D823681B1A9342EFD340F2A420F7
:1024F000C2F200000021016040F29820C2F2000008
:10250000016040F2A020C2F2000001609AF80500CC
:10251000012802D1DAF8007017E002218AF80410CD
:10252000DAF80070396841F001013960396801F06A
:102530003C013C2903D1796841F001017960012116
:102540008AF8041000218AF8051004910497049A6F
:1025500040F2671308320492049A0128136016D0DF
:1025600002208AF80400386840F480303860386807
:1025700000F47010B0F5701F03D1786840F00200CD
:10258000786001208AF8040000208AF80500049190
:1025900002970497049840F2E5411430049004989F
:1025A000016040F2D800C2F20000FEF701F840F2EC
:1025B0000810C2F20000FDF7FBFF96F83E1040F253
:1025C00088070129C2F2000796F8440008BF0128D5
:1025D00000F0318296F83F1096F84500012908BFB7
:1025E000012800F04C8297F83C10386801294FF020
:1025F000010827D0012187F83C10816801F0030110
:10260000012903D10168C90740F0D682012139644C
:10261000816821F080418160816841F000418160E2
:1026200021688268B2F1FF3F40F3D281394651F808
:10263000402F22F0030242F001020A604FF000082E
:1026400087F83C80082140F20875C5F20001484532
:10265000C5F2000501F5407EA5F53F7208BF75463D
:10266000B0F1A04F08BF7546CDF80490484508BFAB
:102670000A1D44F23F21039200F10C02C0F20F0147
:10268000C4464FF000091EE044F0200307F1440463
:102690003B64236843F00103236000BF40F2A82499
:1026A000C2F200045FEA4B4358BF0660036C09F1B5
:1026B00001098B4238BF194649F2DF33C0F20403E7
:1026C000994500F0428183685B0700F1B380BCF15B
:1026D000010F03D14FF0010CACE000BF012387F8DC
:1026E0003C30836803F00303012B02D10368DB074E
:1026F00025D183683F26C8F2000633420ED03B6CDA
:102700004FF0000843F010033B647B6C4FF0000C6B
:1027100043F001037B6487F83C808BE0836843F0DF
:1027200001038360266800BF0368DB0707D12368C5
:102730009B1B032BF8D30368DB07F5D1DFE73B6C6A
:1027400040F60176B34303F580733B6440F2001317
:1027500040F48076C5F200039E4273461CBF40F2EF
:102760000873C5F200031B68DB0608D040F2004482
:1027700040F48063C5F20004A34240F0D0803B6C7B
:1027800023F480133B64C3689B0104D53B6C012494
:1027900064F30D333B643B6CDB0446BF7B6C23F07E
:1027A0000604002400237C6487F83C301C2303606B
:1027B00040F20013C5F200039E4273461CBF40F274
:1027C0000873C5F200031B6840F2A824DB06C2F2BE
:1027D000000427D040F20013C5F200039E42734666
:1027E0001CBF40F20873C5F200031B6803F01F030F
:1027F000052B17D040F20013C5F200039E4273462A
:102800001CBF40F20873C5F200031B6803F01F03EE
:10281000092B07D040F2004640F48063C5F2000661
:10282000B34203D1836843F0040383604FF0000890
:102830004FF0000C7B69082B02D108260FE000BF87
:102840002B68DB0607D02B6813F4404F06D03B6C97
:1028500043F0200338E0C368DB07F8D10C2640F2D0
:10286000001440F48073C5F20004A34273461CBFF9
:1028700040F20873C5F200031B681446DB0609D05A
:1028800040F2004440F48063C5F20004A3421446C1
:1028900018BF039CD4F800B040F2A824C2F2000490
:1028A000D4F800A00368334216D12368A3EB0A03CF
:1028B000652BF7D303683342F4D140F28807C2F2A4
:1028C00000073B6C43F004034FF000083B6487F8BB
:1028D0003C804FF0000CE9E640F28807C2F20007A6
:1028E0003B6C0BF4005443F400733B64C36803F483
:1028F00040631B197FF4D2AE03681B077FF5CEAE91
:1029000083683C6C5B073FF5BFAE24F480733C46A4
:1029100044F8403F2368DB047FF5BBAEBEE63B6C6A
:10292000019C43F48013A0423B6409D040F2087339
:102930004FF60454C5F20003CFF6FF741B5923E78A
:102940000823C5F200035B681EE741F2040C029DF8
:10295000B8F1010FC4F2020C00F07181012287F876
:102960003C20826812F00C0F00F01781C2687B7E59
:102970003E7E83F0010386F001063343B3FA83F30E
:1029800002F000725B0903EA5263012B40F0E18020
:102990000268520614D449F20442C0F20902043A11
:1029A00000F04081066876065CBF06685FEA46660E
:1029B00006D4066876065CBF06685FEA4666EED512
:1029C000402202600422C5E08268002A7FF52EAE14
:1029D0002268521A0B2A03D38268B2F1FF3F23DD2B
:1029E0008268B2F1FF3F3FF721AE2268521A0B2AEC
:1029F00002D38268002A17D48268B2F1FF3F3FF702
:102A000015AE2268521A0B2A02D38268002A0BD410
:102A10008268B2F1FF3F3FF709AE2268521A0B2AD3
:102A2000D2D38268002ACFD5396C41F0100121F051
:102A30000201396402E6022086F83E0086F844006E
:102A40003068C168584541F00201C160016A21F057
:102A500001010162016A41F00101016233DCB0F160
:102A6000804F42D040F20041C4F2000188423CD085
:102A700040F60001C4F20001884236D041E0022055
:102A800086F83F0086F845003068C168584541F037
:102A90000401C160016A21F010010162016A41F084
:102AA0001001016232DCB0F1804F41D040F20041B0
:102AB000C4F2000188423BD040F60001C4F200019C
:102AC000884235D040E042F60041C4F2010188421C
:102AD0000BD044F20001C4F20101884205D043F258
:102AE0000041C4F2010188420BD181680722C0F283
:102AF0000102114006293FF46DADB1F5803F3FF46E
:102B000069AD016841F00101016063E542F60041F1
:102B1000C4F2010188420BD044F20001C4F2010169
:102B2000884205D043F20041C4F2010188420BD132
:102B300081680722C0F20102114006293FF453AD1B
:102B4000B1F5803F3FF44FAD016841F001010160F4
:102B500049E50C228668760706D58668B60703D451
:102B6000866846F0100686600BB1042209E083688F
:102B70001B0706D583689B0703D4836843F02003B3
:102B8000836023688668164207D02668F61A0C2EE2
:102B9000F8D386681642F5D044E0826802F003025A
:102BA000012A02D10268D20725D13A4652F8403FA5
:102BB00041F20116B3433CE0816801F00D010129A7
:102BC00011D1816841F00201816003210160216817
:102BD0008268D2073FF41AAD2268521A032AF7D34B
:102BE0008268D207F4D0396C41F01001396439465B
:102BF00051F8442F1FE5826802F00D02012A11D11D
:102C0000826842F00202826003220260226800BFF2
:102C10008368DB07C9D023689B1A032BF8D383682A
:102C2000DB07F5D03A6C42F010023A643A4652F8AB
:102C3000443F43F001031360002287F83C20B0F1C9
:102C4000A04F05D1DCF8100020F08050CCF8100027
:102C500000200490049500EE101A04999FED881A44
:102C60000831B8EE400A049120EE010A0499BCEE46
:102C7000C00A81ED000A40F29C21C2F20001086006
:102C800040F29420C2F2000001220270226840F259
:102C9000DC5340F2DD5600BF2568AD1A9D420BD8CB
:102CA0002568AD1A9D4207D82568AD1A9D4203D804
:102CB0002568AD1AB542EFD30A68062A02D113215E
:102CC000062204E00968052910D11621052240F2E8
:102CD0000003C2F200031A6040F20803C2F20003CC
:102CE0001A6040F20402C2F2000211600021017079
:102CF000FEE740F20872C5F2000207F5407348454E
:102D000008BF1A46B0F1A04F08BF1A46136823F453
:102D100060431360836803F00303012B02D1006852
:102D2000C0070CD1886800F00300012802D10868B0
:102D3000C00704D1106840F61F718843106040F24C
:102D400088020020C2F2000282F83C000490FFF7E3
:102D50009BB903F00F0242F6B063C0F600039A5C21
:102D6000B4FBF2F251432A6842F6D063C2F3031275
:102D7000C0F600039A5C21FA02F3A3FB00014FF0B6
:102D8000FF3000EB9112002140F20C00B1EB126F0A
:102D9000C2F2000003607EF490A840F2AC20C2F2C0
:102DA00000004EF210070378CEF200074EF60C56E4
:102DB0007A60F022CEF20006F275B9600721012B8D
:102DC00039607EF47AA84EF60C57CEF200073968C7
:102DD0004FF0FF33C1F3022181F00702042A28BF1C
:102DE0000422033903FA02F238BF0021D24302FA67
:102DF00001F10901F97501210170FEF75EB838682B
:102E000000F00D00012813D13868032140F00200C2
:102E100038604FF0A040016020683968C9073FF46E
:102E200007A82168091A0329F7D33968C907F4D01C
:102E300040F28801C2F20001086C012540F0100048
:102E40000864486C40F001004864086CFFF774B8EF
:102E500003F00F0242F6B063C0F600039A5CB4FBC5
:102E6000F2F25143FEF7E8BB03F00F0242F6B06303
:102E7000C0F600039A5CB4FBF2F25143FEF7EEBBDE
:102E80006666A63FF1EE100A4FF6FF71C0F2C03140
:102E900020EA010040F04070E1EE100A70470000A7
:102EA00002030405060708090A0B0C0D0E0F10108B
:102EB0000102030405060708090A0B0C0D0E0F108A
:102EC00000000000040000000800000002000000F4
:102ED00000000000000000000102030406070809CA
:102EE0000000000001020304282F00080000002059
:102EF0001000000028020008382F00080000001011
:102F000088010000EC0100083C2F000800030010BD
:102F1000E803000028020008382F000810000020F5
:102F2000B006000048020008060000001300000080
:102F30000600000000127A0001FF018B40F2C4106D
:102F4000C2F2000001680A69920708D40A695207B0
:102F50000BD46FF001000861002048627047002028
:102F600048626FF00200086170472DE9F04740F2B7
:102F70003842C4F20002136840F27002C2F200024A
:102F8000136040F29423C2F200031E7813684EB11E
:102F900040F2B020B3F5967FC2F200001CD902685F
:102FA000013227E0B3F5967F26D940F29821C2F28C
:102FB00000010A68002301320A6040F2A022C2F236
:102FC0000002136040F20002C2F2000209681268B7
:102FD000914200F230813EE11268102AC0F03C813B
:102FE00040F29C22C2F20002176803689F4238BF79
:102FF0001360002202602FE111681029C0F01B81CC
:1030000040F2982140F20002C2F20001C2F2000236
:1030100009681268914240F00E8140F2A021C2F28C
:1030200000010A6840F2080301320A60C2F200039C
:103030000A681B689A4240F20402C2F2000250D9A8
:103040000B681668B3424CD244F60001C4F200018A
:103050000A6842F001020A6051E8002F42F02002A3
:1030600041E80023ABB151E8002F42F0200241E8D3
:10307000002373B151E8002F42F0200241E8002301
:103080003BB151E8002F42F0200241E80023002B21
:10309000E2D144F60801C4F2000151E8002F42F0E9
:1030A000010241E80023002B00F0D58051E8002FF9
:1030B00042F0010241E80023002B00F0CC8051E8EF
:1030C000002F42F0010241E80023002B00F0C380F2
:1030D00051E8002F42F0010241E80023002BDCD12F
:1030E000B9E009681268914240F0B58040F2A4212D
:1030F000C2F200010A68002A00F09D800B689AB2B3
:10310000002A00F0988040F21021C2F2000191F8EC
:103110007460012E00F08F8040F2740EC2F2000E37
:10312000C1F84CE0A1F85030A1F852304FF0000C3B
:103130002123C1F880C08B67CC6E0B68002C51D066
:1031400040F61935C0F60005A56294F8205040F607
:103150009916C0F60006012DC4E90C6C2ED094F827
:1031600021504FF00109012D84F8209023D1022530
:1031700084F821500025A563D4E9005AD4F82C80A6
:10318000E66B2F68BAF1100F27F001072F60246C4F
:1031900003F1280709FA04F474606A60724604BFF8
:1031A0003A467746AA60EF602A68B8F1000F0ED061
:1031B00042F00E0211E0002284F820201022C1F813
:1031C0008020002281F8742020228A6733E042F0B8
:1031D0000A022A602A6822F004022A602A6842F061
:1031E00001022A6040221A6281F874C00A6852E81B
:1031F000022F0B6842F0800243E80227DFB10A6821
:1032000052E8022F0B6842F0800243E8022797B190
:103210000A6852E8022F0B6842F0800243E8022756
:103220004FB10A6852E8022F0B6842F0800243E86F
:103230000227002FDAD140F2A421C2F200010022BD
:103240000A6040F29821C2F200010A6040F2A02117
:10325000C2F200010A6001686FF004000861BDE875
:10326000F08700BF44F61C00C4F200000168890624
:1032700040F2A421C2F2000144BF50F81C2C5FEAC6
:10328000826235D40A6852BB40F2982240F20003B1
:10329000C2F20002C2F2000312681B689A421ED1F9
:1032A00040F6140CC4F6000CDCF80030DCF800200A
:1032B00003F4005302F4005242EA034282F4005243
:1032C000CCF80420B0F808C00B6840F27402C2F2D7
:1032D000000202F803C00A6801320A601AE00168BD
:1032E00009075CBF01685FEA81710FD5018911E0B0
:1032F00002689207C6D4026852075CBF02685FEAA0
:103300000272BFD40A68002ACAD1BBE70168490724
:1033100048BF018950F81C1C21F0010140F81C1C19
:0433200070470000F2
:040000050800018965
:00000001FF
